:400000000080002011000000710600007106000008B5044B1A6803F53F5302331A6000F02FFB00BFFA46004010B5054C237833B9044B13B10448AFF300800123237010BD5F
:400040005081FF1F0000000074180000084B10B51BB108490848AFF300800848036803B910BD074B002BFBD0BDE81040184700BF000000005481FF1F74180000C880FF1FDA
:4000800000000000F8B51A4B1B78132B03D80133174A137028E0164E0123337000F01CFF0028B8BF4042134C206000F0B3FF0028B8BF40426060A26823681A44A260E36869
:4000C000C518E5607768B66892FBF7F001F0EEF9314601F03FFA206195FBF7F001F0E6F9314601F037FA606100F09AFBF8BD00BFD080FF1F6C81FF1F08B500F0BDFD164A99
:4001000013781844107000F045FC144A13781844107000F0D5FC124A13781844107000F03DFD104A1378184410700F4B9B69082B0AD10023084A1370084A1370084A1370E5
:40014000084A1370084A9361074A93690133936100F066FB08BD00BFBA81FF1FB881FF1FBB81FF1FB981FF1F6C81FF1F08B5462000F0D2FD1E2000F043FE00F09DFD10B111
:4001800000F092FD50B90023054A1377054A1373462000F0C1FD472000F032FE08BD00BF6C81FF1FD080FF1F08B51E2000F0B4FD462000F025FE00F07FFD10B100F074FDAB
:4001C00050B90023054A1377054A1373462000F0A3FD472000F014FE08BD00BF6C81FF1FD080FF1F08B5114B1B784BB1104A127832B900F059FE0130C0B200F001FE08BDB4
:400200004BB90B4A127832B100F0DAFD0130C0B200F082FD08BD064A127832B92BB9462000F07AFD472000F0EBFD08BDBA81FF1FB881FF1F08B562B600F038FB3F4800F0C1
:40024000C7FA3F4800F0C8FB00F008FD00F094FB00F028FC00F094FC00F036FD00F0A2FD00F014FE642000F051FD642000F0C2FD462000F051FD1E2000F0C2FD00F07EFED5
:4002800000F01AFF2F4B1B7F1BBB00F015FD10B100F00AFD18B900222B4B1A7319E000F0FBFC38B90124284B1C7300F02BFE254B1C770EE000F0E8FC40B90222224B1A73AE
:4002C00000F0BEFE01221F4B1A7702E005221E4B1A731D4B1B7B052BD4D8DFE803F003081228211AFFF77EFFCCE7FFF73FFF154B1B7F002BF9D10522134B1A73C2E7FFF727
:4003000053FF104B1B7F002BF9D105220E4B1A73B8E7322000F000FD322000F071FDB1E700F0C2FD0130C0B200F06AFDAAE700F047FD0130C0B200F0EFFCA3E7F9000000DF
:40034000850000006C81FF1FD080FF1FFEE700BFF0B40022174611E050F82760F3B226F0FF0608E001EB420511F812406D78A5550132013BDBB2002BF4D10137232FEBD9A9
:40038000F0BC7047164B1B78DBB203F00701154A11701B09013213700F22134B1A70022203F22F731A70102203F515731A7040230E4A137080210532117003321370053284
:4003C000137003321370202105321170033213705022074B1A704422A3F2E2231A707047CF0100496E5800403D510040C35A0040585B004008B50A46002101F032FA08BD35
:4004000008B501F023FA08BD38B50322314B1A801823314A13702F2230490A801C200231087002310A802E4A137004222D492E48FFF7E6FF06222D4B1A705222A3F58073C2
:400440001A702B4B1B78DBB22A4A13704FF4E262294B1A8041F25122023B1A80002419250CE0264B1B7803F0010343EA440404F003044FF4F07000F04FFF013D0DB1032C8E
:40048000EFD115B90320FFF761FF1D4A4FF4807313800723137000231A490B704820023108701370053213700222174B1A7004220A331A70154A137843F007031370013A25
:4004C000137843F001031370013A137843F08003137038BD8040004082400040844000408A400040B809004800410040004300400F010049A14600402242004025420040DB
:40050000044000400640004001400040A243004038B572B63F4A137843F00403137000240CE03D4D630019194A0011462A44084691882858FFF75EFF0134E4B2062CF0D9E7
:4005400036494FF09040FFF703FF0322344B1A8040F2031202331A8040F2032202331A8040F2033202331A802E4A03F52C430A331A60A2F5806203F584531A602A4A1378EE
:4005800043F0020313701032137843F002031370264C237843F040032370A2F58632513A137843F010031370082221492148FFF727FF082220492148FFF722FF08222049F5
:4005C0002048FFF71DFF08221F492048FFF718FF08221F491F48FFF713FF08221E491F48FFF70EFF1E4A137843F0080313701D4D61232B70FFF708FFC1232B7001221A4B3D
:400600001A70FFF7BFFE0E2221461848FFF7F8FE38BD00BFE84600407818000090000048485800400404048403500140A0430040880900480251004090090048C251004049
:4006400098090048F2510040A009004812510040A809004822510040B009004832510040224300400048004004000840B043004008B501F0BFF803680C2B00D1FEE7FEE7BC
:4006800008B5104E104D16E029686B68AC68002204E051F8040B43F8040B0432A242F8D1E868002203E0002143F8041B04328242F9D11035013E002EE6D101F0A1F8FFF74C
:4006C000B9FDFEE701000000C818000008B5104A104B1A60104A136843F40073136000230AE0032B03D80D4A52F8231000E00C490C4A42F8231001332F2BF2D90A4B1A787E
:400700000A4B1A70074A0A4B1A60FFF701FF08BD0004FA050CED00E014ED00E000000000710600000080FF1FBC760040C080FF1F08ED00E001BE704770B504460E46074BFD
:400740001D681F2802D90020FFF7F4FF04F01F04103455F8240045F8246070BD08ED00E038B504460D46072902D90020FFF7E2FF1F2C02D90020FFF7DDFF04F01F0000F192
:40078000604000F564406D01EDB2057038BD00BF024B1B68C3F88C00704700BF08ED00E04001C0B2014B1870704700BF13E400E04FF40022014B1A60704700BF00E100E032
:4007C0004FF40022014B1A60704700BF80E100E010B50446FFF7F4FF2046FFF7D9FF0720FFF7DEFFFFF7E4FF10BD00BF084A137843F0040313701032137843F00403137068
:4008000002F66532137843F001031370704700BFA3430040014B1870704700BF1B4F0040014B1878704700BF1B4F0040014B1880704700BF1C4F0040014B1880704700BFF9
:400840001E4F004008B5164A137803F0010313700232137803F0FC031370124B1A7802F0CF021A701A7842F030021A701A7802F0F0021A701A7842F00F021A700A4A13787B
:4008800043F00103137040F2E730FFF7CFFF40F2E730FFF7D1FF0820FFF7BCFF08BD00BF184F0040234F0040194F004008B5054B1B7823B9FFF7C6FF0122024B1A70FFF7DD
:4008C00095FF08BDA081FF1F054A137843F0080313701032137843F008031370704700BFA74300400F490B7803F0FC0200F0030313430B7001280AD10B4B1B78DBB20B4A35
:4009000013700B4B1B78DBB2013213707047094B1B78DBB2054A1370074B1B78DBB201321370704743580040130100493646004017010049B3010049BB01004908B50020F8
:40094000FFF7D0FF0B4B1A7802F0DF021A701A7802F0FB021A701A7842F008021A7003F527731A7802F0E7021A701A7842F008021A7008BD4358004008B5054B1B7823B90D
:40098000FFF7DCFF0122024B1A70FFF79DFF08BDA181FF1F024B187800F00800704700BF965B0040014B1B689864704708ED00E04001C0B2014B1870704700BF02E400E03F
:4009C0000422014B1A60704700E100E00422014B1A60704780E100E010B50446FFF7F6FF2046FFF7DFFF0720FFF7E2FFFFF7E8FF10BD00BF054A137843F00403137010323B
:400A0000137843F004031370704700BFA74300400F490B7803F0FC0200F0030313430B7001280AD10B4B1B78DBB20B4A13700B4B1B78DBB2013213707047094B1B78DBB292
:400A4000054A1370074B1B78DBB201321370704742580040120100493446004016010049B1010049B901004908B50020FFF7D0FF0B4B1A7802F0DF021A701A7802F0FB020F
:400A80001A701A7842F008021A7003F295231A7802F0E7021A701A7842F008021A7008BD4258004008B5054B1B7823B9FFF7DCFF0122024B1A70FFF79DFF08BDA281FF1FDA
:400AC000024B187800F00400704700BF965B0040054A137843F0020313701032137843F002031370704700BFA74300400F490B7803F0FC0200F0030313430B7001280AD12A
:400B00000B4B1B78DBB20B4A13700B4B1B78DBB2013213707047094B1B78DBB2054A1370074B1B78DBB201321370704741580040110100493246004015010049AF0100491B
:400B4000B701004908B50020FFF7D0FF0B4B1A7802F0DF021A701A7802F0FB021A701A7842F008021A7003F28E231A7802F0E7021A701A7842F008021A7008BD4158004097
:400B800008B5054B1B7823B9FFF7DCFF0122024B1A70FFF79DFF08BDA381FF1F024B187800F00200704700BF965B0040054A137843F0010313701032137843F001031370C4
:400BC000704700BFA74300400F490B7803F0FC0200F0030313430B7001280AD10B4B1B78DBB20B4A13700B4B1B78DBB2013213707047094B1B78DBB2054A1370074B1B7862
:400C0000DBB201321370704740580040100100493046004014010049AD010049B501004908B50020FFF7D0FF0B4B1A7802F0DF021A701A7802F0FB021A701A7842F00802BE
:400C40001A7003F287231A7802F0E7021A701A7842F008021A7008BD4058004008B5054B1B7823B9FFF7DCFF0122024B1A70FFF79DFF08BDA481FF1F024B187800F00100B0
:400C8000704700BF965B0040024B1878C0F3C000704700BF01510040024B1878C0F38000704700BF01510040024B1878C0F34000704700BF01510040024B187800F0010077
:400CC000704700BF01510040054A137843F0040313701032137843F004031370704700BFA2430040084A137843F0010313701032137843F00103137002F64D32137843F0DD
:400D000001031370704700BFA3430040014B1880704700BF044F0040014B1880704700BF064F0040014B1870704700BF034F004008B5194A137843F00203137002321378B3
:400D400003F08F0343F010031370144B1A7802F0CF021A701A7842F030021A701A7802F0F0021A701A7842F00F021A706420FFF7CDFF5020FFF7D0FF0020FFF7D3FF084A53
:400D8000137843F00103137002F65E32137843F00103137008BD00BF004F00400B4F0040A343004008B5054B1B7823B9FFF7C0FF0122024B1A70FFF795FF08BDA581FF1F90
:400DC000014B1888C0B27047064F0040084A137843F0020313701032137843F00203137002F65932137843F001031370704700BFA3430040014B1880704700BF104F0040CC
:400E0000014B1880704700BF124F0040014B1870704700BF0F4F004008B5194A137843F0020313700232137803F08F0343F010031370144B1A7802F0CF021A701A7842F05A
:400E400030021A701A7802F0F0021A701A7842F00F021A706420FFF7CDFF5020FFF7D0FF0020FFF7D3FF084A137843F00203137002F66A32137843F00103137008BD00BFFF
:400E80000C4F0040174F0040A343004008B5054B1B7823B9FFF7C0FF0122024B1A70FFF795FF08BDA681FF1F014B1888C0B27047124F004008B50122054B1A60054900203E
:400EC000FFF73AFC07210020FFF74AFC08BD00BF80E100E0B10F000010B50124064B1C6000F03EF9A0F5004000B2044B1B68044A1460184410BD00BF80E100E0A881FF1F54
:400F000000E100E038B505460124054B1C604FF4004000F01FF9034B1D60034B1C6038BD80E100E0A881FF1F00E100E0024B187800F00F00704700BF6465004040F00700D7
:400F4000014B1870704700BF8465004008B50F20FFF7F4FFFFF7EAFF00F0E6F9054A137843F01003137000F0E3F90122024B1A6008BD00BF9465004000E100E008B500F0F7
:400F800041F94FF4004000F0E5F80022064B1A60064B1B7823B9FFF78DFF0122034B1A70FFF7D4FF08BD00BFA881FF1FA781FF1F0D4B1B78DBB213F0010F06D00B490A687C
:400FC00002F5FF427F320A6007E013F0020F04D006490A68A2F500420A6013F0040F02D00022024B1A60704764650040A881FF1F08B50222054B1A6005490120FFF79CFB4C
:4010000007210120FFF7ACFB08BD00BF80E100E0ED10000010B50224064B1C6000F01AF9A0F5004000B2044B1B68044A1460184410BD00BF80E100E0B081FF1F00E100E0F9
:4010400038B505460224054B1C604FF4004000F0FBF8034B1D60034B1C6038BD80E100E0B081FF1F00E100E0024B187800F00F00704700BF6764004040F00700014B18709D
:40108000704700BF8764004008B50F20FFF7F4FFFFF7EAFF00F048F9054A137843F01003137000F045F90222024B1A6008BD00BF9764004000E100E008B500F01DF94FF468
:4010C000004000F0C1F80022064B1A60064B1B7823B9FFF78DFF0122034B1A70FFF7D4FF08BD00BFB081FF1FAC81FF1F0D4B1B78DBB213F0010F06D00B490A6802F5FF4297
:401100007F320A6007E013F0020F04D006490A68A2F500420A6013F0040F02D00022024B1A60704767640040B081FF1F024A137843F080031370704777640040014B187029
:40114000704700BF85650040014B1878704700BF65650040014B1880704700BF086A0040024B1B78024B188880B2704704650040886A0040014B188880B27047886A0040CF
:40118000014B1880704700BF486A0040014B1880704700BF686A004008B501E0FFF7EAFFFFF7D2FF10F0400FF8D108BD08B5134B1A7802F0F8021A701A7802F0FC021A7027
:4011C000FFF7EAFF4FF40040FFF7DAFF4FF40040FFF7C0FF0020FFF7B1FFFFF7B5FF4FF40040FFF7D3FF00F09FF8054A137843F01003137000F09CF808BD00BF776400407E
:401200009565004008B5054B1B7823B9FFF7CEFF0122024B1A70FFF789FF08BDB481FF1F024A137843F080031370704774640040014B1870704700BF84640040014B187878
:40124000704700BF64640040014B1880704700BF06680040024B1B78024B188880B270470364004086680040014B188880B2704786680040014B1880704700BF4668004012
:40128000014B1880704700BF6668004008B501E0FFF7EAFFFFF7D2FF10F0400FF8D108BD08B5134B1A7802F0F8021A701A7802F0FC021A70FFF7EAFF4FF40040FFF7DAFF45
:4012C0004FF40040FFF7C0FF0020FFF7B1FFFFF7B5FF4FF40040FFF7D3FF00F025F8054A137843F01003137000F022F808BD00BF746400409464004008B5054B1B7823B9F1
:40130000FFF7CEFF0122024B1A70FFF789FF08BDB581FF1F000000000230800803D000BF01380046FCD17047EFF3108072B6704780F31088704700BF80F0004002E000BFE7
:4013400081F0004142001FBF5FEA410392EA030F7FEA226C7FEA236C6AD04FEA1262D2EB1363C1BFD218414048404140B8BF5B42192B88BF704710F0004F40F4000020F09A
:401380007F4018BF404211F0004F41F4000121F07F4118BF494292EA030F3FD0A2F1010241FA03FC10EB0C00C3F1200301FA03F100F0004302D5494260EB4000B0F5000F4E
:4013C00013D3B0F1807F06D340084FEA310102F10102FE2A51D2B1F1004F40EBC25008BF20F0010040EA03007047490040EB000010F4000FA2F10102EDD1B0FA80FCACF112
:40140000080CB2EB0C0200FA0CF0AABF00EBC25052421843BCBFD0401843704792F0000F81F4000106BF80F400000132013BB5E74FEA41037FEA226C18BF7FEA236C21D086
:4014400092EA030F04D092F0000F08BF0846704790EA010F1CBF0020704712F07F4F04D1400028BF40F00040704712F100723CBF00F50000704700F0004343F0FE4040F48A
:40148000000070477FEA226216BF08467FEA23630146420206BF5FEA412390EA010F40F4800070474FF0000304E000BF10F0004348BF40425FEA000C08BF704743F09643F4
:4014C00001464FF000001CE050EA010208BF70474FF000030AE000BF50EA010208BF704711F0004302D5404261EB41015FEA010C02BF84460146002043F0B64308BFA3F10F
:401500008053A3F50003BCFA8CF2083AA3EBC25310DB01FA02FC634400FA02FCC2F12002BCF1004F20FA02F243EB020008BF20F00100704702F1200201FA02FCC2F1200220
:4015400050EA4C0021FA02F243EB020008BF20EADC7070474FF0FF0C1CEAD0521EBF1CEAD15392EA0C0F93EA0C0F6FD01A4480EA010C400218BF5FEA41211ED04FF00063C2
:4015800043EA501043EA5111A0FB01310CF00040B1F5000F3EBF490041EAD3715B0040EA010062F17F02FD2A1DD8B3F1004F40EBC25008BF20F00100704790F0000F0CF0DC
:4015C000004C08BF49024CEA502040EA51207F3AC2BFD2F1FF0340EAC250704740F400004FF00003013A5DDC12F1190FDCBF00F000407047C2F10002410021FA02F1C2F10C
:40160000200200FA02FC5FEA310040F1000053EA4C0308BF20EADC70704792F0000F00F0004C02BF400010F4000F013AF9D040EA0C0093F0000F01F0004C02BF490011F48C
:40164000000F013BF9D041EA0C018FE70CEAD15392EA0C0F18BF93EA0C0F0AD030F0004C18BF31F0004CD8D180EA010000F00040704790F0000F17BF90F0004F084691F000
:40168000000F91F0004F14D092EA0C0F01D142020FD193EA0C0F03D14B0218BF084608D180EA010000F0004040F0FE4040F40000704740F0FE4040F4400070474FF0FF0C4C
:4016C0001CEAD0521EBF1CEAD15392EA0C0F93EA0C0F69D0A2EB030280EA010C49024FEA402037D04FF0805343EA111143EA10130CF000408B4238BF5B0042F17D024FF45E
:40170000000C8B4224BF5B1A40EA0C00B3EB510F24BFA3EB510340EA5C00B3EB910F24BFA3EB910340EA9C00B3EBD10F24BFA3EBD10340EADC001B0118BF5FEA1C1CE0D102
:40174000FD2A3FF650AF8B4240EBC25008BF20F0010070470CF0004C4CEA50207F32C2BFD2F1FF0340EAC250704740F400004FF00003013A37E792F0000F00F0004C02BF40
:40178000400010F4000F013AF9D040EA0C0093F0000F01F0004C02BF490011F4000F013BF9D041EA0C0195E70CEAD15392EA0C0F08D142027FF47DAF93EA0C0F7FF470AF5F
:4017C000084676E793EA0C0F04D14B023FF44CAF08466EE730F0004C18BF31F0004CCAD130F000427FF45CAF31F000437FF43CAF5FE700BF014B1868704700BF4881FF1F98
:401800000E4B70B51E460E4C0025E41AA410A54204D056F8253098470135F8E700F042F8084B094C1E46E41AA4100025A54204D056F8253098470135F8E770BDB0180000EF
:40184000B0180000B0180000B818000010B5431E0A44914204D011F8014B03F8014FF8E710BD03460244934202D003F8011BFAE77047000000000000004F00402400405178
:401880000040300000000140001000140140000800400140000A004C014000020050014020004300F8B500BFF8BC08BC9E4670474D000000CD060000F8B500BFF8BC08BC79
:4018C0009E46704729000000D8180000C880FF1F8800000070000000000000000000000001000000E40000007201A241050000000C022B8716D92540000000000000000082
:40190000000000000000000000000000000000000000000000000000A2180000000000000000000000000000000000000000000000000000000000000000000000000000ED
:40194000000000000000000000000000000000000000000000000000E880FF1F000000000000000000000000000000000000000000000000000000000000000000000000E1
:401980000000000000000000000000000000000000000000000000000000000000000000000000000000000000000000000000000000000000000000000000000000000027
:4019C00000000000000000000000000000000000000000000000000000000000000000000000000000000000000000000000000000000000000000000000000000000000E7
:401A000000000000000000000000000000000000000000000000000000000000000000000000000000000000000000000000000000000000000000000000000000000000A6
:401A40000000000000000000000000000000000000000000000000000000000000000000000000000000000000000000000000000000000000000000000000000000000066
:020000040003F7
:0200000480007A
:40000000064F00400852004006640040046500404F000140390101406B02014046030140530401404705014042060140490701400408014003090140020B0140020D014084
:40004000020F01405D140140471501406016014057170140021901400940014010410140134201401443014007440140064501400946014009470140164801400E49014063
:40008000094C0140034D01400A5001400251014001200A270D20161B1910221B000A010308400940600361067819790321C722C770037603846F870F26C727C7840F856FB6
:4000C000043805FE0701082209C50A100B3A0DA30E3A0F5C119612011368150E17F01802197F1A082604281A2A202B012C222E083001323A340635FF3F10560858045904F5
:400100005B045D905F01897D8D668F1891289202935097809802993B9A01A518A601A760A956AB28B003B180B307B578B908C034C502C801C9FFCAFFCBFFD608D808D904E0
:40014000DA08DB04DC09DD99DF01E080E240E340E440E540E680E880EA80EC80EE80031908020A080D020F08116012201420182419101B091D022220240825112730291072
:400180002D082F08320433113504372138A839403D60442045024F0859485A085C805D2460026504670A68046B026D106F027F0183028510874088048D02C007C25AC42723
:4001C000CA64CCE7CE3ED0C0D678D878DE10E612000401C5033A0B01110E13F0157F160218021A011D961E041F6825A32601275C29FE2B01320335FF36043E403F104053C4
:400200004502480149FF4AFF4BFF5608580959045A095B045C095D995F0160806240634064406540668068806A806C806E80800A810282058304840C8603880F8F019023AC
:40024000921C941095029620970C9C109D049E609F02A005A20AA410A6A0A807AD02AF14B030B108B240B310B40FB501B680B706BA02BB80C045C103C9FFCAFFCBFFCDA0A2
:40028000CF01D018D608D804D904DA04DB04DD90DF01E040E280E440E540E680E840EA80EC40ED20EE800002012805020A520C800D080F08100412801304161019211A52AC
:4002C0001B101D081E0121412288230427082B012D28328834043501368039023A403C224306450849404E024F0858405C80624064017F0487028D08902C93489480950495
:4003000096089A109B229CA09F01A101A202A301A880A920AD40B212C01EC2EDC42ECA68CCDACEA9D043D218D618D818DE20E402E6100108031204010D080F101510170832
:400340001B041D081F11200622082406260128043008310232023318340135043604370138883B083E5040454103452346C4470E481F49FF4AFF4BFF4DAF4E074F01501806
:400380005280540F580459045A045B045F056040628064406540668068406A806C406D206E808101830A8D028F0190089501970299019B069E0AA201AC04B002B204B3047A
:4003C000B408B508B601B703BB80BE14D608D804D904DB04DD90DF0100080E800F0210A4168219421A141DA01E801F08204822042301254026282701302031803204362823
:4004000038443B053D82430648A049405108525058405A055B105F4061086210668072407804808083508708902C918092019340948095049608980199019B289CA49D4A9F
:400440009F05A002A101A310A491A702AC40B402C004C290C49ECC6ECE99D003D208D61FD816DE02E40200080201040C06011301140B160418201F02200C22022610280775
:4004800029022B012E0F302031033218360F3E015608580459085B045C905D905F018041841886048A208C0E8F0392209641970498109A029C209D03A018A202A401A6403B
:4004C000A816A902AA08AB01AE1EB020B104B21EB401B502B640B701BE51BF50D280D40FD604D804D904DB04DF010060010A05090A520B080D100F2011011225140415812A
:40050000170819981B021CA21D042251274029212A052B102F0831043280360237403B803C023D01580459905B025C805D40634067026C016E2071027F0183128440860267
:4005400090289180925893049480980199019A409B299CE49D089E029F44A002A120A202A310A411A703B104B202C03FC26FC4FFCA24CC9ACE08D61FD811DE1039803F4001
:4005800059045F012402EA20EE20E402EE40E402EE20E020E60200C00224047705FD0702099E0A070B600C840DCF0E100F301130120813C915941760180119731AF224B715
:4005C000264028C12A122B0F30F031FF340F3F014063410249FF4AFF4BFF4DA04F015018540F5604580459045A045B045F016040628064406540668068406A806C406D20EE
:400600006E808003820C90089C03A801B004B201B408B602B888BE14C023C106C52CC643C70EC81FC9FFCAFFCBFFCDAFCE07CF01D018D40FD804DA04DB04DF05E040E28048
:40064000E440E540E680E840EA80EC40ED20EE80012203110510068409020A080E800F0211041310140C1730188419221D081E881F40210229203204331138A839043B1012
:40068000400441084508460449104D204F065420568858045AA05B025D115E486201660867047C088004830289318B01902892E89480978099109B219D209E01A120A42030
:4006C000A701A940AA01AE10C01FC29AC446CA04CC07CE0ED066D224D6FFD861DE400094026004CF063009070D010F021101130214FD160217041B071D10209E2260230893
:40070000260F2730287329042C302D072EC93310350F36FF37203E403F0440514702481049FF4AFF4BFF580459045A085D095F0160806240634064406540668068806A80F6
:400740006C806E808201841887028C0C922093019414950297019A22A018A104A420AF04B01CB104B202B420B503B601B802BE10BF01C052C702C810C9FFCAFFCBFFD80408
:40078000D90BDA0BDC90DD09DF01E080E240E340E440E540E680E880EA80EC80EE80004001080240050906800840090A0A020B040D080F2010101101140415811706184010
:4007C00019141B421F802004220126A82704281029062A402B402C202E102F86300A350836A0370238043E803F204004474048024E025008570878017F01814082588404FE
:4008000087029028918192A8930694C495409788980199099A409B619C449D229F04A002A122A212A310A6A0A709A804AF40B020B110B401C03DC22EC4FCCAF9CCF3CE3221
:40084000D014D218DE11EA40EC20EE04A801EA80312032043640834084018E10CC70E220E6105004510255045E108D0292109608A001A340A520A640A701AF01D4E0D620FB
:40088000EC101A0A4580528057408004940896089C20A001A340A524A640A701AC20C640D020D460E680EC1019021D0866026A207202850286109C20A001A524A6C0A70146
:4008C000AD80AE01C630D880DA40DC20E240E4101410280184108804C404CA08E00411088710A004B001C408EE040202540486019320A004B504C002D402EE0200029202E3
:4009000093209C10B010B202C008EA04EE042808510854015610584099029A109C20A001A108A520A701A904AA12AE40B108B680CA10D4E0D620EA20EE6008200F027502D6
:4009400099029C20A701A808A920AC40C2C0DE20EA20EC20EE105A026720920293209C10B001D602D801EA0110109C10C40800010101080109010A010B01100111011A0159
:400980001B01003F04C00000000F0F000F0000006007070007000000001F1F001F00000000CBCB00C00000000007070000000000C000000000000F002F001C01000000009A
:4009C00000000000000000000000000000000000000000000000000000000000000000000000000000000000000000000000000000000000000000000000000000000000F7
:400A000000000000000000000000000000000000000000000000000000000000000000000000000000000000000000000000000000000000000000000000000000000000B6
:400A40000000000000000000000000000000000000000000000000000000000000000000000000000000000000000000000000000000000000000000000000000000000076
:400A80000000000000000000000000000000000000000000000000000000000000000000000000000000000000000000000000000000000000000000000000000000000036
:0200000490006A
:0400000000004005B7
:0200000490105A
:04000000BC90ACAF55
:0200000490303A
:020000003AE8DC
:0200000490402A
:4000000000000000000000000000000000000000000000000000000000000000000000000000000000000000000000000000000000000000000000000000000000000000C0
:400040000000000000000000000000000000000000000000000000000000000000000000000000000000000000000000000000000000000000000000000000000000000080
:400080000000000000000000000000000000000000000000000000000000000000000000000000000000000000000000000000000000000000000000000000000000000040
:4000C0000000000000000000000000000000000000000000000000000000000000000000000000000000000000000000000000000000000000000000000000000000000000
:0200000490501A
:0C00000000012E16106900012E224B5149
:00000001FF