:4000000000800020110000000D0600000D06000008B5044B1A6803F53F5302331A6000F015FB00BFFA46004010B5054C237833B9044B13B10448AFF300800123237010BD41
:400040008081FF1F0000000038330000084B10B51BB108490848AFF300800848036803B910BD074B002BFBD0BDE81040184700BF000000008481FF1F38330000C880FF1FBC
:40008000000000002DE9F0411E4B9B78092B03D801331C4A937030E01A4D0123AB7001F09DFF0028B8BF4042174C606002F020F880EAE078A8EBE078C4F808806F686068B0
:4000C000AD6890FBF7F002F009FB294602F05AFB0646E06098FBF7F002F000FB294602F051FB054620613146606902F043FA60612946A06902F03EFAA06101F033FCBDE8C9
:40010000F08100BFD080FF1F9C81FF1F08B501F061FE164A13781844107001F0DDFC144A13781844107001F06DFD124A13781844107001F0E1FD104A1378184410700F4B7B
:40014000DB69032B0AD10023084A1370084A1370084A1370084A1370084AD361074AD3690133D36101F0FEFB08BD00BF8D82FF1F0982FF1F8E82FF1F0B82FF1F9C81FF1FE8
:40018000024B32225A701A70704700BFD080FF1F0E4B1B783BB10E4A127822B90D4A13780133137070473BB9094A127822B1094A5378013353707047054A12782AB923B979
:4001C000044B55225A7057221A7070478D82FF1F0982FF1FD080FF1F08B562B601F008FC314801F097FB314801F098FC01F0E4FD01F064FC01F0F8FC01F070FD01F0F2FD67
:4002000001F05EFE01F0CAFE642001F00DFE642001F078FE0121002000F06EFB00F0A4FB0028FBD001F018FF01F0A0FF01F0D6FE0028B8BF40422E2805DD012001F0EAFC82
:40024000FFF79EFF01E0FFF7A3FF462001F0F2FD472001F05DFE164B93F82030012BE5D101F0BCFE134E144D80EAE072A2EBE0723146284602F03CFC0D4CE06802F0D2FBE4
:4002800002463146284602F033FC01F031FF80EAE072A2EBE0720949094802F029FC002384F82030C2E700BF0D010000850000009C81FF1F3C3300004C82FF1F5033000077
:4002C0000C82FF1FFEE700BFF0B40022174611E050F82760F3B226F0FF0608E001EB420511F812406D78A5550132013BDBB2002BF4D10137262FEBD9F0BC7047164B1B7822
:40030000DBB203F00701154A11701B09013213700F22134B1A70022203F22F731A704023104A137003321370802105321170033213701021053211700332137020210532FB
:400340001170033213705022074B1A704422A3F2E2231A70704700BFCF0100496E5800403D510040C05A0040585B004008B50A46002102F0B4FB08BD08B502F0A5FB08BD14
:4003800038B50322344B1A801823344A13702F2233490A801C200231087002310A80314A13706721023211800232137004222E492E48FFF7E1FF06222D4B1A705222A3F5BA
:4003C00080731A702B4B1B78DBB22B4A13704FF4E2622A4B1A8041F25122023B1A80002419250CE0264B1B7803F0010343EA440404F003044FF4F07001F0E6FF013D0DB1B1
:40040000032CEFD115B90320FFF75CFF1D4A4FF4807313800723137000231B490B704820023108701370053213700222174B1A7004220A331A70164A137843F00F031370AC
:40044000013A137843F001031370013A137843F08003137038BD00BF8040004082400040844000408A400040180B004800410040004300400F010049A146004022420040A6
:4004800025420040044000400640004001400040A243004038B572B6464A137843F00403137000240CE0444D630019194A0011462A44084691882858FFF758FF0134E4B2B4
:4004C000082CF0D900240CE03B48A20011194B000344B3F84020D96B986BFFF74DFF0134E4B2012CF0D935494FF09040FFF7ECFE0322334B1A8040F2031202331A8040F2C7
:40050000032202331A8040F2033202331A802D4A03F530438A331A6002F1804203F540631A60294A137843F0020313701032137843F002031370254C237843F04003237058
:40054000A2F58632513A137843F0100313700A221F492048FFF710FF08221F491F48FFF70BFF0A221E491F48FFF706FF08221E491E48FFF701FF08221D491E48FFF7FCFE8B
:4005800008221D491D48FFF7F7FE1D4A137843F0080313701B4D61232B70FFF7F1FEC1232B70FFF7ABFE0E2221461748FFF7E4FE38BD00BFE8460040683300009C000048AF
:4005C000485800400404044403500140A0430040E00A004800510040EC0A0048C2510040F40A0048F0510040000B004812510040080B004822510040100B004832510040CF
:400600002243004000480040B043004008B502F02FFA03680C2B00D1FEE7FEE708B5094B1A681044084BC31A802B02DC054B186005E002F01DFA0C2303604FF0FF32104697
:4006400008BD00BFE880FF1F6883FF1F08B5104E104D16E029686B68AC68002204E051F8040B43F8040B0432A242F8D1E868002203E0002143F8041B04328242F9D110351D
:40068000013E002EE6D102F0F9F9FFF7A5FDFEE7010000008035000008B5104A104B1A60104A136843F40073136000230AE0032B03D80D4A52F8231000E00C490C4A42F872
:4006C000231001332F2BF2D90A4B1A780A4B1A70074A0A4B1A60FFF7DDFE08BD0004FA050CED00E014ED00E0000000000D0600000080FF1FBC760040C080FF1F08ED00E0DF
:40070000F8B501F069FE0646404A137843F0010313701032137843F00103137001273C4B1F700225943B1D7002F5E2521B32137803F07F031370002001F05EF8354C2378D3
:4007400003F0F9032370344A137803F0DF03137023783B432370384601F04EF8282001F04BF82E4B1A7802F07F021A701A7802F0BF021A7023782B432370284601F03CF8B3
:40078000237843F0040323700023254A137001321370304601F024FE0721172001F04AF82049172001F032F80721182001F042F81D49182001F02AF80721152001F03AF874
:4007C0001A49152001F022F80721284601F032F81749284601F01AF80721032001F02AF81449032001F012F80721042001F022F81149042001F00AF807210C2001F01AF8DC
:400800000E490C2001F002F8F8BD00BFA54300409D6000409443004012600040F8510040846000408D0E0000750C0000890E0000E90D0000190E00004D0E0000950E00002D
:4008400008B5214B18700023204A1370204A1370204A1370204A1370204A1370204A1370204A1370204B4FF400021A604FF080721A604FF400121A6004221A6008221A6041
:4008800010221A6011B1012906D00BE0174A137803F0FE0313700AE0144A137843F00103137004E0114A137843F00103137003220F4B1A708022203B1A70012001F084FD48
:4008C00004220C4B1A7008BD2383FF1F2283FF1F9482FF1F9582FF1F9682FF1F2683FF1F9782FF1F9382FF1F00E100E009600040286000401260004038B504460D46064B16
:400900001B7823B9FFF7FCFE0122034B1A7029462046FFF795FF38BDE081FF1F00230A4A13700A4A13700A4A13700A4A13700A4A13700A4A13700A4A13700322094B1A7083
:400940008022203B1A7070472283FF1F9482FF1F9582FF1F9682FF1F2683FF1F9782FF1F9382FF1F28600040014B1878704700BF9582FF1F1D4B19781D4A13889BB20B44C0
:400980009BB2138000220FE01A494B681B78DBB2194883544B6801334B600132D2B20B889BB2013B9BB20B80124B1B889BB20BB1072AE9D90D4B1B78DBB2082B00D05AB119
:4009C0000E490B7883F080030B700F210C4B197002210C4B197004E0022309490B7009490B70094B1A70014B1A7070479382FF1F2083FF1FA482FF1F006000409882FF1F7B
:400A00009282FF1F2283FF1FB082FF1F0222074B1A708022064B1A700F22064B1A700023054A1370054A1370012070472283FF1F9882FF1F9282FF1F9382FF1FB082FF1F99
:400A400008B5FFF797FF08BD10B4194B197801F00F010239C9B2174A13889BB20B449BB21380002011E0144A5468144B1B5CDBB223705368013353600130C0B20139C9B265
:400A800013889BB2013B9BB213800B4B1B889BB20BB10029E7D10A4B19700A4A137883F0800313700B22084B1A7010BC704700BF296000402083FF1FA482FF1F006000405F
:400AC000B082FF1F9882FF1F9282FF1F0623064A1370064A13708022054B1A700022054B1A700120704700BF2283FF1F9282FF1F9882FF1FB082FF1F064B9B6843B1054B49
:400B00009A6810709A6804490988518000229A60704700BFA482FF1F2083FF1F08B5134B1A78D2B21A701B78DBB213F0800F02D00F4A137008BD0220FFF7DEFF0D4B1B782B
:400B400003F06003202B05D0402B06D043B900F093FC06E001F0D8FC03E000F037FE00E0002010B90322024B1A7008BD286000409282FF1F0060004008B5094B1978094A77
:400B800013889BB20B449BB213800022064B1A700120FFF7B1FF0322044B1A7008BD00BF9382FF1F2083FF1F2283FF1F9282FF1F08B50B4B1B78DBB2042B06D0062B07D0AF
:400BC000022B0BD1FFF7D8FF08BDFFF73DFF08BD0320FFF791FF0322024B1A7008BD00BF2283FF1F9282FF1F08B50022044B1A700120FFF781FF0322024B1A7008BD00BF76
:400C00002283FF1F9282FF1F08B50B4B1B7813F0FF0F07D0084A137843F0800307490B70002313700022064B1A700120FFF764FF0322044B1A7008BD2683FF1F0860004084
:400C40002283FF1F9282FF1F08B5094B1B78DBB2042B06D0062B07D0022B07D1FFF7F0FE08BDFFF7C1FF08BDFFF7CEFF08BD00BF2283FF1F08B5284B1B78DBB213F0100F9C
:400C800048D013F0800F0CD003F00F03012B16D1FFF744FF214B1B7813F0800F11D1012312E013F0400F03D0FFF7CEFF01230BE013F0200F07D0FFF77BFF012304E0002339
:400CC00002E0002300E0002323B3134B1B7813F0800F1FD1124B1B78124A12781343124A13701278D2B2934214D10C4B1B78DBB2094A127812F0800F07D1084B1B78DBB2A0
:400D0000054A1370137803F00F03044A1278D2B29342EAD108BD00BF286000409282FF1F9882FF1FB082FF1F296000400022064B1A80064B9B682BB1044A916800230B7074
:400D400092685380704700BF2083FF1FA482FF1F08B50F4B1B889BB213B9FFF757FE15E002220C4B1A7000220B4B1A70FFF7DEFF0A4AD179937943EA0123054A128892B216
:400D8000934201D2024A1380FFF7F4FD012008BDA482FF1F2283FF1F9882FF1F0060004008B504220B4B1A7080220B4B1A70FFF7BDFF0A4AD179937943EA0123084A128822
:400DC00092B2934201D2064A13800B22054B1A70012008BD2283FF1F9882FF1F00600040A482FF1F9282FF1F0122094B1A700F3B9B7C084B1B7B03F00303934204D0054AEA
:400E0000D37B83F08003D3730122024B5A7370470B600040B482FF1F02220A4B1A700F3B93F82230084B1B7E03F00303012B04D0054AD37E83F08003D3760122024B5A7607
:400E4000704700BF0B600040B482FF1F04220C4B1A700F3B93F832300A4B93F8243003F00303012B06D0074A92F8273083F0800382F827300122034B83F82520704700BFF0
:400E80000B600040B482FF1F704700BF08B5FFF745FD08BD08B500F0A5FC08BD70B588B0054603AC174E0FCE0FC43368237035B322232B7003236B7001A800F0D3FC002401
:400EC00002231AE008AA224412F81C2C08A901EB121111F8141CE954581C00212954981C02F00F0208AE324412F8142C2A54DA1CA9540134E4B20433DBB2212BE2D908B035
:400F000070BD00BFB433000010B401233EE019461A010C242148845403EB4300820020480244527912F0FF0F13D003EB430082001B480244127912F0800F04D01801194A06
:400F4000024494700AE01801164A02440820907004E01801134A0244802090704800084482000F480244D488E4B208010B4901448C71D088C0F30720C871D088C0B2087124
:400F8000D288C2F307224A710133DBB2082BBED9FF22054B1A7010BC704700BF70600040B482FF1FFC5F00400A600040074B1A78074B03EBC2035B681A7C824204D9C0002A
:400FC0001030184440687047002070472383FF1FC8330000F8B5404B1B7813F0FF0F79D03D4B18780138C0B2FFF7E0FF047AC2683A4B1878C0B200236AE01178884264D17F
:401000003749095CC9B25578A9425ED1917801F07F01D67806F00306DFF8C8E04D000D44AF000EEB07054FF0000C85F803C092F802C085F804C092F803C00EF807C0978880
:401040002F8192F90250002D0DDA012E01D1072700E00D274E000E44B500224E35446F7101266E700CE0012E01D1052700E009274E000E44B5001B4E35446F7100266E7025
:40108000DFF868E00F010EEB07060125B57001FA05F529448D00134929440D89C5F307250EF807500D89EDB27570CE88F6B20E4D3D44AE71CE88C6F30726EE71CE88F6B275
:4010C0002E71C988C1F30721697108320133DBB2A34292D3F8BD00BF9582FF1F9682FF1FA082FF1FB482FF1F70600040FC5F0040034B1A78034B03EBC2035868704700BFD0
:401100002383FF1FC833000008B5084B18780138C0B2FFF74BFF30B142681279023200EBC203586808BD002008BD00BF9582FF1F2DE9F047002310E0724D5900CA1896001D
:40114000AC190022AA55A270E2702281A272627034462C4462710133DBB2082BECD940B90AE000226849CA546849CA540133DBB200E00023012BF4D9654B1B7813F0FF0F72
:4011800000F0BD80624B18780138C0B2FFF70EFF80464368DB7913F0400F05D05D4A137843F00103137004E05A4A137803F0FE03137098F808704FF0000A01266FE0D8F81E
:4011C0000C50002467E0AB7803F07F039E425FD1314606EB460083004A4803441B899BB2A888834206D206EB460E4FEA8E03454A134418812B784448C35CDBB268788342AA
:4012000046D195F802C0DFF8FCE04B000B4498000EEB000383F804C0EB780EF80030EB7803F0030395F90200002813DA012B02D14FF0070901E04FF00D09DFF8C8E04B0040
:4012400003EB010C4FEA8C00704480F805900121417012E0012B02D14FF0050901E04FF00909DFF8A0E04B0003EB010C4FEA8C00704480F8059000214170AB790A2B01D08B
:40128000022B05D152463146284601F015F9824608350134E4B2BC4295D30136F6B2082E8DD9D8F80C0000220CE0837803F07F0310F8084B03EB43039900124B19448C72C4
:4012C0000132D2B2BA42F0D3FFF71EFF124B1860002301210FE00B4D4A00501884002C44E380228992B213449BB203F0010213449BB20131C9B20829EDD9FFF705FEBDE88C
:40130000F08700BFB482FF1FA082FF1F9082FF1F9582FF1F9782FF1F9C82FF1F08B5154B1B7903F07F035A1ED2B2072A20D8590019448A0010490A44917841F0010191709C
:401340000021D170517841F002015170127912F0800F05D01B01094A1A448D23937004E01B01064A1A4489239370FFF7AFFB08BD002008BD00600040B482FF1FFC5F0040A6
:40138000274B1B7903F07F035A1ED2B2072A44D810B5590019448A0022490A44917801F0FE0191700021D1701F4C1801215C01F07F012154517801F0FD015170127912F062
:4013C000800F13D003EB43018A0016490A445278D2B2012A04D1224602440C23937019E01B01114A1A440D23937013E003EB43018A000C490A445278D2B2012A05D11B0126
:40140000094A1A440823937004E01B01064A1A4409239370FFF75AFB10BD0020704700BF00600040B482FF1FFC5F004010B50E4B1C79E4B20D4B18780138C0B2FFF7B6FD2E
:4014400043681B799C4201D9022C0AD8084A135DDBB208490B55044B9B78DBB21355012010BD002010BD00BF006000409582FF1FA082FF1F9082FF1F10B59C4B1B78DBB263
:4014800000219B4A118013F0800F00F0AD80974A5278D2B20A2A00F27481DFE812F06900720172017201720172010B007201920072019A008D4BDB78DBB2012B09D1FFF75A
:4014C00017FE42688A4B5A6012221A80FFF740FC10BD864BDB78DBB2022B13D1834B9878FFF764FD002800F04E814268804B5A605A68D1785A68927842EA01221A80FFF70E
:4015000027FC10BD794BDB78DBB2032B05D02CE00A7811440133DBB201E000237549734A9278D2B2934203D20A7812F0FF0FEFD16E4B9B7813F0FF0F0BD06C4B9B78DBB258
:401540006D4A127C934204D16C4C2046FFF7A6FC21460B7813F0FF0F00F017810B78644A13805160FFF7F4FB10BD00F0CDFF10BD13F0030317D0022B40F009815C490B808C
:401580005A4B1B7903F07F0303EB43039A005C4B1A449278D2B25B4B1A7000225A704B60FFF7D6FB10BD524902230B80564B1A78D2B2544B1A7000225A704B60FFF7C8FB46
:4015C00010BD4B4B01221A80504A5A60FFF7C0FB10BD474A01231380444B1B794C490B445360FFF7B5FB10BD404A5278013A0A2A00F2CF80DFE812F04C00CD009800CD0039
:401600000B00CD00CD00CD001300CD003000374B9B78DBB23F4A1370FFF758FA10BD334B9B7803F0FF041BB1601EC0B2FFF7BEFC04B110B9002C40F0AE80344B1B78DBB24B
:401640009C4206D0314B1C700120334B1870FFF76FFDFFF73BFA10BDFFF7E8FE002800F09C80224A1379DBB21279D2B22B490A702B4AD25CD2B22649CB5CDBB29A4204D0A1
:401680000122254B1A70FFF7A5FCFFF71FFA10BD03F00303012B17D04BB1022B7FD1134B9B7813F0FF0F7CD1FFF76AFE10BD0F4B9B78DBB2012B76D1134A137803F0FD03D3
:4016C0001370FFF703FA10BD084B1B79DBB2012B6BD8064B98781B79DBB21249CA5C22EA0002CA54FFF7F2F910BD00BF00600040A482FF1F30340000143500004083FF1FB6
:40170000B482FF1FE481FF1F9782FF1F9582FF1FA082FF1F2683FF1F9482FF1F9682FF1F9082FF1F2483FF1F03F00303012B17D04BB1022B3BD1224B9B7813F0FF0F38D125
:40174000FFF7ECFD10BD1E4B9B78DBB2012B32D11C4A137843F002031370FFF7B7F910BD174B1B79DBB2012B27D8154B98781B79DBB21549CA5C22EA0002CA54FFF7A6F9E2
:4017800010BD002010BD002010BD002010BD002010BD002010BD002010BD002010BD002010BD002010BD002010BD002010BD002010BD002010BD002010BD002010BD00BFBA
:4017C000006000409782FF1F2483FF1F044B1B7813F0800F01D0024B5B780020704700BF00600040024B1878C0F38010704700BF8F45004001BE704708B5034B1B7A00FBF7
:4018000003F000F0E1FD08BDEC80FF1F70B504460E46074B1D681F2802D90020FFF7EAFF04F01F04103455F8240045F8246070BD08ED00E038B504460D46072902D9002099
:40184000FFF7D8FF1F2C02D90020FFF7D3FF04F01F0000F1604000F564406D01EDB2057038BD00BF134B1B78DBB20360124A127843EA02230360114A127843EA02430360E4
:401880000F4A127843EA026303600E4B1B78DBB243600D4A127843EA022343600B4A127843EA024343600A4A127843EA02634360704700BF0301004904010049EC460040D4
:4018C0000201004901010049000100490501004906010049024B1B68C3F88C00704700BF08ED00E04001C0B2014B1870704700BF13E400E04FF40022014B1A60704700BF91
:4019000000E100E04FF40022014B1A60704700BF80E100E010B50446FFF7F4FF2046FFF7D9FF0720FFF7DEFFFFF7E4FF10BD00BF084A137843F0040313701032137843F0DF
:401940000403137002F66532137843F001031370704700BFA3430040014B1870704700BF1B4F0040014B1878704700BF1B4F0040014B1880704700BF1C4F0040014B188094
:40198000704700BF1E4F004008B5164A137803F0010313700232137803F0FC031370124B1A7802F0CF021A701A7842F030021A701A7802F0F0021A701A7842F00F021A7093
:4019C0000A4A137843F00103137040F2E730FFF7CFFF40F2E730FFF7D1FF0820FFF7BCFF08BD00BF184F0040234F0040194F004008B5054B1B7823B9FFF7C6FF0122024B2D
:401A00001A70FFF795FF08BDE681FF1F054A137843F0080313701032137843F008031370704700BFA74300400F490B7803F0FC0200F0030313430B7001280AD10B4B1B78FF
:401A4000DBB20B4A13700B4B1B78DBB2013213707047094B1B78DBB2054A1370074B1B78DBB201321370704743580040130100493646004017010049B3010049BB010049A2
:401A800008B50020FFF7D0FF0B4B1A7802F0DF021A701A7802F0FB021A701A7842F008021A7003F527731A7802F0E7021A701A7842F008021A7008BD4358004008B5054B4E
:401AC0001B7823B9FFF7DCFF0122024B1A70FFF79DFF08BDE781FF1F024B187800F00800704700BF965B0040014B1B689865704708ED00E04001C0B2014B1870704700BFFE
:401B000006E400E04022014B1A60704700E100E04022014B1A60704780E100E010B50446FFF7F6FF2046FFF7DFFF0720FFF7E2FFFFF7E8FF10BD00BF054A137843F001036F
:401B400013701032137843F001031370704700BFA74300400F490B7803F0FC0200F0030313430B7001280AD10B4B1B78DBB20B4A13700B4B1B78DBB2013213707047094B9F
:401B80001B78DBB2054A1370074B1B78DBB201321370704740580040100100493046004014010049AD010049B501004908B50020FFF7D0FF0B4B1A7802F0DF021A701A789F
:401BC00002F0FB021A701A7842F008021A7003F287231A7802F0E7021A701A7842F008021A7008BD4058004008B5054B1B7823B9FFF7DCFF0122024B1A70FFF79DFF08BDEB
:401C0000E881FF1F024B187800F00100704700BF965B0040044A137803F0FB03800000F0040018431070704720510040054A137843F0020313701032137843F0020313700A
:401C4000704700BFA74300400F490B7803F0FC0200F0030313430B7001280AD10B4B1B78DBB20B4A13700B4B1B78DBB2013213707047094B1B78DBB2054A1370074B1B78D1
:401C8000DBB201321370704741580040110100493246004015010049AF010049B701004908B50020FFF7D0FF0B4B1A7802F0DF021A701A7802F0FB021A701A7842F0080225
:401CC0001A7003F28E231A7802F0E7021A701A7842F008021A7008BD4158004008B5054B1B7823B9FFF7DCFF0122024B1A70FFF79DFF08BDE981FF1F024B187800F00200D2
:401D0000704700BF965B0040054A137843F0040313701032137843F004031370704700BFA74300400F490B7803F0FC0200F0030313430B7001280AD10B4B1B78DBB20B4AD9
:401D400013700B4B1B78DBB2013213707047094B1B78DBB2054A1370074B1B78DBB201321370704742580040120100493446004016010049B1010049B901004908B50020AD
:401D8000FFF7D0FF0B4B1A7802F0DF021A701A7802F0FB021A701A7842F008021A7003F295231A7802F0E7021A701A7842F008021A7008BD4258004008B5054B1B7823B99F
:401DC000FFF7DCFF0122024B1A70FFF79DFF08BDEA81FF1F024B187800F00400704700BF965B0040054A137843F0040313701032137843F004031370704700BFA243004004
:401E0000084A137843F0010313701032137843F00103137002F64D32137843F001031370704700BFA3430040014B1880704700BF044F0040014B1880704700BF064F004050
:401E4000014B1870704700BF034F004008B5194A137843F0020313700232137803F08F0343F010031370144B1A7802F0CF021A701A7842F030021A701A7802F0F0021A7055
:401E80001A7842F00F021A706420FFF7CDFF5020FFF7D0FF0020FFF7D3FF084A137843F00103137002F65E32137843F00103137008BD00BF004F00400B4F0040A343004029
:401EC00008B5054B1B7823B9FFF7C0FF0122024B1A70FFF795FF08BDEB81FF1F084A137843F0020313701032137843F00203137002F65932137843F001031370704700BF80
:401F0000A3430040014B1880704700BF104F0040014B1880704700BF124F0040014B1870704700BF0F4F004008B5194A137843F0020313700232137803F08F0343F01003AF
:401F40001370144B1A7802F0CF021A701A7842F030021A701A7802F0F0021A701A7842F00F021A706420FFF7CDFF5020FFF7D0FF0020FFF7D3FF084A137843F002031370C6
:401F800002F66A32137843F00103137008BD00BF0C4F0040174F0040A343004008B5054B1B7823B9FFF7C0FF0122024B1A70FFF795FF08BDEC81FF1F08B50122054B1A60AE
:401FC00005490020FFF722FC07210020FFF732FC08BD00BF80E100E08D20000010B50124064B1C6000F016F9A0F5004000B2044B1B68044A1460184410BD00BF80E100E087
:40200000F081FF1F00E100E0024B187800F00F00704700BF6864004040F00700014B1870704700BF8864004008B50F20FFF7F4FFFFF7EAFF00F0D0F9054A137843F01003B8
:40204000137000F0CDF90122024B1A6008BD00BF9864004000E100E008B500F02DF94FF4004000F0D1F80022064B1A60064B1B7823B9FFF7A1FF0122034B1A70FFF7D4FFA6
:4020800008BD00BFF081FF1FED81FF1F0D4B1B78DBB213F0010F06D00B490A6802F5FF427F320A6007E013F0020F04D006490A68A2F500420A6013F0040F02D00022024BDD
:4020C0001A60704768640040F081FF1F08B50222054B1A6005490120FFF798FB07210120FFF7A8FB08BD00BF80E100E0A121000010B50224064B1C6000F006F9A0F500408C
:4021000000B2044B1B68044A1460184410BD00BF80E100E0F881FF1F00E100E0024B187800F00F00704700BF6465004040F00700014B1870704700BF8465004008B50F20E7
:40214000FFF7F4FFFFF7EAFF00F046F9054A137843F01003137000F043F90222024B1A6008BD00BF9465004000E100E008B500F01DF94FF4004000F0C1F80022064B1A6054
:40218000064B1B7823B9FFF7A1FF0122034B1A70FFF7D4FF08BD00BFF881FF1FF481FF1F0D4B1B78DBB213F0010F06D00B490A6802F5FF427F320A6007E013F0020F04D00E
:4021C00006490A68A2F500420A6013F0040F02D00022024B1A60704764650040F881FF1F024A137843F080031370704778640040014B1870704700BF89640040014B18787D
:40220000704700BF69640040014B1880704700BF10680040024B1B78024B188880B270470864004090680040014B188880B2704790680040014B1880704700BF5068004010
:40224000014B1880704700BF7068004008B501E0FFF7EAFFFFF7D2FF10F0400FF8D108BD08B5134B1A7802F0F8021A701A7802F0FC021A70FFF7EAFF4FF40040FFF7DAFF6B
:402280004FF40040FFF7C0FF0020FFF7B1FFFFF7B5FF4FF40040FFF7D3FF00F09DF8054A137843F01003137000F09AF808BD00BF786400409964004008B5054B1B7823B928
:4022C000FFF7CEFF0122024B1A70FFF789FF08BDFC81FF1F024A137843F080031370704774650040014B1870704700BF85650040014B1878704700BF65650040014B1880AF
:40230000704700BF086A0040024B1B78024B188880B2704704650040886A0040014B188880B27047886A0040014B1880704700BF486A0040014B1880704700BF686A004025
:4023400008B501E0FFF7EAFFFFF7D2FF10F0400FF8D108BD08B5134B1A7802F0F8021A701A7802F0FC021A70FFF7EAFF4FF40040FFF7DAFF4FF40040FFF7C0FF0020FFF78E
:40238000B1FFFFF7B5FF4FF40040FFF7D3FF00F023F8054A137843F01003137000F020F808BD00BF746500409565004008B5054B1B7823B9FFF7CEFF0122024B1A70FFF7BC
:4023C00089FF08BDFD81FF1F0230800803D000BF01380046FCD17047EFF3108072B6704780F31088704700BF10B4FF2400230EE0094AD25C02EB42029100084A11448A7AED
:40240000D2B2824201D11C4602230133DBB2012BEED9204610BC70473083FF1FB482FF1F10B5204C2079FFF7DFFF237813F0800F0ED06378DBB2212B2FD11B4B07221A80B3
:40244000C0EBC000194A10445860FEF781FC10BD144B5B78DBB2202B02D0222B10D01EE0114A07231380C0EBC00310490B4453600F4A135C43F001031354FEF791FC10BDA6
:40248000084B9B780B4A22F81030094A135C43F002031354FEF71AFB10BD002010BD002010BD00BF00600040A482FF1FFC80FF1F3883FF1F3C83FF1FC37803F0030390F945
:4024C000020000280FDA032B06D002F001030B48C15442F001020EE0C2F380030848C15442F0040207E0032B05D0C2F340030548C15442F002021046704700BF2883FF1F60
:402500003083FF1F2C83FF1F08B5144B1B7803F00303012B02D0022B04D00FE00F4B1B79DBB20CE00D4B1B7903F07F0303EB43039A000B4B1A44937ADBB200E00023022B53
:4025400007D8084A1268D35C022B04D1FFF768FF08BD002008BD002008BD00BF00600040B482FF1F9C82FF1F80F0004002E000BF81F0004142001FBF5FEA410392EA030F66
:402580007FEA226C7FEA236C6AD04FEA1262D2EB1363C1BFD218414048404140B8BF5B42192B88BF704710F0004F40F4000020F07F4018BF404211F0004F41F4000121F086
:4025C0007F4118BF494292EA030F3FD0A2F1010241FA03FC10EB0C00C3F1200301FA03F100F0004302D5494260EB4000B0F5000F13D3B0F1807F06D340084FEA310102F1A6
:402600000102FE2A51D2B1F1004F40EBC25008BF20F0010040EA03007047490040EB000010F4000FA2F10102EDD1B0FA80FCACF1080CB2EB0C0200FA0CF0AABF00EBC250A9
:4026400052421843BCBFD0401843704792F0000F81F4000106BF80F400000132013BB5E74FEA41037FEA226C18BF7FEA236C21D092EA030F04D092F0000F08BF0846704790
:4026800090EA010F1CBF0020704712F07F4F04D1400028BF40F00040704712F100723CBF00F50000704700F0004343F0FE4040F4000070477FEA226216BF08467FEA236341
:4026C0000146420206BF5FEA412390EA010F40F4800070474FF0000304E000BF10F0004348BF40425FEA000C08BF704743F0964301464FF000001CE050EA010208BF70471B
:402700004FF000030AE000BF50EA010208BF704711F0004302D5404261EB41015FEA010C02BF84460146002043F0B64308BFA3F18053A3F50003BCFA8CF2083AA3EBC25372
:4027400010DB01FA02FC634400FA02FCC2F12002BCF1004F20FA02F243EB020008BF20F00100704702F1200201FA02FCC2F1200250EA4C0021FA02F243EB020008BF20EABF
:40278000DC7070474FF0FF0C1CEAD0521EBF1CEAD15392EA0C0F93EA0C0F6FD01A4480EA010C400218BF5FEA41211ED04FF0006343EA501043EA5111A0FB01310CF00040E1
:4027C000B1F5000F3EBF490041EAD3715B0040EA010062F17F02FD2A1DD8B3F1004F40EBC25008BF20F00100704790F0000F0CF0004C08BF49024CEA502040EA51207F3A57
:40280000C2BFD2F1FF0340EAC250704740F400004FF00003013A5DDC12F1190FDCBF00F000407047C2F10002410021FA02F1C2F1200200FA02FC5FEA310040F1000053EA0F
:402840004C0308BF20EADC70704792F0000F00F0004C02BF400010F4000F013AF9D040EA0C0093F0000F01F0004C02BF490011F4000F013BF9D041EA0C018FE70CEAD15360
:4028800092EA0C0F18BF93EA0C0F0AD030F0004C18BF31F0004CD8D180EA010000F00040704790F0000F17BF90F0004F084691F0000F91F0004F14D092EA0C0F01D142021A
:4028C0000FD193EA0C0F03D14B0218BF084608D180EA010000F0004040F0FE4040F40000704740F0FE4040F4400070474FF0FF0C1CEAD0521EBF1CEAD15392EA0C0F93EA27
:402900000C0F69D0A2EB030280EA010C49024FEA402037D04FF0805343EA111143EA10130CF000408B4238BF5B0042F17D024FF4000C8B4224BF5B1A40EA0C00B3EB510FE9
:4029400024BFA3EB510340EA5C00B3EB910F24BFA3EB910340EA9C00B3EBD10F24BFA3EBD10340EADC001B0118BF5FEA1C1CE0D1FD2A3FF650AF8B4240EBC25008BF20F0D9
:40298000010070470CF0004C4CEA50207F32C2BFD2F1FF0340EAC250704740F400004FF00003013A37E792F0000F00F0004C02BF400010F4000F013AF9D040EA0C0093F01A
:4029C000000F01F0004C02BF490011F4000F013BF9D041EA0C0195E70CEAD15392EA0C0F08D142027FF47DAF93EA0C0F7FF470AF084676E793EA0C0F04D14B023FF44CAF8A
:402A000008466EE730F0004C18BF31F0004CCAD130F000427FF45CAF31F000437FF43CAF5FE700BF4FEA4002B2F1FE4F0FD34FF09E03B3EB12620DD94FEA002343F000430A
:402A400010F0004F23FA02F018BF404270474FF00000704712F1610F01D1420205D110F0004008BF6FF0004070474FF000007047014B1868704700BF7881FF1F0E4B70B569
:402A80001E460E4C0025E41AA410A54204D056F8253098470135F8E700F060FD084B094C1E46E41AA4100025A54204D056F8253098470135F8E770BD683500006835000046
:402AC000683500007035000010B5431E0A44914204D011F8014B03F8014FF8E710BD03460244934202D003F8011BFAE7704700000EB400B54FF402719CB0ADF814106FF0A7
:402B00000041049107914FF6FF711DAB02900690084853F8042BADF81610006802A9019300F064F8029B00221A701CB05DF804EB03B070477881FF1F2DE9F0478E68824615
:402B40009E420C46914698463ED88A8912F4906F3AD02568096902236F1A656905EB450595FBF3F57B1C43449D4238BF1D4653050FD5294600F040FB064698B13A4621693D
:402B8000FFF7A2FFA38923F4906343F08003A38113E02A4600F08EFB064670B92169504600F0DEFA0C23CAF80030A3894FF0FF3043F04003A381BDE8F08726613E44266035
:402BC00046466561ED1BA560464528BF464649463246206800F0A8FAA36800209B1BA36023681E442660BDE8F08700002DE9F04F9DB003938B8980461C060D4616460DD51F
:402C00000B695BB9402100F0F7FA2860286118B90C23C8F80030CDE040236B610023099320238DF82930DFF89CB130238DF82A3037463C4614F8013B1BB9B7EB060910D00B
:402C400003E0252BF9D02746F3E74B46324629464046FFF771FF013000F0A780099B4B4409933B78002B00F0A08000234FF0FF3204930793059206938DF853301A930126D8
:402C8000052221784E4800F041FA671C049B38B14B4A3C46801A06FA00F018430490EFE7D90644BF20228DF853201A0744BF2B228DF8532022782A2A03D0079A00210A20F0
:402CC0000BE0039A111D12680391002A10DA524243F00200079204900BE027463B780134303B092B03D800FB02320121F5E701B107923B782E2B1ED17B782A2B0AD1039B18
:402D000002371A1D1B680392002BB8BF4FF0FF33059310E0002319460593781C0A2407463A780130303A092A03D804FB01210123F5E703B1059103223978224800F0E6F972
:402D400040B14023CBEB000003FA00F0049B013718430490397806221B487E1C8DF8281000F0D4F988B1194B33B9039B073323F007030833039314E003AB00932A46144BF3
:402D800004A94046AFF3008007E003AB00932A460F4B04A9404600F093F8B0F1FF3F824603D0099B5344099342E7AB895B0601D4099801E04FF0FF301DB0BDE8F08F00BF9A
:402DC000283500002E3500003235000000000000392B00002DE9F04791461F460A698B6806469342B8BF1346C9F8003091F843200C46DDF8208012B10133C9F80030236851
:402E0000990642BFD9F800300233C9F80030256815F0060510D104F1190A07E00123524639463046C04701301AD00135E368D9F800209B1A9D42F1DB94F8433022680033ED
:402E400018BF012392060FD5E118302081F843005A1C94F845102244023382F8431003E04FF0FF30BDE8F08704F1430239463046C0470130F4D02268D9F80050E36802F097
:402E80000602042A08BF5D1B2269A3680CBF25EAE57500259342C4BF9B1AED184FF000091A344D4509D00123224639463046C0470130D5D009F10109F3E70020BDE8F08723
:402EC0002DE9F04317460A7E85B06E2A984606460C460C9B01F1430E00F0AE8011D8632A22D009D8002A00F0BB80582A40F0CA8081F84520834955E0642A1ED0692A1CD0DF
:402F0000C0E0732A00F0B08009D86F2A2ED0702A40F0B8800A6842F020020A603EE0752A24D0782A3AD0ADE01A6801F14205111D1960136884F84230A8E021681A6811F041
:402F4000800F02D0111D196008E011F0400F02F10401196002D0B2F9003000E01368002B3CDA2D225B4284F8432037E021681A6811F0800F02D0111D196007E011F0400F2A
:402F800002F10401196001D0138800E01368227E5C496F2A14BF0A2208221BE078225A4984F845202268186812F0800F00F104051D6003D1550601D5038800E00368D007F5
:402FC00044BF42F0200222601BB9226822F0200222601022002084F8430001E049490A226568002DA56008DB206820F0040020602BB9002D7DD175460CE0002B79D0754601
:40300000B3FBF2F002FB1033CB5C05F8013D03460028F5D1082A0BD12368DA0708D5236962689A42DEBF302305F8013C05F1FF35C5EB0E0323612EE008681A6810F0800F76
:40304000496903D0101D1860136808E010F0400F02F104001860136801D0198000E0196000232361754616E01A68111D1960156800216268284600F049F808B1401B60606B
:40308000636804E004F1420584F8422001232361002384F84330CDF800803B4603AA21463046FFF797FE013002D14FF0FF3026E023692A4639463046C0470130F5D02368C1
:4030C0009B0710D5002504F1190907E001234A4639463046C0470130E7D00135E368039A9B1A9D42F2DBE068039B9842B8BF184605E00B7804F1420584F842308AE705B0C2
:40310000BDE8F083393500004A35000010B5C9B202449042034605D01C7801308C42F8D1184610BD002010BD884210B501EB020301D8421E0BE09842FBD28118D21AD342BB
:4031400004D013F8014D01F8014DF8E710BD994204D011F8014B02F8014FF8E710BD000038B50546002944D051F8043C0C1F002BB8BFE41800F0D4F81E4A1368114613B9AC
:403180006360146030E0A3420DD92268A018834201BF18685B681218226063600C6023E0A24203D813465A68002AF9D118681918A1420BD12168014458188242196013D178
:4031C00010685268014419605A600DE002D90C232B6009E021686018824201BF106852680918216062605C602846BDE8384000F098B838BD0482FF1F70B5CD1C25F0030554
:4032000008350C2D38BF0C25002D064601DBA94202D90C23336046E000F082F8234B1C681A462146A1B10B685B1B0ED40B2B03D90B60CC18CD501EE08C420BBF63684B681B
:403240001360636018BF0C4615E00C464968E9E7174C23681BB9304600F052F820602946304600F04DF8431C18D0C41C24F00304A0420DD12560304600F053F804F10B00E3
:40328000231D20F00700C31A0ED05A42E25070BD211A304600F034F80130EBD10C233360304600F03EF8002070BD00BF0482FF1F0082FF1FF8B5074615460E4621B91146BF
:4032C000BDE8F840FFF798BF1AB9FFF749FF2846F8BD00F027F885420ED929463846FFF78BFF044650B131462A46FFF7EDFB31463846FFF735FF01E03046F8BD2046F8BDF0
:4033000038B5064C0023054608462360FDF786F9431C02D1236803B12B6038BD6483FF1F7047704751F8040C0028BEBF091851F8043CC0180438704700000000656E636F20
:40334000646520636F756E743A20256C640D0A00656E636F6465722076616C7565204D323A20256C640D0A00004F0040240040510040300000000140800400050140000BE9
:4033800000140140000280160140800500400140000A004C01400002005001402000000080040140E0090048800000160140600A0048800030313233343536373839414200
:4033C000434445460000000001000000D03300000100000014350000000000000000000001000000E833000001000000D03400000300000014340000000000000000000001
:4034000000000000000000000000000010340000020A000000008103080002000100820240000A000100030240000A0002030000040309042C034300790070007200650044
:40344000730073002000530065006D00690063006F006E0064007500630074006F007200100355005300420055004100520054003803430044004300200043006F006D006A
:403480006D0075006E00690063006100740069006F006E00200049006E007400650072006600610063006500260343004400430020004400610074006100200049006E00C0
:4034C00074006500720066006100630065000000090243000201018032090400000102020103052400100104240202052406000105240100010705810308000A0904010067
:40350000020A0000040705820240000007050302400000001201000202000008B40432F20100010280014300232D302B2000686C4C00656667454647003031323334353643
:4035400037383941424344454600303132333435363738396162636465660000F8B500BFF8BC08BC9E4670474D00000099060000F8B500BFF8BC08BC9E4670472900000099
:4035800090350000C880FF1FB8000000E8010000000000000000000047460100E40000007201A2410000C8420C022B8716D925406883FF1F0000C05D80BB000030000000C8
:4035C000006CDC0200C2010000000800C201000000080000A12000000000020000000000000000000000000000000000000000000000000000000000000000000000000028
:40360000263500000000000000000000000000000000000000000000000000000000000000000000000000000000000000000000000000000000000000000000000000002F
:403640001881FF1F00000000000000000000000000000000000000000000000000000000000000000000000000000000000000000000000000000000000000000000000093
:40368000000000000000000000000000000000000000000000000000000000000000000000000000000000000000000000000000000000000000000000000000000000000A
:4036C00000000000000000000000000000000000000000000000000000000000000000000000000000000000000000000000000000000000000000000000000000000000CA
:403700000000000000000000000000000000000000000000000000000000000000000000000000000000000000000000000000000000000000000000000000000000000089
:403740000000000000000000000000000000000000000000000000000000000000000000000000000000000000000000000000000000000000000000000000000000000049
:020000040003F7
:0200000480007A
:4000000001450040064F00400852004007640040026500404B0001402E01014050020140420301401F0401405505014055060140460701405A080140410901400A0B0140F7
:40004000060D0140020F01406514014041150140231601404F1701400418014005190140021B0140084001401841014012420140104301400544014005450140094601405D
:400080000B470140154801400F490140094C0140044D01400B500140035101407E0201200A360D20161B1910223600010109088060036106781979137C4077037903823877
:4000C0008572860F880F896F840F856F00310208043105CA060407250C1C0D7711831240131C15BF160217401D051FFA202021CC22052313282D2A102C012E3C3240330F46
:40010000340335F0363C5608580459045B045D905F018101830284028504870889018A018B028D028F01910893049504960297189A08A204A504A602A728A901AA02AB024D
:40014000AC02B002B10CB208B310B404B520B601B703BB82BE01D608D804D904DB04DD90DF01004403800410050408020A200E200F08128A169618081B8C1C121E501F10F1
:40018000200C22082544268227082B802F18328A3602370838443C023D883E1058405C806002668069A0844089108C80C06DC26CC4FBCA61CCCBCEFAD618D818E6280204F3
:4001C000040208020D73119412041360140115FD17021A081D301E081FC921CF220123302401270F299E2A012B602C02300132043408360237FF38023E143F405418560436
:40020000580459045B045C035D305F018060811082048360850F8607886189238A028B1C8C378D108F20945799109BA09D0C9E089F03A004A10AA305A507AC01AD05AE0216
:40024000AF0AB070B140B20FB30FB530B780B802BB20D608D804D904DB04DD90DF0100400128038004280640080809400C040E810F04128215501680170418C019081E8A09
:400280001F04211423412540281029022B022D282F8032603408368A39283B413C40480449205B505F02630A678A78807A01874091809240944096209D049E16A004A10141
:4002C000A28AA380A610A804A901C07FC2F5C4F9CAEBCCDCCE1FD68CD8BCE240E603EC01EE0200A3025C04C505FE063A0701090E0BF00C7F0D960F68117F120117011DA381
:400300001F5C209621C52268233A28FE2A012C0E2EF031FF32FF3E043F01580459045F0100480380052006A0070109010C040D020F0A128A14801511160117041A201C80DC
:400340001E011F04234025022604270629022C202D912F0432453510374539A83C803EA03F0A4508561858015A015E08640465106C146D406F28742075A0762179807B02CA
:400380008410860189019040912892409428955096A1970498809C149D069ED69F06A004A101A28AA385A630A702A940AA04AB51B108B440C0FDC2F8C4FBCAF1CCFBCEFE69
:4003C000D040D640E220E604EE010321047306040742080309800A040C730E0C11211342142A16441B631E081F1C248025032615270429032B08300F31703230338036C059
:40040000370F38883A223B803E043F054013410245E046E047BC483A49FF4AFF4BFF4EF04F44500C54015604580459045A045B045C335D335F0166C06A406B028066821052
:40044000830185029066910492089C3BA278A45DA620A840AA08AE80B078B104B302B4C0B501B607B880BF05D608D804D904DB04DD90DF01010204400524060607100A8176
:400480000E22100411041342161019021A0B1C401D381E02202021012220268627402F283101368037213B093F2A461247104D015605571059805D215E48630167806804E9
:4004C00069406F03790C87049128924093409582968A978498819A189B049D169E469F41A32DA508A630AF40B208C0E8C2A9C42FCA60CCB1CEE3D070D6F8D888E080E20432
:400500000C010F0C130319011D042F01310832013301350237043E043F444035410649FF4AFF4BFF4DA04F0150185280540F5604580459045A045B045F0160406280644074
:400540006540668068406A806C406D206E80880895029701980399049A0C9D03A003A303A401AF0CB002B101B204B302B408B508B601B704B882BE50BF45C061C103C5435E
:40058000C6C2C70EC81FC9FFCAFFCBFFCDAFCE07CF01D018D40FD804D904DA04DB04DF05E040E280E440E540E680E840EA80EC40ED20EE80001005400B0410B01308181184
:4005C00019811A041E102210236225042624274129012A402E8032143344362137403C8040814305450448404A044B044D804E0450805108525058805A045B125E015F68D0
:4006000061086210660269206A40768078108240895092099E02A020A201B201C082C202C40CCA19CCBECE10D04AD234D6FFD886DE04E080EC8092089E02A020A201B20465
:40064000B420E604E880EC10EE018E02A201AA01E240E603EE02E210E608040105FD070209940B600D300FC914041A031DCF1F30219E220C23602B0F2D732E01300432082C
:40068000340235FF36013E413F104052410649FF4AFF4BFF4DA04F0150185280540F5604580459045A045B045F016040628064406540668068406A806C406D206E80810121
:4006C000880289038A018E03900498039D08A103A30CA60CB008B104B202B301B401B508B604B702B988BE54BF14C052C106C54CC620C73EC83BC9FFCAFFCBFFCDAFCE078B
:40070000CF01D018D40FD804D904DA04DB04DF05E040E280E440E540E680E840EA80EC40ED20EE800320052007020A280E800F081082162019401A621B241C081E9220045E
:40074000275A29222B012E023240374039A83E213F124310471049604C804D204E014F04562A588A5A105E425F1861016608670470027C08848488088B018D0191A892898F
:40078000940498029922A980AC10C0C4C256C429CA8DCC18CEAED024D23CD6FFD861DE40E640E808EE0180C18212830186088A078D028F0490C092249502971499029B0CD0
:4007C0009C779D049F02A084A210A4B7A640A801AAF2B0F0B108B301B40FB510B706BB80D608D804D904DB04DD90DF0100040122050506090A810E2210041104128014042A
:400800001520161219201A801D051E102040214022982302261427202E0A2F0A32983440361538403B013D803E103F0A4481452047044E024F0456405980630184428504DB
:400840008720912C9209958096809704988199029A1B9B049C049D059E409F22A010A160A203A32FA610AD40AE10B004B180B540C0FEC2A9C4AECAF0CCFECEF9D0F0D210DF
:40088000D608D808EA60EC80EE1039023F0159045F012740B480B610B710EE10AB40E808321033083402358038108B80CCF0CE1006203140330234043540518056025B102B
:4008C000801084068E10941096209B809C029D80AF08C020CCF0D4A0D620E210E6C0EE40194052805604820289809A049B809DC09E029F10A580A702AA24C640D460E6203A
:40090000E820EA8019021F046504831085028B049B809D809F10A680AF02C630D880E220E410EA10148086808C80C404E208808085019720A680AF10004080409502972031
:400940009C80A580A680A980C00208800B200D018940950297209C80A580A680C20EE4045304550858105F8065046F089308981099029B809D84A108A520B010B120B5087D
:40098000B680D4E0D620D880DA8009200C8075028D8099029D80A480A520A880A904AB08C2C0DE20E820EE8009805E017D80A140A580A680C202D601DE041280A680AE0158
:4009C000C40800090101080909010A090B010C01100911011A091B0100AF01EA020300003C00C11030000020100600000447080800100C20FF490006084F00000409000014
:400A00000000C309CF0230007C46820920040000B0303F400007700800000A2000000004030000000000000400FF07FF4020F0050800000000000212040404043333000178
:400A400040A8402000000000000000000000000000000000000000000000000000000000000403010C087102101040E014000030000000C0DC03220C00C00030090FD00076
:400A80000010006000002080000F00001005AC0A1F00E00F00F00000000008200000000034020100050C0E0005FFFFFF62A0F0410C0000000000000004040400330300014C
:400AC00000000000000040020010301000101012000000000000000000000000000000000400020D0D000D000000000060070700070000004000001F1F001F00C000000033
:400B0000408B8B00800000000007070000000000C000000000000F002F001C01000000000000000000000000000000000000000000000000000000000000000000000000B6
:400B40000000000000000000000000000000000000000000000000000000000000000000000000000000000000000000000000000000000000000000000000000000000075
:400B80000000000000000000000000000000000000000000000000000000000000000000000000000000000000000000000000000000000000000000000000000000000035
:400BC00000000000000000000000000000000000000000000000000000000000000000000000000000000000000000000000000000000000000000000000000000000000F5
:400C000000000000000000000000000000000000000000000000000000000000000000000000000000000000000000000000000000000000000000000000000000000000B4
:0200000490006A
:0400000000004005B7
:0200000490105A
:04000000BC90ACAF55
:0200000490303A
:02000000EE66AA
:0200000490402A
:4000000000000000000000000000000000000000000000000000000000000000000000000000000000000000000000000000000000000000000000000000000000000000C0
:400040000000000000000000000000000000000000000000000000000000000000000000000000000000000000000000000000000000000000000000000000000000000080
:400080000000000000000000000000000000000000000000000000000000000000000000000000000000000000000000000000000000000000000000000000000000000040
:4000C0000000000000000000000000000000000000000000000000000000000000000000000000000000000000000000000000000000000000000000000000000000000000
:0200000490501A
:0C00000000012E16106900012E2CFECF0E
:00000001FF