:400000000080002011000000150500001505000008B5044B1A6803F53F5302331A6000F081FA00BFFA46004010B5054C237833B9044B13B10448AFF300800123237010BDC8
:400040003881FF1F0000000028110000084B10B51BB108490848AFF300800848036803B910BD074B002BFBD0BDE81040184700BF000000003C81FF1F28110000C880FF1FB0
:400080000000000008B500F039FD164A13781844107000F0D1FB144A13781844107000F039FC124A13781844107000F0ADFC104A1378184410700F4B5B68032B0AD100238A
:4000C000084A1370084A1370084A1370084A1370084A5360074A53680133536000F0F2FA08BD00BF7B81FF1F7781FF1F7C81FF1F7981FF1F5481FF1F08B562B600F028FB16
:400100002D4800F0B7FA00F0EBFC00F087FB00F0F3FB00F06BFC00F005FD00F071FD00F0DDFD642000F020FD642000F08BFD00F01DFE00F08FFE214B1B7843B9012000F0F0
:40014000F1FB1F4B48221A7026225A702BE01D4B1B7843B9012000F0D9FC194B23221A7049225A701FE0184B1B783BB1174A127822B9134A53780133537014E03BB9134AC8
:40018000127822B10E4A1378013313700BE00F4A127842B93BB9012000F03EFC084B48221A7049225A70064C207800F0E3FC607800F04EFDBFE700BF850000007C81FF1FF3
:4001C000CC80FF1F7981FF1F7B81FF1F7781FF1FFEE700BFF0B40022174611E050F82760F3B226F0FF0608E001EB420511F812406D78A5550132013BDBB2002BF4D101378D
:40020000202FEBD9F0BC7047164B1B78DBB203F00701154A11701B09013213700F22134B1A70022203F22F731A70102203F515731A7040230E4A13708021053211700332AC
:4002400013700532137003321370202105321170033213705022074B1A704422A3F2E2231A707047CF0100496E5800403D510040C35A0040585B004008B50A46002100F0EE
:400280004AFF08BD08B500F03BFF08BD38B50322314B1A801823314A13702F2230490A801C200231087002310A802E4A137004222D492E48FFF7E6FF06222D4B1A705222A5
:4002C000A3F580731A702B4B1B78DBB22A4A13704FF4E262294B1A8041F25122023B1A80002419250CE0264B1B7803F0010343EA440404F003044FF4F07000F0C5FE013DFD
:400300000DB1032CEFD115B90320FFF761FF1D4A4FF4807313800723137000231A490B704820023108701370053213700222174B1A7004220A331A70154A137843F0070377
:400340001370013A137843F001031370013A137843F08003137038BD8040004082400040844000408A4000405008004800410040004300400F010049A146004022420040AE
:4003800025420040044000400640004001400040A243004038B572B6464A137843F00403137000240CE0444D630019194A0011462A44084691882858FFF75EFF0134E4B2AF
:4003C000072CF0D900240BE03B49A3001819420088188022416B006BFFF754FF0134E4B2002CF1D035494FF09040FFF7F3FE0322334B1A8040F2031202331A8040F20322E0
:4004000002331A8040F2033202331A802D4A03F52C438A331A602C4A03F590531A602B4A137843F0020313701032137843F002031370274C237843F040032370A2F586322E
:40044000513A137843F010031370082221492248FFF718FF082221492148FFF713FF082220492148FFF70EFF082220492048FFF709FF08221F492048FFF704FF08221F4910
:400480001F48FFF7FFFE1F4A137843F0080313701D4D61232B70FFF7F9FEC1232B7001221A4B1A70FFF7B0FE0E2221461848FFF7E9FE38BDE84600402C1100008400004842
:4004C0004858004004040084040404C403500140A0430040200800480251004028080048C251004030080048F2510040380800481251004040080048225100404808004832
:4005000032510040224300400048004004000840B043004008B500F0C7FD03680C2B00D1FEE7FEE708B5104E104D16E029686B68AC68002204E051F8040B43F8040B0432DA
:40054000A242F8D1E868002203E0002143F8041B04328242F9D11035013E002EE6D100F0A9FDFFF7C9FDFEE7010000008C11000008B5104A104B1A60104A136843F4007391
:40058000136000230AE0032B03D80D4A52F8231000E00C490C4A42F8231001332F2BF2D90A4B1A780A4B1A70074A0A4B1A60FFF7F1FE08BD0004FA050CED00E014ED00E040
:4005C00000000000150500000080FF1FBC760040C080FF1F08ED00E001BE704770B504460E46074B1D681F2802D90020FFF7F4FF04F01F04103455F8240045F8246070BDA9
:4006000008ED00E038B504460D46072902D90020FFF7E2FF1F2C02D90020FFF7DDFF04F01F0000F1604000F564406D01EDB2057038BD00BF024B1B68C3F88C00704700BF41
:4006400008ED00E04001C0B2014B1870704700BF13E400E04FF40022014B1A60704700BF00E100E04FF40022014B1A60704700BF80E100E010B50446FFF7F4FF2046FFF739
:40068000D9FF0720FFF7DEFFFFF7E4FF10BD00BF084A137843F0040313701032137843F00403137002F66532137843F001031370704700BFA3430040014B1870704700BF25
:4006C0001B4F0040014B1878704700BF1B4F0040014B1880704700BF1C4F0040014B1880704700BF1E4F004008B5164A137803F0010313700232137803F0FC031370124B95
:400700001A7802F0CF021A701A7842F030021A701A7802F0F0021A701A7842F00F021A700A4A137843F00103137040F2E730FFF7CFFF40F2E730FFF7D1FF0820FFF7BCFF6D
:4007400008BD00BF184F0040234F0040194F004008B5054B1B7823B9FFF7C6FF0122024B1A70FFF795FF08BD5D81FF1F054A137843F0080313701032137843F0080313704F
:40078000704700BFA74300400F490B7803F0FC0200F0030313430B7001280AD10B4B1B78DBB20B4A13700B4B1B78DBB2013213707047094B1B78DBB2054A1370074B1B78A6
:4007C000DBB201321370704743580040130100493646004017010049B3010049BB01004908B50020FFF7D0FF0B4B1A7802F0DF021A701A7802F0FB021A701A7842F00802E8
:400800001A7003F527731A7802F0E7021A701A7842F008021A7008BD4358004008B5054B1B7823B9FFF7DCFF0122024B1A70FFF79DFF08BD5E81FF1F024B187800F008003D
:40084000704700BF965B0040054A137843F0040313701032137843F004031370704700BFA74300400F490B7803F0FC0200F0030313430B7001280AD10B4B1B78DBB20B4AAE
:4008800013700B4B1B78DBB2013213707047094B1B78DBB2054A1370074B1B78DBB201321370704742580040120100493446004016010049B1010049B901004908B5002082
:4008C000FFF7D0FF0B4B1A7802F0DF021A701A7802F0FB021A701A7842F008021A7003F295231A7802F0E7021A701A7842F008021A7008BD4258004008B5054B1B7823B974
:40090000FFF7DCFF0122024B1A70FFF79DFF08BD5F81FF1F024B187800F00400704700BF965B0040044A137803F0FB03800000F0040018431070704720510040054A1378C4
:4009400043F0020313701032137843F002031370704700BFA74300400F490B7803F0FC0200F0030313430B7001280AD10B4B1B78DBB20B4A13700B4B1B78DBB20132137083
:400980007047094B1B78DBB2054A1370074B1B78DBB201321370704741580040110100493246004015010049AF010049B701004908B50020FFF7D0FF0B4B1A7802F0DF02B9
:4009C0001A701A7802F0FB021A701A7842F008021A7003F28E231A7802F0E7021A701A7842F008021A7008BD4158004008B5054B1B7823B9FFF7DCFF0122024B1A70FFF73A
:400A00009DFF08BD6081FF1F024B187800F00200704700BF965B0040044A137803F0FE0300F0010018431070704700BF20510040054A137843F0010313701032137843F08C
:400A400001031370704700BFA74300400F490B7803F0FC0200F0030313430B7001280AD10B4B1B78DBB20B4A13700B4B1B78DBB2013213707047094B1B78DBB2054A137041
:400A8000074B1B78DBB201321370704740580040100100493046004014010049AD010049B501004908B50020FFF7D0FF0B4B1A7802F0DF021A701A7802F0FB021A701A7897
:400AC00042F008021A7003F287231A7802F0E7021A701A7842F008021A7008BD4058004008B5054B1B7823B9FFF7DCFF0122024B1A70FFF79DFF08BD6181FF1F024B18782A
:400B000000F00100704700BF965B0040044A137803F0FD03400000F0020018431070704720510040054A137843F0040313701032137843F004031370704700BFA243004020
:400B4000084A137843F0010313701032137843F00103137002F64D32137843F001031370704700BFA3430040014B1880704700BF044F0040014B1880704700BF064F004023
:400B8000014B1870704700BF034F004008B5194A137843F0020313700232137803F08F0343F010031370144B1A7802F0CF021A701A7842F030021A701A7802F0F0021A7028
:400BC0001A7842F00F021A706420FFF7CDFF5020FFF7D0FF0020FFF7D3FF084A137843F00103137002F65E32137843F00103137008BD00BF004F00400B4F0040A3430040FC
:400C000008B5054B1B7823B9FFF7C0FF0122024B1A70FFF795FF08BD6281FF1F084A137843F0020313701032137843F00203137002F65932137843F001031370704700BFDB
:400C4000A3430040014B1880704700BF104F0040014B1880704700BF124F0040014B1870704700BF0F4F004008B5194A137843F0020313700232137803F08F0343F0100382
:400C80001370144B1A7802F0CF021A701A7842F030021A701A7802F0F0021A701A7842F00F021A706420FFF7CDFF5020FFF7D0FF0020FFF7D3FF084A137843F00203137099
:400CC00002F66A32137843F00103137008BD00BF0C4F0040174F0040A343004008B5054B1B7823B9FFF7C0FF0122024B1A70FFF795FF08BD6381FF1F08B50122054B1A600A
:400D000005490020FFF76AFC07210020FFF77AFC08BD00BF80E100E0A10D0000024B187800F00F00704700BF6565004040F00700014B1870704700BF8565004008B50F20CF
:400D4000FFF7F4FFFFF7EAFF00F0A6F9054A137843F01003137000F0A3F90122024B1A6008BD00BF9565004000E100E008B500F00DF94FF4004000F0BBF80022064B1A60BE
:400D8000064B1B7823B9FFF7B7FF0122034B1A70FFF7D4FF08BD00BF6881FF1F6481FF1F0D4B1B78DBB213F0010F06D00B490A6802F5FF427F320A6007E013F0020F04D02C
:400DC00006490A68A2F500420A6013F0040F02D00022024B1A607047656500406881FF1F08B50222054B1A6005490120FFF7F6FB07210120FFF706FC08BD00BF80E100E04F
:400E0000890E0000024B187800F00F00704700BF6664004040F00700014B1870704700BF8664004008B50F20FFF7F4FFFFF7EAFF00F032F9054A137843F01003137000F0B2
:400E40002FF90222024B1A6008BD00BF9664004000E100E008B500F009F94FF4004000F0B7F80022064B1A60064B1B7823B9FFF7B7FF0122034B1A70FFF7D4FF08BD00BF6E
:400E80007081FF1F6C81FF1F0D4B1B78DBB213F0010F06D00B490A6802F5FF427F320A6007E013F0020F04D006490A68A2F500420A6013F0040F02D00022024B1A60704743
:400EC000666400407081FF1F024A137843F080031370704777640040014B1870704700BF87650040014B1878704700BF67650040014B1880704700BF0C6A0040014B188827
:400F000080B270478C6A0040014B1880704700BF4C6A0040014B1880704700BF6C6A004008B501E0FFF7EAFFFFF7DCFF10F0400FF8D108BD08B5134B1A7802F0F8021A7084
:400F40001A7802F0FC021A70FFF7EAFF4FF40040FFF7DAFF4FF40040FFF7CAFF0020FFF7BBFFFFF7BFFF4FF40040FFF7D3FF00F093F8054A137843F01003137000F090F88D
:400F800008BD00BF776400409765004008B5054B1B7823B9FFF7CEFF0122024B1A70FFF793FF08BD7481FF1F024A137843F080031370704776640040014B1870704700BF92
:400FC00085640040014B1878704700BF65640040014B1880704700BF02680040014B188880B2704782680040014B1880704700BF42680040014B1880704700BF62680040C2
:4010000008B501E0FFF7EAFFFFF7DCFF10F0400FF8D108BD08B5134B1A7802F0F8021A701A7802F0FC021A70FFF7EAFF4FF40040FFF7DAFF4FF40040FFF7CAFF0020FFF7CD
:40104000BBFFFFF7BFFF4FF40040FFF7D3FF00F023F8054A137843F01003137000F020F808BD00BF766400409564004008B5054B1B7823B9FFF7CEFF0122024B1A70FFF7FB
:4010800093FF08BD7581FF1F0230800803D000BF01380046FCD17047EFF3108072B6704780F31088704700BF014B1868704700BF3081FF1F0E4B70B51E460E4C0025E41A34
:4010C000A410A54204D056F8253098470135F8E700F04AF8084B094C1E46E41AA4100025A54204D056F8253098470135F8E770BD7411000074110000741100007C1100003A
:4011000010B5431E0A44914204D011F8014B03F8014FF8E710BD03460244934202D003F8011BFAE77047000000000000004F0040240040510040300000000140001000144A
:401140000140800200170140000500400140000A004C0140000200500140200080160140A007004880004300F8B500BFF8BC08BC9E4670474D00000071050000F8B500BF4D
:40118000F8BC08BC9E46704729000000A0110000C880FF1F700000004800000000000000000000004647000000000000000000000000000000000000000000000000000097
:4011C0000000000000000000661100000000000000000000000000000000000000000000000000000000000000000000000000000000000000000000000000000000000078
:401200000000000000000000D080FF1F0000000000000000000000000000000000000000000000000000000000000000000000000000000000000000000000000000000040
:40124000000000000000000000000000000000000000000000000000000000000000000000000000000000000000000000000000000000000000000000000000000000006E
:40128000000000000000000000000000000000000000000000000000000000000000000000000000000000000000000000000000000000000000000000000000000000002E
:4012C00000000000000000000000000000000000000000000000000000000000000000000000000000000000000000000000000000000000000000000000000000000000EE
:4013000000000000000000000000000000000000000000000000000000000000000000000000000000000000000000000000000000000000000000000000000000000000AD
:020000040003F7
:0200000480007A
:40000000064F00400852004003640040036500404F000140310101404E02014040030140440401403B0501404306014048070140010D0140010F01403F1401404B15014031
:40004000231601404A170140021B01400440014008410140074201400F430140064401400545014004460140014701400B48014013490140054C0140074D014009500140BE
:400080000151014001200A1B0D20161B191022270001010108800940600361017819790C7003856F860F7503850F876F00010202043807040C600E10104012081302140180
:4000C000160218011A061E8023012458262028022A792C602E0830803104320433023403350136783A205608580459045B045D905F018403860C8C0C8E039005910C920A04
:400100009302950B9704980F9907A00AA205A30FA508A701A807AD0CAF01B40FB70FC034C106C9FFCAFFCBFFCDA0CF01D018D804D904DA04DF01E040E280E440E540E680CC
:40014000E840EA80EC40ED20EE800182031004080580072009A00A100BC00C200E080F401020118013201711180819C31A101BA01E081F102120220A2540270129012D80B6
:400180002F603202360437113804450A4E0458906004618068058805C0ADC25FC457CAD1CCE1CE02D0C0D220D60CD80C05060B010C01110C19011C01210C250A26022801C8
:4001C0003001330E34023701380239083E013F4040344106452C4640473E483B49FF4AFF4BFF4DAF4E074F015018580459045A045F016040628064406540668068406A808E
:400200006C406D206E808210830484048608870188018A028C028E019220941C9A1C9C019E029F02A001A202A41CA804AA08AC10B003B101B302B43CB704BA02D608D8045E
:40024000D904DB04DD90DF01002003A206020A8A0B200F021008114812801620171018801A081B021D122020210422812504264027102F9032803510370139483B813D0834
:400280003E20450A4D024E044F06562A5840630165026740840887019008932096089780984099409B019C909F10A20AA3A0A50AB040C08FC28FC46FCAC0CCA8CE63D0C0B5
:4002C000D220D608D808EA01051E080109200A020D060F181118130614021601170119141B0A2801290A2A022B142C012D0E2E0232033301351E37203A083F405804590403
:400300005F0182208310840B850B86048704880C8A018D0C8E108F01900C9202950C9702980899209A019C079D07A20FA320AB0FAC10AD08AF01B00FB110B220B410B50F40
:40034000B720BE10BF40D40FD804D904DB04DF05002004040502060207080A200E400F0A120A168017401A201B0C1D021E68202423012530274A2B052D022F0A3122320841
:400380003690370838843AA03C043E425D105E885F02660867047D0885129088920893649680978099529A0A9B119C90A104A24AA302A508C0F2C2D4C493CABCCC77CEDE05
:4003C000D6F0D860DE4001040202050108010D04110116011702180219081E011F0823012501260629082D0130013202330834043503370439803E053F045280540F560407
:40040000580459045B045F01807F84FE85948601876089FD8B028C0E8EF090A3919E925C936094969668970F99739A01A130A3C9A8C5AA3AADCFAF30B2FFB7FFB820BE145F
:40044000BF40D280D804D904DB04DF010004028003020510074009220A200C080D800E081120170418201B101D081E48224025802640272429C02B802C082D802F90300862
:400480003204331135103640370938083B2C3E023F445D045E405F22628063026440728077407D0C8220831087128840900C922893619680978099509A029B119C909E2098
:4004C000A116A302A508A680A701C05DC2EEC422CAF9CCF7CED6D6F0D880E280EA81E0A001020502070108010B0C11041E022209260429012F0430013108320833013404B4
:4005000035023602370439203E013F445608580459045B045D905F01850589068C018D068E02911093089401960A98019A069B189C029D039E01A520A918AE10B004B1087F
:40054000B210B320B408B510B603B707B980BA80BF15D40FD604D804D904DB04DF01001004400B020E1A108013041402181019201A801B481C401E1A1FC0218222242698B4
:40058000278029202A802F28310236A0370239203B063C043D203F4059415A015C085E215F8060026502680869806C046F02800C8480854088188A808B028D408E08900415
:4005C000912093469688978099019A809B029C909D02A080A110A320A580A680A7C0B720C082C2E1C48CCA6CCCB1CE77D6F8D888E690E840057F11C5133A17011DA31F5C10
:400600002196236825FE2701290E2BF035FF3F104016410449FF4AFF4BFF4DA04F01501859045A045F016040628064406540668068406A806C406D206E800004028003022D
:4006400009020A200B4010041120130219042002217022012312270829242B422F54300431023290356036103705382439803B023D0841804580470248014A104B164F1003
:4006800050805108521059105A8A610862107A808004811183018502902492209328978099409A809B059C909F08A116A302A520A680A780B701C00DC20CC40ACAEFCCDFDB
:4006C000CE4FD098D22CD60FD806DE01EE10E220E440320433803610CC705F8096089B80A610A780AB80D620EA801A0857049608A610A780C640D4401B041F026104650426
:400700007104810483028A10A610A784C630D8C0DC80E020E68014402A808824C404CA08E0059820A004AA80B040EA0154049820A004D4029820530A55085F8087809B80E8
:40074000A306A780B780D4E0D620E6100A020C4070027720810883088440860188028F20A508A708B704C2C0DC80DE20E280E450E6805C0460209820D601D80210108810E9
:400780008C049404C408E204E40200010101080109010A01100111011A011B01002F000073800040FD1D0200000000029400601CCF0130103005C90800100001009C0000AB
:4007C00000400F00000000209E806000000500080040FF800003003C0008000000000405160500000023C40E1FFFFFFF00AF0701180000000F0000000404040400000005D1
:40080000400080004040800040008000402080000000000000000000000000000000000000010100010000006007070007000000001F1F001F00000000CBCB00C00000002D
:400840000007070000000000C000000000000F002F001C0100000000000000000000000000000000000000000000000000000000000000000000000000000000000000004F
:400880000000000000000000000000000000000000000000000000000000000000000000000000000000000000000000000000000000000000000000000000000000000038
:4008C00000000000000000000000000000000000000000000000000000000000000000000000000000000000000000000000000000000000000000000000000000000000F8
:4009000000000000000000000000000000000000000000000000000000000000000000000000000000000000000000000000000000000000000000000000000000000000B7
:400940000000000000000000000000000000000000000000000000000000000000000000000000000000000000000000000000000000000000000000000000000000000077
:0200000490006A
:0400000000004005B7
:0200000490105A
:04000000BC90ACAF55
:0200000490303A
:020000007BA2E1
:0200000490402A
:4000000000000000000000000000000000000000000000000000000000000000000000000000000000000000000000000000000000000000000000000000000000000000C0
:400040000000000000000000000000000000000000000000000000000000000000000000000000000000000000000000000000000000000000000000000000000000000080
:400080000000000000000000000000000000000000000000000000000000000000000000000000000000000000000000000000000000000000000000000000000000000040
:4000C0000000000000000000000000000000000000000000000000000000000000000000000000000000000000000000000000000000000000000000000000000000000000
:0200000490501A
:0C00000000012E16106900012E1E8C0B52
:00000001FF