:400000000080002011000000650600006506000008B5044B1A6803F53F5302331A6000F029FB00BFFA46004010B5054C237833B9044B13B10448AFF300800123237010BD7D
:400040005081FF1F0000000024180000084B10B51BB108490848AFF300800848036803B910BD074B002BFBD0BDE81040184700BF000000005481FF1F24180000C880FF1F7A
:4000800000000000F8B51A4B1B78132B03D80133174A137028E0164E0123337000F0F6FE0028B8BF4042134C206000F08DFF0028B8BF40426060A26823681A44A260E368B6
:4000C000C518E5607768B66892FBF7F001F0C6F9314601F017FA206195FBF7F001F0BEF9314601F00FFA606100F094FBF8BD00BFD080FF1F6C81FF1F08B500F0B7FD164A45
:4001000013781844107000F03FFC144A13781844107000F0CFFC124A13781844107000F037FD104A1378184410700F4B9B69082B0AD10023084A1370084A1370084A1370F7
:40014000084A1370084A9361074A93690133936100F060FB08BD00BFBA81FF1FB881FF1FBB81FF1FB981FF1F6C81FF1F08B5462000F0ACFD1E2000F01DFE00F025FF002872
:40018000B8BF4042642802DD0022014B1A7708BD6C81FF1F08B51E2000F098FD462000F009FE00F011FF0028B8BF4042642802DD0022014B1A7708BD6C81FF1F08B5114BBB
:4001C0001B784BB1104A127832B900F047FE0130C0B200F0EFFD08BD4BB90B4A127832B100F0C8FD0130C0B200F070FD08BD064A127832B92BB9462000F068FD472000F02D
:40020000D9FD08BDBA81FF1FB881FF1F08B562B600F046FB3A4800F0D5FA3A4800F0D6FB00F016FD00F0A2FB00F036FC00F0A2FC00F024FD00F090FD00F002FE642000F0B7
:400240003FFD642000F0B0FD00F072FE00F00EFF2D4B1B7F2BBB2D4B1B7813B12C4B1B781BB900222B4B1A731BE02B4B1B7843B90124284B1C73002000F01EFE224B1C77A7
:400280000FE0264B1B784BB90222224B1A73002000F0B0FE01221C4B1A7702E005221D4B1A731C4B1B7B052BD2D8DFE803F003080F221B14FFF782FFCAE7FFF757FF124B85
:4002C0001B7F002BF9D1C3E7FFF764FF0E4B1B7F002BF9D1BCE7322000F0F8FC322000F069FDB5E700F0BAFD0130C0B200F062FDAEE700F03FFD0130C0B200F0E7FCA7E709
:40030000F9000000850000006C81FF1FB881FF1FBA81FF1FD080FF1FBB81FF1FB981FF1FFEE700BFF0B40022174611E050F82760F3B226F0FF0608E001EB420511F81240A7
:400340006D78A5550132013BDBB2002BF4D10137222FEBD9F0BC7047164B1B78DBB203F00701154A11701B09013213700F22134B1A70022203F22F731A70102203F51573BC
:400380001A7040230E4A1370802105321170033213700532137003321370202105321170033213705022074B1A704422A3F2E2231A707047CF0100496E5800403D510040C5
:4003C000C35A0040585B004008B50A46002101F020FA08BD08B501F011FA08BD38B50322314B1A801823314A13702F2230490A801C200231087002310A802E4A13700422B7
:400400002D492E48FFF7E6FF06222D4B1A705222A3F580731A702B4B1B78DBB22A4A13704FF4E262294B1A8041F25122023B1A80002419250CE0264B1B7803F0010343EA2D
:40044000440404F003044FF4F07000F03DFF013D0DB1032CEFD115B90320FFF761FF1D4A4FF4807313800723137000231A490B704820023108701370053213700222174B84
:400480001A7004220A331A70154A137843F007031370013A137843F001031370013A137843F08003137038BD8040004082400040844000408A400040A00800480041004026
:4004C000004300400F010049A14600402242004025420040044000400640004001400040A243004038B572B6464A137843F00403137000240CE0444D630019194A0011463A
:400500002A44084691882858FFF75EFF0134E4B2072CF0D900240BE03B49A3001819420088188022416B006BFFF754FF0134E4B2002CF1D035494FF09040FFF7F3FE0322B0
:40054000334B1A8040F2031202331A8040F2032202331A8040F2033202331A802D4A03F52C438A331A602C4A03F590531A602B4A137843F0020313701032137843F0020351
:400580001370274C237843F040032370A2F58632513A137843F010031370082221492248FFF718FF082221492148FFF713FF082220492148FFF70EFF082220492048FFF773
:4005C00009FF08221F492048FFF704FF08221F491F48FFF7FFFE1F4A137843F0080313701D4D61232B70FFF7F9FEC1232B7001221A4B1A70FFF7B0FE0E2221461848FFF7C7
:40060000E9FE38BDE8460040281800008C0000484858004004040084040404C403500140A0430040700800480251004078080048C251004080080048F251004088080048D0
:400640001251004090080048225100409808004832510040224300400048004004000840B043004008B501F09DF803680C2B00D1FEE7FEE708B5104E104D16E029686B689B
:40068000AC68002204E051F8040B43F8040B0432A242F8D1E868002203E0002143F8041B04328242F9D11035013E002EE6D101F07FF8FFF7ABFDFEE7010000008818000012
:4006C00008B5104A104B1A60104A136843F40073136000230AE0032B03D80D4A52F8231000E00C490C4A42F8231001332F2BF2D90A4B1A780A4B1A70074A0A4B1A60FFF705
:40070000F1FE08BD0004FA050CED00E014ED00E000000000650600000080FF1FBC760040C080FF1F08ED00E001BE704770B504460E46074B1D681F2802D90020FFF7F4FF5F
:4007400004F01F04103455F8240045F8246070BD08ED00E038B504460D46072902D90020FFF7E2FF1F2C02D90020FFF7DDFF04F01F0000F1604000F564406D01EDB2057087
:4007800038BD00BF024B1B68C3F88C00704700BF08ED00E04001C0B2014B1870704700BF13E400E04FF40022014B1A60704700BF00E100E04FF40022014B1A60704700BF4C
:4007C00080E100E010B50446FFF7F4FF2046FFF7D9FF0720FFF7DEFFFFF7E4FF10BD00BF084A137843F0040313701032137843F00403137002F66532137843F00103137035
:40080000704700BFA3430040014B1870704700BF1B4F0040014B1878704700BF1B4F0040014B1880704700BF1C4F0040014B1880704700BF1E4F004008B5164A137803F085
:40084000010313700232137803F0FC031370124B1A7802F0CF021A701A7842F030021A701A7802F0F0021A701A7842F00F021A700A4A137843F00103137040F2E730FFF7CA
:40088000CFFF40F2E730FFF7D1FF0820FFF7BCFF08BD00BF184F0040234F0040194F004008B5054B1B7823B9FFF7C6FF0122024B1A70FFF795FF08BDA081FF1F054A137864
:4008C00043F0080313701032137843F008031370704700BFA74300400F490B7803F0FC0200F0030313430B7001280AD10B4B1B78DBB20B4A13700B4B1B78DBB201321370F8
:400900007047094B1B78DBB2054A1370074B1B78DBB201321370704743580040130100493646004017010049B3010049BB01004908B50020FFF7D0FF0B4B1A7802F0DF0227
:400940001A701A7802F0FB021A701A7842F008021A7003F527731A7802F0E7021A701A7842F008021A7008BD4358004008B5054B1B7823B9FFF7DCFF0122024B1A70FFF7CC
:400980009DFF08BDA181FF1F024B187800F00800704700BF965B0040014B1B689864704708ED00E04001C0B2014B1870704700BF02E400E00422014B1A60704700E100E09C
:4009C0000422014B1A60704780E100E010B50446FFF7F6FF2046FFF7DFFF0720FFF7E2FFFFF7E8FF10BD00BF054A137843F0040313701032137843F004031370704700BFE1
:400A0000A74300400F490B7803F0FC0200F0030313430B7001280AD10B4B1B78DBB20B4A13700B4B1B78DBB2013213707047094B1B78DBB2054A1370074B1B78DBB20132D9
:400A40001370704742580040120100493446004016010049B1010049B901004908B50020FFF7D0FF0B4B1A7802F0DF021A701A7802F0FB021A701A7842F008021A7003F2AF
:400A800095231A7802F0E7021A701A7842F008021A7008BD4258004008B5054B1B7823B9FFF7DCFF0122024B1A70FFF79DFF08BDA281FF1F024B187800F00400704700BF6A
:400AC000965B0040054A137843F0020313701032137843F002031370704700BFA74300400F490B7803F0FC0200F0030313430B7001280AD10B4B1B78DBB20B4A13700B4BCD
:400B00001B78DBB2013213707047094B1B78DBB2054A1370074B1B78DBB201321370704741580040110100493246004015010049AF010049B701004908B50020FFF7D0FF1C
:400B40000B4B1A7802F0DF021A701A7802F0FB021A701A7842F008021A7003F28E231A7802F0E7021A701A7842F008021A7008BD4158004008B5054B1B7823B9FFF7DCFFED
:400B80000122024B1A70FFF79DFF08BDA381FF1F024B187800F00200704700BF965B0040054A137843F0010313701032137843F001031370704700BFA74300400F490B7896
:400BC00003F0FC0200F0030313430B7001280AD10B4B1B78DBB20B4A13700B4B1B78DBB2013213707047094B1B78DBB2054A1370074B1B78DBB2013213707047405800400B
:400C0000100100493046004014010049AD010049B501004908B50020FFF7D0FF0B4B1A7802F0DF021A701A7802F0FB021A701A7842F008021A7003F287231A7802F0E702FA
:400C40001A701A7842F008021A7008BD4058004008B5054B1B7823B9FFF7DCFF0122024B1A70FFF79DFF08BDA481FF1F024B187800F00100704700BF965B0040054A1378C5
:400C800043F0040313701032137843F004031370704700BFA2430040084A137843F0010313701032137843F00103137002F64D32137843F001031370704700BFA3430040DC
:400CC000014B1880704700BF044F0040014B1880704700BF064F0040014B1870704700BF034F004008B5194A137843F0020313700232137803F08F0343F010031370144B6A
:400D00001A7802F0CF021A701A7842F030021A701A7802F0F0021A701A7842F00F021A706420FFF7CDFF5020FFF7D0FF0020FFF7D3FF084A137843F00103137002F65E3273
:400D4000137843F00103137008BD00BF004F00400B4F0040A343004008B5054B1B7823B9FFF7C0FF0122024B1A70FFF795FF08BDA581FF1F014B1888C0B27047064F0040F3
:400D8000084A137843F0020313701032137843F00203137002F65932137843F001031370704700BFA3430040014B1880704700BF104F0040014B1880704700BF124F0040BB
:400DC000014B1870704700BF0F4F004008B5194A137843F0020313700232137803F08F0343F010031370144B1A7802F0CF021A701A7842F030021A701A7802F0F0021A70DA
:400E00001A7842F00F021A706420FFF7CDFF5020FFF7D0FF0020FFF7D3FF084A137843F00203137002F66A32137843F00103137008BD00BF0C4F0040174F0040A343004094
:400E400008B5054B1B7823B9FFF7C0FF0122024B1A70FFF795FF08BDA681FF1F014B1888C0B27047124F004008B50122054B1A6005490020FFF75AFC07210020FFF76AFCF5
:400E800008BD00BF80E100E0650F000010B50124064B1C6000F03EF9A0F5004000B2044B1B68044A1460184410BD00BF80E100E0A881FF1F00E100E038B505460124054B22
:400EC0001C604FF4004000F01FF9034B1D60034B1C6038BD80E100E0A881FF1F00E100E0024B187800F00F00704700BF6565004040F00700014B1870704700BF8565004011
:400F000008B50F20FFF7F4FFFFF7EAFF00F0E4F9054A137843F01003137000F0E1F90122024B1A6008BD00BF9565004000E100E008B500F041F94FF4004000F0E5F8002201
:400F4000064B1A60064B1B7823B9FFF78DFF0122034B1A70FFF7D4FF08BD00BFA881FF1FA781FF1F0D4B1B78DBB213F0010F06D00B490A6802F5FF427F320A6007E013F02B
:400F8000020F04D006490A68A2F500420A6013F0040F02D00022024B1A60704765650040A881FF1F08B50222054B1A6005490120FFF7BCFB07210120FFF7CCFB08BD00BF1E
:400FC00080E100E0A110000010B50224064B1C6000F01AF9A0F5004000B2044B1B68044A1460184410BD00BF80E100E0B081FF1F00E100E038B505460224054B1C604FF483
:40100000004000F0FBF8034B1D60034B1C6038BD80E100E0B081FF1F00E100E0024B187800F00F00704700BF6664004040F00700014B1870704700BF8664004008B50F20BF
:40104000FFF7F4FFFFF7EAFF00F046F9054A137843F01003137000F043F90222024B1A6008BD00BF9664004000E100E008B500F01DF94FF4004000F0C1F80022064B1A6064
:40108000064B1B7823B9FFF78DFF0122034B1A70FFF7D4FF08BD00BFB081FF1FAC81FF1F0D4B1B78DBB213F0010F06D00B490A6802F5FF427F320A6007E013F0020F04D0C3
:4010C00006490A68A2F500420A6013F0040F02D00022024B1A60704766640040B081FF1F024A137843F080031370704777640040014B1870704700BF87650040014B1878D7
:40110000704700BF67650040014B1880704700BF0C6A0040024B1B78024B188880B27047066500408C6A0040014B188880B270478C6A0040014B1880704700BF4C6A00402B
:40114000014B1880704700BF6C6A004008B501E0FFF7EAFFFFF7D2FF10F0400FF8D108BD08B5134B1A7802F0F8021A701A7802F0FC021A70FFF7EAFF4FF40040FFF7DAFF7E
:401180004FF40040FFF7C0FF0020FFF7B1FFFFF7B5FF4FF40040FFF7D3FF00F09DF8054A137843F01003137000F09AF808BD00BF776400409765004008B5054B1B7823B93B
:4011C000FFF7CEFF0122024B1A70FFF789FF08BDB481FF1F024A137843F080031370704776640040014B1870704700BF85640040014B1878704700BF65640040014B188009
:40120000704700BF02680040024B1B78024B188880B270470164004082680040014B188880B2704782680040014B1880704700BF42680040014B1880704700BF6268004062
:4012400008B501E0FFF7EAFFFFF7D2FF10F0400FF8D108BD08B5134B1A7802F0F8021A701A7802F0FC021A70FFF7EAFF4FF40040FFF7DAFF4FF40040FFF7C0FF0020FFF79F
:40128000B1FFFFF7B5FF4FF40040FFF7D3FF00F023F8054A137843F01003137000F020F808BD00BF766400409564004008B5054B1B7823B9FFF7CEFF0122024B1A70FFF7CD
:4012C00089FF08BDB581FF1F0230800803D000BF01380046FCD17047EFF3108072B6704780F31088704700BF80F0004002E000BF81F0004142001FBF5FEA410392EA030FEE
:401300007FEA226C7FEA236C6AD04FEA1262D2EB1363C1BFD218414048404140B8BF5B42192B88BF704710F0004F40F4000020F07F4018BF404211F0004F41F4000121F018
:401340007F4118BF494292EA030F3FD0A2F1010241FA03FC10EB0C00C3F1200301FA03F100F0004302D5494260EB4000B0F5000F13D3B0F1807F06D340084FEA310102F138
:401380000102FE2A51D2B1F1004F40EBC25008BF20F0010040EA03007047490040EB000010F4000FA2F10102EDD1B0FA80FCACF1080CB2EB0C0200FA0CF0AABF00EBC2503C
:4013C00052421843BCBFD0401843704792F0000F81F4000106BF80F400000132013BB5E74FEA41037FEA226C18BF7FEA236C21D092EA030F04D092F0000F08BF0846704723
:4014000090EA010F1CBF0020704712F07F4F04D1400028BF40F00040704712F100723CBF00F50000704700F0004343F0FE4040F4000070477FEA226216BF08467FEA2363D3
:401440000146420206BF5FEA412390EA010F40F4800070474FF0000304E000BF10F0004348BF40425FEA000C08BF704743F0964301464FF000001CE050EA010208BF7047AD
:401480004FF000030AE000BF50EA010208BF704711F0004302D5404261EB41015FEA010C02BF84460146002043F0B64308BFA3F18053A3F50003BCFA8CF2083AA3EBC25305
:4014C00010DB01FA02FC634400FA02FCC2F12002BCF1004F20FA02F243EB020008BF20F00100704702F1200201FA02FCC2F1200250EA4C0021FA02F243EB020008BF20EA52
:40150000DC7070474FF0FF0C1CEAD0521EBF1CEAD15392EA0C0F93EA0C0F6FD01A4480EA010C400218BF5FEA41211ED04FF0006343EA501043EA5111A0FB01310CF0004073
:40154000B1F5000F3EBF490041EAD3715B0040EA010062F17F02FD2A1DD8B3F1004F40EBC25008BF20F00100704790F0000F0CF0004C08BF49024CEA502040EA51207F3AE9
:40158000C2BFD2F1FF0340EAC250704740F400004FF00003013A5DDC12F1190FDCBF00F000407047C2F10002410021FA02F1C2F1200200FA02FC5FEA310040F1000053EAA2
:4015C0004C0308BF20EADC70704792F0000F00F0004C02BF400010F4000F013AF9D040EA0C0093F0000F01F0004C02BF490011F4000F013BF9D041EA0C018FE70CEAD153F3
:4016000092EA0C0F18BF93EA0C0F0AD030F0004C18BF31F0004CD8D180EA010000F00040704790F0000F17BF90F0004F084691F0000F91F0004F14D092EA0C0F01D14202AC
:401640000FD193EA0C0F03D14B0218BF084608D180EA010000F0004040F0FE4040F40000704740F0FE4040F4400070474FF0FF0C1CEAD0521EBF1CEAD15392EA0C0F93EAB9
:401680000C0F69D0A2EB030280EA010C49024FEA402037D04FF0805343EA111143EA10130CF000408B4238BF5B0042F17D024FF4000C8B4224BF5B1A40EA0C00B3EB510F7C
:4016C00024BFA3EB510340EA5C00B3EB910F24BFA3EB910340EA9C00B3EBD10F24BFA3EBD10340EADC001B0118BF5FEA1C1CE0D1FD2A3FF650AF8B4240EBC25008BF20F06C
:40170000010070470CF0004C4CEA50207F32C2BFD2F1FF0340EAC250704740F400004FF00003013A37E792F0000F00F0004C02BF400010F4000F013AF9D040EA0C0093F0AC
:40174000000F01F0004C02BF490011F4000F013BF9D041EA0C0195E70CEAD15392EA0C0F08D142027FF47DAF93EA0C0F7FF470AF084676E793EA0C0F04D14B023FF44CAF1C
:4017800008466EE730F0004C18BF31F0004CCAD130F000427FF45CAF31F000437FF43CAF5FE700BF014B1868704700BF4881FF1F0E4B70B51E460E4C0025E41AA410A54271
:4017C00004D056F8253098470135F8E700F04AF8084B094C1E46E41AA4100025A54204D056F8253098470135F8E770BD7018000070180000701800007818000010B5431E9C
:401800000A44914204D011F8014B03F8014FF8E710BD03460244934202D003F8011BFAE77047000000000000004F00402400405100403000000001400010001401408002A6
:4018400000170140000500400140000A004C0140000200500140200080160140F007004880004300F8B500BFF8BC08BC9E4670474D000000C1060000F8B500BFF8BC08BCF0
:401880009E4670472900000098180000C880FF1F8800000070000000000000000000000001000000E40000007201A241050000000C022B8716D92540000000000000000002
:4018C000000000000000000000000000000000000000000000000000621800000000000000000000000000000000000000000000000000000000000000000000000000006E
:40190000000000000000000000000000000000000000000000000000E880FF1F00000000000000000000000000000000000000000000000000000000000000000000000021
:401940000000000000000000000000000000000000000000000000000000000000000000000000000000000000000000000000000000000000000000000000000000000067
:401980000000000000000000000000000000000000000000000000000000000000000000000000000000000000000000000000000000000000000000000000000000000027
:4019C00000000000000000000000000000000000000000000000000000000000000000000000000000000000000000000000000000000000000000000000000000000000E7
:401A000000000000000000000000000000000000000000000000000000000000000000000000000000000000000000000000000000000000000000000000000000000000A6
:020000040003F7
:0200000480007A
:40000000064F00400852004003640040036500404F000140320101404E0201403C03014044040140430501404306014047070140020B0140010D0140010F01403F14014080
:400040004C150140231601404B17014001190140021B0140044001400C410140134201400F430140064401400745014008460140034701400F48014011490140064C0140D4
:40008000074D0140095001400251014001200A1B0D20161B191022270005010308800940600361017819790C7003856F860F7503850F876F00010202043807040C600E10DE
:4000C0001040120813021401160218011A061E8023012458262028022A792C602E0830803104320433023403350136783A205608580459045B045D905F018403860C8C0CCF
:400100008E038F0F9005910C920A9302950B9704980F9907A00AA10CA205A301A508A701A807B40FB70FC034C106C9FFCAFFCBFFCDA0CF01D018D804D904DA04DF01E040AA
:40014000E280E440E540E680E840EA80EC40ED20EE800182031004080580072009A00A500C200E080F801020118013201711180819831A101BA01E081F102120220A25402F
:40018000270129012FA032023604371138043E403F80450A4E0458105A806004618068058805C0ADC25FC457CAC1CCE1CE12D0C0D220D60CD80C0B010C01110C1506190159
:4001C0001C01210C250A260228013001330E34023701380239083E013F4040344106452C4640473E483B49FF4AFF4BFF4DAF4E074F015018580459045A045F016040628085
:4002000064406540668068406A806C406D206E808210830484048608870188018A028C028E019010941C9A1C9C019E029F02A001A202A620A81CAC04AE08B003B101B302BA
:40024000B43CB704BA02D608D804D904DB04DD90DF01002003A206020A0A0B600F02118012A01320162017101A081B021D122020210422812504264427302F90328035100E
:400280003604370139083B013E20450A4D024E044FC6562A58406301900893209688984099809B019C109F10A140A20AA3A0A50AA740B040C08FC28FC46FCAC0CCE8CE23C7
:4002C000D0C0D220D608D808EA01051E080109200A021106131814021601170119141B0A211823062801290A2A022B142C012D0E2E0232033301351E37203A083F405804A8
:4003000059045F0182208310840B850B86048704880C8A018D0C8E108F01900C9202950C9702980899209A019C079D07A20FA320AB0FAC10AD08AF01B00FB110B220B410A7
:40034000B50FB720BE10BF40D40FD804D904DB04DF05002004040502060207080A200E400F0A120A168017401A201B0C1D031E68202423012530274A29012B052D022E806A
:400380002F0A3120320833023690370838043A203C043E425D105E885F02660867047D0885128E01900892089324968099929A0A9B119C10A144A24AA302A508A620A740BB
:4003C000C0F2C2D4C493CABDCC77CED6D6F0D860DE40E204E640EA0201040202050108010904110116011702180219081E011F0823012501260629082D013001320233087F
:4004000034043503370439803E053F045280540F5604580459045B045F01807F84FE85948601876089FD8B028C0E8EF090A3919E925C936094969668970F99739A01A1300F
:40044000A3C9A8C5AA3AADCFAF30B2FFB5FFB820BE14BF10D280D804D904DB04DF010004028003020510074009220A200C080D800E081120170418201B101D081E4822204D
:4004800025802640272429802BC02C082D802F9030083204331135103640370938083B2C3D103E023F04420443105E445F2262806302674072807740822083108712900CD1
:4004C000911092289321968099909A029B119C109E21A152A302A508A6A0A741C05DC2EEC422CAF9CCF7CEE6D6F0D880E204EA02EA81E0A0010208010B0C11041E0222093D
:400500002502270129012A042F043001310832083301340435023602370439203E013F445608580459045B045D905F01850589068C018D068E02911093089401960A980176
:400540009A069B189C029D039E01A520A918AE10B004B108B210B320B408B510B603B707B980BA80BF15D40FD604D804D904DB04DF01001004400B020E1A1080120414024C
:40058000181019201A801B481C401E1A1F80218222242698278029242A842F28310236A0370239203B023C043D203F4058805C085E215F806002660169506F0680808140C4
:4005C00088188A808B028E088F0490049120920193429510968899049A809B029C109E01A080A110A320A580A680A7C0AD04AE01B110B720C082C2E1C48ACA6ECCB1CE7523
:40060000D6F8D888E690E840EA800DC50F3A1701197F1DA31F5C2196236825FE2701290E2BF035FF3F104016410449FF4AFF4BFF4DA04F01501859045A045F016040628064
:4006400064406540668068406A806C406D206E8000040280030209020A200B40100411201302190820022170220123122708280429082B422F9431063290358037143824F0
:4006800039883B023D80418045804702480149044B124F1050805108521059105A8A610862107A808110830190249220932899809A809B149C109E019F08A152A302A5204A
:4006C000A680A780AF40B640B701C00DC20CC40ACAEFCC7FCE1FD098D22CD60FD806DE01E810EA04EE10EA04E220E440312032043640CC705110574059805F8096089B8014
:40070000A520A640AB80D4E0D620EA8018021A08454057046C016D8083408D2096089D80A520A640A740AD10C640D020D440E220EA401B041F02610465047104810483021C
:400740009D80A640A704C630D8C0DC80E020E68014402A808824C404CA08E00510209820A004AA80B040C408EA010302540483029820A004AC20C002D40203109820C008C0
:400780005040530257805F809B80A306A580A980AE40B580B780D4E0D620EA20EE4009800E02700275028102820188028C409480A580B380B704C2C0DC80DE20E480E62005
:4007C0005C0460209820AB10D601D802101088108C049404C408E204E40200010101080109010A01100111011A011B01003F04C073800040FD1D0200000000029400601C9E
:40080000CF0130103080C90000100001009C000000400F00000000209E056008000500080040FF800003003C0008000000000405160500000023C40E1FFFFFFF00AF070109
:40084000180000000F00000004040404000000054000800040408000400080004020800000000000000000000000000000000000000F0F000F00000060070700070000003A
:40088000001F1F001F00000000CBCB00C00000000007070000000000C000000000000F002F001C01000000000000000000000000000000000000000000000000000000005C
:4008C00000000000000000000000000000000000000000000000000000000000000000000000000000000000000000000000000000000000000000000000000000000000F8
:4009000000000000000000000000000000000000000000000000000000000000000000000000000000000000000000000000000000000000000000000000000000000000B7
:400940000000000000000000000000000000000000000000000000000000000000000000000000000000000000000000000000000000000000000000000000000000000077
:400980000000000000000000000000000000000000000000000000000000000000000000000000000000000000000000000000000000000000000000000000000000000037
:0200000490006A
:0400000000004005B7
:0200000490105A
:04000000BC90ACAF55
:0200000490303A
:0200000090DC92
:0200000490402A
:4000000000000000000000000000000000000000000000000000000000000000000000000000000000000000000000000000000000000000000000000000000000000000C0
:400040000000000000000000000000000000000000000000000000000000000000000000000000000000000000000000000000000000000000000000000000000000000080
:400080000000000000000000000000000000000000000000000000000000000000000000000000000000000000000000000000000000000000000000000000000000000040
:4000C0000000000000000000000000000000000000000000000000000000000000000000000000000000000000000000000000000000000000000000000000000000000000
:0200000490501A
:0C00000000012E16106900012E21A14500
:00000001FF