:400000000080002011000000310400003104000008B5044B1A6803F53F5302331A6000F00FFA00BFFA46004010B5054C237833B9044B13B10448AFF300800123237010BD04
:400040003081FF1F00000000E8100000084B10B51BB108490848AFF300800848036803B910BD074B002BFBD0BDE81040184700BF000000003481FF1FE8100000C880FF1F42
:400080000000000008B5322000F02CFD322000F0BBFC00F077FA08BD08B500F061FC00F0FFFA00F091FB00F0F5FB0023034A1370034A1370034A137008BD00BF6781FF1F8D
:4000C0006681FF1F6881FF1F08B562B600F0A0FA00F0B6FD124800F0A9FF124800F02CFB00F05CFC00F0FAFA00F08CFB00F0F0FB00F062FC00F0CEFC00F03AFD462000F08C
:40010000F1FC282000F080FC642000F077FC642000F0E2FC00F0DCFD00F04EFEFEE700BF8500000099000000FEE700BFF0B40022174611E050F82760F3B226F0FF0608E0EF
:4001400001EB420511F812406D78A5550132013BDBB2002BF4D10137222FEBD9F0BC7047164B1B78DBB203F00701154A11701B09013213700F22134B1A70022203F22F736C
:400180001A70102203F515731A7040230E4A1370802105321170033213700532137003321370202105321170033213705022074B1A704422A3F2E2231A707047CF0100495F
:4001C0006E5800403D510040C35A0040585B004008B50A46002100F07EFF08BD08B500F06FFF08BD38B50322314B1A801823314A13702F2230490A801C20023108700231CC
:400200000A802E4A137004222D492E48FFF7E6FF06222D4B1A705222A3F580731A702B4B1B78DBB22A4A13704FF4E262294B1A8041F25122023B1A80002419250CE0264B3B
:400240001B7803F0010343EA440404F003044FF4F07000F0F9FE013D0DB1032CEFD115B90320FFF761FF1D4A4FF4807313800723137000231A490B70482002310870137054
:40028000053213700222174B1A7004220A331A70154A137843F007031370013A137843F001031370013A137843F08003137038BD8040004082400040844000408A40004059
:4002C000EC07004800410040004300400F010049A14600402242004025420040044000400640004001400040A243004038B572B63A4A137843F00403137000240CE0384DCE
:40030000630019194A0011462A44084691882858FFF75EFF0134E4B2072CF0D931494FF09040FFF703FF03222F4B1A8040F2031202331A8040F2032202331A8040F20332BB
:4003400002331A80294A03F53E438A331A60284A137843F0020313701032137843F002031370244C237843F040032370A2F58632513A137843F01003137008221E491F4811
:40038000FFF72CFF08221E491E48FFF727FF08221D491E48FFF722FF08221D491D48FFF71DFF08221C491D48FFF718FF1C4A137843F0080313701B4D61232B70FFF712FFB4
:4003C000C1232B700122184B1A70FFF7C9FE0E2221461648FFF702FF38BD00BFE8460040EC1000008C000048485800400404048403500140A0430040C4070048C251004046
:40040000CC070048F2510040D407004812510040DC07004822510040E407004832510040224300400048004004000840B043004008B500F019FE03680C2B00D1FEE7FEE7D7
:4004400008B5104E104D16E029686B68AC68002204E051F8040B43F8040B0432A242F8D1E868002203E0002143F8041B04328242F9D11035013E002EE6D100F0FBFDFFF730
:4004800023FEFEE7010000004411000008B5104A104B1A60104A136843F40073136000230AE0032B03D80D4A52F8231000E00C490C4A42F8231001332F2BF2D90A4B1A78E0
:4004C0000A4B1A70074A0A4B1A60FFF70FFF08BD0004FA050CED00E014ED00E000000000310400000080FF1FBC760040C080FF1F08ED00E001BE704770B504460E46074B74
:400500001D681F2802D90020FFF7F4FF04F01F04103455F8240045F8246070BD08ED00E038B504460D46072902D90020FFF7E2FF1F2C02D90020FFF7DDFF04F01F0000F1D4
:40054000604000F564406D01EDB2057038BD00BF084A137843F0040313701032137843F00403137002F66532137843F001031370704700BFA3430040014B1870704700BF2E
:400580001B4F0040014B1878704700BF1B4F0040014B1880704700BF1C4F0040014B1880704700BF1E4F004008B5164A137803F0010313700232137803F0FC031370124BD6
:4005C0001A7802F0CF021A701A7842F030021A701A7802F0F0021A701A7842F00F021A700A4A137843F00103137042F28C00FFF7CFFF42F28C00FFF7D1FF0820FFF7BCFFC1
:4006000008BD00BF184F0040234F0040194F004008B5054B1B7823B9FFF7C6FF0122024B1A70FFF795FF08BD4C81FF1F054A137843F0080313701032137843F008031370A1
:40064000704700BFA74300400F490B7803F0FC0200F0030313430B7001280AD10B4B1B78DBB20B4A13700B4B1B78DBB2013213707047094B1B78DBB2054A1370074B1B78E7
:40068000DBB201321370704743580040130100493646004017010049B3010049BB01004908B50020FFF7D0FF0B4B1A7802F0DF021A701A7802F0FB021A701A7842F0080229
:4006C0001A7003F527731A7802F0E7021A701A7842F008021A7008BD4358004008B5054B1B7823B9FFF7DCFF0122024B1A70FFF79DFF08BD4D81FF1F024B1B68C3F88C004E
:40070000704700BF08ED00E04001C0B2014B1870704700BF13E400E04FF40022014B1A60704700BF00E100E04FF40022014B1A60704700BF80E100E010B50446FFF7F4FF5E
:400740002046FFF7D9FF0720FFF7DEFFFFF7E4FF10BD00BF054A137843F0040313701032137843F004031370704700BFA74300400F490B7803F0FC0200F0030313430B7092
:4007800001280AD10B4B1B78DBB20B4A13700B4B1B78DBB2013213707047094B1B78DBB2054A1370074B1B78DBB2013213707047425800401201004934460040160100498F
:4007C000B1010049B901004908B50020FFF7D0FF0B4B1A7802F0DF021A701A7802F0FB021A701A7842F008021A7003F295231A7802F0E7021A701A7842F008021A7008BDF0
:400800004258004008B5054B1B7823B9FFF7DCFF0122024B1A70FFF79DFF08BD4E81FF1F054A137843F0020313701032137843F002031370704700BFA74300400F490B78BB
:4008400003F0FC0200F0030313430B7001280AD10B4B1B78DBB20B4A13700B4B1B78DBB2013213707047094B1B78DBB2054A1370074B1B78DBB2013213707047415800408D
:40088000110100493246004015010049AF010049B701004908B50020FFF7D0FF0B4B1A7802F0DF021A701A7802F0FB021A701A7842F008021A7003F28E231A7802F0E7026F
:4008C0001A701A7842F008021A7008BD4158004008B5054B1B7823B9FFF7DCFF0122024B1A70FFF79DFF08BD4F81FF1F054A137843F0010313701032137843F001031370D1
:40090000704700BFA74300400F490B7803F0FC0200F0030313430B7001280AD10B4B1B78DBB20B4A13700B4B1B78DBB2013213707047094B1B78DBB2054A1370074B1B7824
:40094000DBB201321370704740580040100100493046004014010049AD010049B501004908B50020FFF7D0FF0B4B1A7802F0DF021A701A7802F0FB021A701A7842F0080281
:400980001A7003F287231A7802F0E7021A701A7842F008021A7008BD4058004008B5054B1B7823B9FFF7DCFF0122024B1A70FFF79DFF08BD5081FF1F054A137843F0040381
:4009C00013701032137843F004031370704700BFA2430040084A137843F0010313701032137843F00103137002F64D32137843F001031370704700BFA3430040014B1880F5
:400A0000704700BF044F0040014B1880704700BF064F0040014B1870704700BF034F004008B5194A137843F0020313700232137803F08F0343F010031370144B1A7802F08C
:400A4000CF021A701A7842F030021A701A7802F0F0021A701A7842F00F021A706420FFF7CDFF5020FFF7D0FF0020FFF7D3FF084A137843F00103137002F65E32137843F0FC
:400A80000103137008BD00BF004F00400B4F0040A343004008B5054B1B7823B9FFF7C0FF0122024B1A70FFF795FF08BD5181FF1F084A137843F0020313701032137843F0DA
:400AC0000203137002F65932137843F001031370704700BFA3430040014B1880704700BF104F0040014B1880704700BF124F0040014B1870704700BF0F4F004008B5194A0E
:400B0000137843F0020313700232137803F08F0343F010031370144B1A7802F0CF021A701A7842F030021A701A7802F0F0021A701A7842F00F021A706420FFF7CDFF50208F
:400B4000FFF7D0FF0020FFF7D3FF084A137843F00203137002F66A32137843F00103137008BD00BF0C4F0040174F0040A343004008B5054B1B7823B9FFF7C0FF0122024BCB
:400B80001A70FFF795FF08BD5281FF1F084A137843F0080313701032137843F00803137002F67132137843F001031370704700BFA3430040014B1870704700BF274F0040C3
:400BC000014B1880704700BF284F0040014B1880704700BF2A4F004008B5164A137803F0010313700232137803F0FC031370124B1A7802F0CF021A701A7842F030021A70BF
:400C00001A7802F0F0021A701A7842F00F021A700A4A137843F0010313704FF6FF70FFF7CFFF4FF6FF70FFF7D1FF0820FFF7C2FF08BD00BF244F00402F4F0040254F004042
:400C400008B5054B1B7823B9FFF7C6FF0122024B1A70FFF79BFF08BD5381FF1F08B50122054B1A6005490020FFF746FC07210020FFF756FC08BD00BF80E100E0050D000045
:400C8000024B187800F00F00704700BF6465004040F00700014B1870704700BF8465004008B50F20FFF7F4FFFFF7EAFF00F0D4F9054A137843F01003137000F0D1F901223E
:400CC000024B1A6008BD00BF9465004000E100E008B500F00DF94FF4004000F0BBF80022064B1A60064B1B7823B9FFF7B7FF0122034B1A70FFF7D4FF08BD00BF5881FF1F3E
:400D00005481FF1F0D4B1B78DBB213F0010F06D00B490A6802F5FF427F320A6007E013F0020F04D006490A68A2F500420A6013F0040F02D00022024B1A60704764650040E2
:400D40005881FF1F08B50222054B1A6005490120FFF7D2FB07210120FFF7E2FB08BD00BF80E100E0ED0D0000024B187800F00F00704700BF6264004040F00700014B187061
:400D8000704700BF8264004008B50F20FFF7F4FFFFF7EAFF00F060F9054A137843F01003137000F05DF90222024B1A6008BD00BF9264004000E100E008B500F009F94FF459
:400DC000004000F0B7F80022064B1A60064B1B7823B9FFF7B7FF0122034B1A70FFF7D4FF08BD00BF6081FF1F5C81FF1F0D4B1B78DBB213F0010F06D00B490A6802F5FF421A
:400E00007F320A6007E013F0020F04D006490A68A2F500420A6013F0040F02D00022024B1A607047626400406081FF1F024A137843F080031370704776650040014B187081
:400E4000704700BF87650040014B1878704700BF67650040014B1880704700BF0C6A0040014B188880B270478C6A0040014B1880704700BF4C6A0040014B1880704700BFAD
:400E80006C6A004008B501E0FFF7EAFFFFF7DCFF10F0400FF8D108BD08B5134B1A7802F0F8021A701A7802F0FC021A70FFF7EAFF4FF40040FFF7DAFF4FF40040FFF7CAFF4F
:400EC0000020FFF7BBFFFFF7BFFF4FF40040FFF7D3FF00F0C1F8054A137843F01003137000F0BEF808BD00BF766500409765004008B5054B1B7823B9FFF7CEFF0122024BA7
:400F00001A70FFF793FF08BD6481FF1F024A137843F080031370704772640040014B1870704700BF81640040014B1878704700BF61640040014B1880704700BF0068004032
:400F4000014B188880B2704780680040014B1880704700BF40680040014B1880704700BF6068004008B501E0FFF7EAFFFFF7DCFF10F0400FF8D108BD08B5134B1A7802F006
:400F8000F8021A701A7802F0FC021A70FFF7EAFF4FF40040FFF7DAFF4FF40040FFF7CAFF0020FFF7BBFFFFF7BFFF4FF40040FFF7D3FF00F051F8054A137843F01003137083
:400FC00000F04EF808BD00BF726400409164004008B5054B1B7823B9FFF7CEFF0122024B1A70FFF793FF08BD6581FF1F024B1B68C3F89000704700BF08ED00E04001C0B249
:40100000014B1870704700BF14E400E04FF48012014B1A60704700BF00E100E04FF48012014B1A60704700BF80E100E010B50446FFF7F4FF2046FFF7D9FF0720FFF7DEFF44
:40104000FFF7E4FF10BD00BF0230800803D000BF01380046FCD17047EFF3108072B6704780F31088704700BF014B1868704700BF2C81FF1F0E4B70B51E460E4C0025E41A7E
:40108000A410A54204D056F8253098470135F8E700F046F8084B094C1E46E41AA4100025A54204D056F8253098470135F8E770BD2C1100002C1100002C110000341100009E
:4010C00010B5431E0A44914204D011F8014B03F8014FF8E710BD03460244934202D003F8011BFAE77047000000000000004F00403000005100401000405100403000000043
:401100000140001000140140000800400140000A004C0140000200500140200043000000F8B500BFF8BC08BC9E4670474D0000008D040000F8B500BFF8BC08BC9E46704717
:401140002900000058110000C880FF1F6800000040000000000000000000000000000000000000000000000000000000000000000000000000000000000000001C110000A2
:40118000000000000000000000000000000000000000000000000000000000000000000000000000000000000000000000000000000000000000000000000000CC80FF1FC5
:4011C00000000000000000000000000000000000000000000000000000000000000000000000000000000000000000000000000000000000000000000000000000000000EF
:4012000000000000000000000000000000000000000000000000000000000000000000000000000000000000000000000000000000000000000000000000000000000000AE
:40124000000000000000000000000000000000000000000000000000000000000000000000000000000000000000000000000000000000000000000000000000000000006E
:40128000000000000000000000000000000000000000000000000000000000000000000000000000000000000000000000000000000000000000000000000000000000002E
:020000040003F7
:0200000480007A
:40000000084F00400552004002640040026500404D0001402E0101403B02014031030140400401403F0501404E0601403C07014002090140020B0140040C0140030D0140F5
:40004000481401403C1501405F16014043170140011901400440014003410140154201400E43014006440140064501400546014006470140094801400B490140054C014087
:40008000034D01400A5001400151014001200A4B0D20164B1910224B25802E4B0980601A610978087908816F820F840F876F1802220129012F013401350136023E403F104A
:4000C0004032410649FF4AFF4BFF4DA04F015018580459045A045F016040628064406540668068406A806C406D206E8080018105840489058E0191049606A302B001B10200
:40010000B202B504B604B701B9A0BE41BF10C032C106C53CC620C74EC83BC9FFCAFFCBFFCDAFCE07CF01D018D40FD804D904DA04DB04DF05E040E280E440E540E680E84007
:40014000EA80EC40ED20EE800504060207400A080F20108019501D041E422308240425A2274029102B012E0236023F3240044108452848044A084C804E084F06560A5710C6
:400180005E425F18660867047E028940C0B0C222C408CA8CCC80CEA0D066D224D6F0D860DE10E28003040403060C0701080C0A03101014051504160A180F1B061E10200704
:4001C000230124102C0A2D012E0532103304340F350237013E043F445280540F5604580459045B045F0181038F089002920498049A029C029E0CA505A802A906AA05AD06F1
:40020000B008B107B308B406B601B902BA20D608D804D904DB04DD90DF01052007200A860D820E490F201208140115061A861B101E281F202101220A250826402708280106
:4002400029202B202E41371839023A403C0A3D0459805D025EA05F0462406480740196089840A182A404A508A602B040C060C2FBC4B2CA9ECC60CEC9D6F8D888040B060411
:40028000080C09010A020C0C0D180E010F04110E171E19161B081E102510260F2702280829182A012B022C07311E340F361037013F405608580459045B045D905F01830875
:4002C000840E86F088A38A5C8B018D0190C5923A94969668970498FE99019A01A07FA302A501A901AA01B303B508B6FFB704BE40D608D804D904DB04DD90DF010080012018
:40030000032005240610072009800C050E080F60100412121502171019201A021F402080228023402402271829242D202F6030043202332037283A203B403F6158405C80B5
:400340006180670186809102960898409C019D209F30A206A330A404A902AA04AE02AF04B180B480C067C271C457CAE6CC67CEBCD618D818EA10EC80EE0300020205040490
:400380000602070F09300A200BC90D9E0E400F601008117312101420183819941B601C021E042038240225FD26042702280829CF2A102B302E3832063478360137FF3A082D
:4003C0003F40580459045F01806081BE8210840286798C018E029058922093019440956E960899069B189C019DD49E029F0AA060A1D8A208A306A401A50AA606A714A8385F
:40040000B078B11EB3E0B403B501B604B908BA20D804D904DF010004018204020524070209080A020B400C010E0A0F2012A814021729180419921A041C081D0C1E022105D4
:4004400022282340270229062D202F20311032893602372139023C883D043F20808082018A04900292029608980199209B089C809E209F20A040A206A330A404C0FDC2FDCE
:40048000C4FECA63CCAFCE71E080E607EA01E607EA01AB02AD01B982BF41D904DF0121012302EA8002010C040E020F041006130214081B081E06210426082F0130013101D5
:4004C0003208330834043502360237043E543F40540F5604580459045B045F0180A38158825C832084968502866887018B788CC58D018E3A8F029160931095389601980EF2
:4005000099019AF09B069D019F02A0FEA201A380A47FA540A708AD60AF08B104B303B5C0B6FFB778BB08BE40D608D804D904DB04DD90DF0100800240050606A00702090803
:400540000A420E241020150B170119991A401F80210A22602340250426902762280129012E842F803020310234043628374238803A403D093E203F40580459905B015C805A
:400580006201640184809080910A9206968099069D089E019F22A060A208A690C0B9C26DC434CAD9CCF5CEF8D61FD81100CF02300301043006C90C9E0E601101120F1894EB
:4005C0001A601B0320FD2202247332FF350137023E043F104036410549FF4AFF4BFF4DA04F0150185280580459045A045B045F016040628064406540668068406A806C4087
:400600006D206E80810785078F079402950499019B029D019F02A005A20AA304A405A804AB08B002B10FB208B404B601B8A0BE11C032C105C523C6C4C70EC81FC9FFCAFFB7
:40064000CBFFCDAFCE07CF01D018D40FD804D904DA04DB04DF05E040E280E440E540E680E840EA80EC40ED20EE80050607020A100C100E040F4010A01208150A1804190136
:400680001A121B101F0820802340270D29022B0830103104328036103701390A3B403C0240044304470848A04B404F6050405108521059095A805B106108621074017908C7
:4006C000808083108E20910A920499069E219F20A208A680AC02AD04C0B0C254C43ECA05CCAECE8BD046D238D60FD806DE02E440E440312036208B01CC30A301A520A620A9
:40070000530455085B025F0263206720870493209B02A311A480A520AB10AF12B080B620D460D6C0D8C0E610EEC019011F048120830187408B04A301A480A520A908C63051
:40074000E220E660EA8014402B047C40C404CA08DE0413019440A304B040C408EA01004093019440A304C002000883068404A304AB01C008530457018D01934A9901A30139
:40078000A480D420D62008100C8073407F0184109342A480C2C0DC80DE20E44062018E019F02D802E40213029F02C40800010101080109010A010B01100111011A011B016B
:4007C000000F0000601F1F001F000000000C0C000C000000008B8B00800000000007070000000000C000000000000F002F001C01000000000000000000000000000000004A
:4008000000000000000000000000000000000000000000000000000000000000000000000000000000000000000000000000000000000000000000000000000000000000B8
:400840000000000000000000000000000000000000000000000000000000000000000000000000000000000000000000000000000000000000000000000000000000000078
:400880000000000000000000000000000000000000000000000000000000000000000000000000000000000000000000000000000000000000000000000000000000000038
:4008C00000000000000000000000000000000000000000000000000000000000000000000000000000000000000000000000000000000000000000000000000000000000F8
:0200000490006A
:0400000000004005B7
:0200000490105A
:04000000BC90ACAF55
:0200000490303A
:0200000081B8C5
:0200000490402A
:4000000000000000000000000000000000000000000000000000000000000000000000000000000000000000000000000000000000000000000000000000000000000000C0
:400040000000000000000000000000000000000000000000000000000000000000000000000000000000000000000000000000000000000000000000000000000000000080
:400080000000000000000000000000000000000000000000000000000000000000000000000000000000000000000000000000000000000000000000000000000000000040
:4000C0000000000000000000000000000000000000000000000000000000000000000000000000000000000000000000000000000000000000000000000000000000000000
:0200000490501A
:0C00000000012E16106900012E1E922136
:00000001FF