:4000000000800020110000003D0400003D04000008B5044B1A6803F53F5302331A6000F015FA00BFFA46004010B5054C237833B9044B13B10448AFF300800123237010BDE6
:400040003881FF1F00000000F8100000084B10B51BB108490848AFF300800848036803B910BD074B002BFBD0BDE81040184700BF000000003C81FF1FF8100000C880FF1F12
:400080000000000008B5084B1B78C82B05D1322000F02EFD322000F0BDFC034A13780133137000F075FA08BDCC80FF1F08B500F05DFC00F0FBFA00F08DFB00F0F1FB0023ED
:4000C000034A1370034A1370034A137008BD00BF6F81FF1F6E81FF1F7081FF1F08B562B600F09CFA00F0B2FD124800F0A5FF124800F028FB00F058FC00F0F6FA00F088FBF6
:4001000000F0ECFB00F05EFC00F0CAFC00F036FD502000F0EDFC142000F07CFC642000F073FC642000F0DEFC00F0D8FD00F04AFEFEE700BF85000000AD000000FEE700BF38
:40014000F0B40022174611E050F82760F3B226F0FF0608E001EB420511F812406D78A5550132013BDBB2002BF4D10137222FEBD9F0BC7047164B1B78DBB203F00701154A10
:4001800011701B09013213700F22134B1A70022203F22F731A70102203F515731A7040230E4A137080210532117003321370053213700332137020210532117003321370D8
:4001C0005022074B1A704422A3F2E2231A707047CF0100496E5800403D510040C35A0040585B004008B50A46002100F07CFF08BD08B500F06DFF08BD38B50322314B1A80CF
:400200001823314A13702F2230490A801C200231087002310A802E4A137004222D492E48FFF7E6FF06222D4B1A705222A3F580731A702B4B1B78DBB22A4A13704FF4E262DE
:40024000294B1A8041F25122023B1A80002419250CE0264B1B7803F0010343EA440404F003044FF4F07000F0F7FE013D0DB1032CEFD115B90320FFF761FF1D4A4FF48073E3
:4002800013800723137000231A490B704820023108701370053213700222174B1A7004220A331A70154A137843F007031370013A137843F001031370013A137843F080030A
:4002C000137038BD8040004082400040844000408A4000406808004800410040004300400F010049A14600402242004025420040044000400640004001400040A24300403F
:4003000038B572B6394A137843F00403137000240CE0374D630019194A0011462A44084691882858FFF75EFF0134E4B2072CF0D930494FF09040FFF703FF03222E4B1A80EC
:4003400040F2031202331A8040F2032202331A8040F2033202331A80202203F2C4731A70264A137843F0020313701032137843F002031370224C237843F040032370A2F52C
:400380008632513A137843F01003137008221D491D48FFF72DFF0A221C491D48FFF728FF08221C491C48FFF723FF08221B491C48FFF71EFF08221B491B48FFF719FF1B4A08
:4003C000137843F008031370194D61232B70FFF713FFC1232B700122164B1A70FFF7CAFE0E2221461448FFF703FF38BDE8460040FC1000008C000048485800400350014037
:40040000A04300403C080048C251004044080048F0510040500800481251004058080048225100406008004832510040224300400048004004000840B043004008B500F03B
:400440001BFE03680C2B00D1FEE7FEE708B5104E104D16E029686B68AC68002204E051F8040B43F8040B0432A242F8D1E868002203E0002143F8041B04328242F9D11035DC
:40048000013E002EE6D100F0FDFDFFF727FEFEE7010000005411000008B5104A104B1A60104A136843F40073136000230AE0032B03D80D4A52F8231000E00C490C4A42F83B
:4004C000231001332F2BF2D90A4B1A780A4B1A70074A0A4B1A60FFF713FF08BD0004FA050CED00E014ED00E0000000003D0400000080FF1FBC760040C080FF1F08ED00E07C
:4005000001BE704770B504460E46074B1D681F2802D90020FFF7F4FF04F01F04103455F8240045F8246070BD08ED00E038B504460D46072902D90020FFF7E2FF1F2C02D93F
:400540000020FFF7DDFF04F01F0000F1604000F564406D01EDB2057038BD00BF084A137843F0040313701032137843F00403137002F66532137843F001031370704700BFA8
:40058000A3430040014B1870704700BF1B4F0040014B1878704700BF1B4F0040014B1880704700BF1C4F0040014B1880704700BF1E4F004008B5164A137803F001031370F7
:4005C0000232137803F0FC031370124B1A7802F0CF021A701A7842F030021A701A7802F0F0021A701A7842F00F021A700A4A137843F00103137042F28C00FFF7CFFF42F25B
:400600008C00FFF7D1FF0820FFF7BCFF08BD00BF184F0040234F0040194F004008B5054B1B7823B9FFF7C6FF0122024B1A70FFF795FF08BD5481FF1F054A137843F008037F
:4006400013701032137843F008031370704700BFA74300400F490B7803F0FC0200F0030313430B7001280AD10B4B1B78DBB20B4A13700B4B1B78DBB2013213707047094BAD
:400680001B78DBB2054A1370074B1B78DBB201321370704743580040130100493646004017010049B3010049BB01004908B50020FFF7D0FF0B4B1A7802F0DF021A701A7899
:4006C00002F0FB021A701A7842F008021A7003F527731A7802F0E7021A701A7842F008021A7008BD4358004008B5054B1B7823B9FFF7DCFF0122024B1A70FFF79DFF08BD0A
:400700005581FF1F024B1B68C3F88C00704700BF08ED00E04001C0B2014B1870704700BF13E400E04FF40022014B1A60704700BF00E100E04FF40022014B1A60704700BF8C
:4007400080E100E010B50446FFF7F4FF2046FFF7D9FF0720FFF7DEFFFFF7E4FF10BD00BF054A137843F0040313701032137843F004031370704700BFA74300400F490B7811
:4007800003F0FC0200F0030313430B7001280AD10B4B1B78DBB20B4A13700B4B1B78DBB2013213707047094B1B78DBB2054A1370074B1B78DBB2013213707047425800404D
:4007C000120100493446004016010049B1010049B901004908B50020FFF7D0FF0B4B1A7802F0DF021A701A7802F0FB021A701A7842F008021A7003F295231A7802F0E70221
:400800001A701A7842F008021A7008BD4258004008B5054B1B7823B9FFF7DCFF0122024B1A70FFF79DFF08BD5681FF1F054A137843F0020313701032137843F00203137087
:40084000704700BFA74300400F490B7803F0FC0200F0030313430B7001280AD10B4B1B78DBB20B4A13700B4B1B78DBB2013213707047094B1B78DBB2054A1370074B1B78E5
:40088000DBB201321370704741580040110100493246004015010049AF010049B701004908B50020FFF7D0FF0B4B1A7802F0DF021A701A7802F0FB021A701A7842F0080239
:4008C0001A7003F28E231A7802F0E7021A701A7842F008021A7008BD4158004008B5054B1B7823B9FFF7DCFF0122024B1A70FFF79DFF08BD5781FF1F054A137843F0010336
:4009000013701032137843F001031370704700BFA74300400F490B7803F0FC0200F0030313430B7001280AD10B4B1B78DBB20B4A13700B4B1B78DBB2013213707047094BF1
:400940001B78DBB2054A1370074B1B78DBB201321370704740580040100100493046004014010049AD010049B501004908B50020FFF7D0FF0B4B1A7802F0DF021A701A78F1
:4009800002F0FB021A701A7842F008021A7003F287231A7802F0E7021A701A7842F008021A7008BD4058004008B5054B1B7823B9FFF7DCFF0122024B1A70FFF79DFF08BD3D
:4009C0005881FF1F054A137843F0040313701032137843F004031370704700BFA2430040084A137843F0010313701032137843F00103137002F64D32137843F0010313706A
:400A0000704700BFA3430040014B1880704700BF044F0040014B1880704700BF064F0040014B1870704700BF034F004008B5194A137843F0020313700232137803F08F03B8
:400A400043F010031370144B1A7802F0CF021A701A7842F030021A701A7802F0F0021A701A7842F00F021A706420FFF7CDFF5020FFF7D0FF0020FFF7D3FF084A137843F01D
:400A80000103137002F65E32137843F00103137008BD00BF004F00400B4F0040A343004008B5054B1B7823B9FFF7C0FF0122024B1A70FFF795FF08BD5981FF1F084A1378C0
:400AC00043F0020313701032137843F00203137002F65932137843F001031370704700BFA3430040014B1880704700BF104F0040014B1880704700BF124F0040014B187087
:400B0000704700BF0F4F004008B5194A137843F0020313700232137803F08F0343F010031370144B1A7802F0CF021A701A7842F030021A701A7802F0F0021A701A7842F0AC
:400B40000F021A706420FFF7CDFF5020FFF7D0FF0020FFF7D3FF084A137843F00203137002F66A32137843F00103137008BD00BF0C4F0040174F0040A343004008B5054B0E
:400B80001B7823B9FFF7C0FF0122024B1A70FFF795FF08BD5A81FF1F084A137843F0080313701032137843F00803137002F67132137843F001031370704700BFA343004027
:400BC000014B1870704700BF274F0040014B1880704700BF284F0040014B1880704700BF2A4F004008B5164A137803F0010313700232137803F0FC031370124B1A7802F09A
:400C0000CF021A701A7842F030021A701A7802F0F0021A701A7842F00F021A700A4A137843F0010313704FF6FF70FFF7CFFF4FF6FF70FFF7D1FF0820FFF7C2FF08BD00BF8C
:400C4000244F00402F4F0040254F004008B5054B1B7823B9FFF7C6FF0122024B1A70FFF79BFF08BD5B81FF1F08B50122054B1A6005490020FFF746FC07210020FFF756FCEF
:400C800008BD00BF80E100E0110D0000024B187800F00F00704700BF6565004040F00700014B1870704700BF8565004008B50F20FFF7F4FFFFF7EAFF00F0D6F9054A1378FD
:400CC00043F01003137000F0D3F90122024B1A6008BD00BF9565004000E100E008B500F00DF94FF4004000F0BBF80022064B1A60064B1B7823B9FFF7B7FF0122034B1A70D9
:400D0000FFF7D4FF08BD00BF6081FF1F5C81FF1F0D4B1B78DBB213F0010F06D00B490A6802F5FF427F320A6007E013F0020F04D006490A68A2F500420A6013F0040F02D037
:400D40000022024B1A607047656500406081FF1F08B50222054B1A6005490120FFF7D2FB07210120FFF7E2FB08BD00BF80E100E0F90D0000024B187800F00F00704700BFB4
:400D80006264004040F00700014B1870704700BF8264004008B50F20FFF7F4FFFFF7EAFF00F062F9054A137843F01003137000F05FF90222024B1A6008BD00BF92640040F7
:400DC00000E100E008B500F009F94FF4004000F0B7F80022064B1A60064B1B7823B9FFF7B7FF0122034B1A70FFF7D4FF08BD00BF6881FF1F6481FF1F0D4B1B78DBB213F03B
:400E0000010F06D00B490A6802F5FF427F320A6007E013F0020F04D006490A68A2F500420A6013F0040F02D00022024B1A607047626400406881FF1F024A137843F08003BE
:400E40001370704776650040014B1870704700BF86650040014B1878704700BF66650040014B1880704700BF086A0040014B188880B27047886A0040014B1880704700BFDE
:400E8000486A0040014B1880704700BF686A004008B501E0FFF7EAFFFFF7DCFF10F0400FF8D108BD08B5134B1A7802F0F8021A701A7802F0FC021A70FFF7EAFF4FF4004018
:400EC000FFF7DAFF4FF40040FFF7CAFF0020FFF7BBFFFFF7BFFF4FF40040FFF7D3FF00F0C3F8054A137843F01003137000F0C0F808BD00BF766500409665004008B5054B35
:400F00001B7823B9FFF7CEFF0122024B1A70FFF793FF08BD6C81FF1F024A137843F080031370704775640040014B1870704700BF86640040014B1878704700BF666400407D
:400F4000014B1880704700BF0A680040014B188880B270478A680040014B1880704700BF4A680040014B1880704700BF6A68004008B501E0FFF7EAFFFFF7DCFF10F0400F09
:400F8000F8D108BD08B5134B1A7802F0F8021A701A7802F0FC021A70FFF7EAFF4FF40040FFF7DAFF4FF40040FFF7CAFF0020FFF7BBFFFFF7BFFF4FF40040FFF7D3FF00F042
:400FC00053F8054A137843F01003137000F050F808BD00BF756400409664004008B5054B1B7823B9FFF7CEFF0122024B1A70FFF793FF08BD6D81FF1F024B1B68C3F8900047
:40100000704700BF08ED00E04001C0B2014B1870704700BF14E400E04FF48012014B1A60704700BF00E100E04FF48012014B1A60704700BF80E100E010B50446FFF7F4FF74
:401040002046FFF7D9FF0720FFF7DEFFFFF7E4FF10BD00BF000000000230800803D000BF01380046FCD17047EFF3108072B6704780F31088704700BF014B1868704700BF7A
:401080003081FF1F0E4B70B51E460E4C0025E41AA410A54204D056F8253098470135F8E700F046F8084B094C1E46E41AA4100025A54204D056F8253098470135F8E770BD6C
:4010C0003C1100003C1100003C1100004411000010B5431E0A44914204D011F8014B03F8014FF8E710BD03460244934202D003F8011BFAE77047000000000000004F0040D9
:40110000300000510040100040510040300000000140001000140140000800400140000A004C0140000200500140200043000000F8B500BFF8BC08BC9E4670474D00000055
:4011400099040000F8B500BFF8BC08BC9E4670472900000068110000C880FF1F7000000040000000000000000000000001000000000000000000000000000000000000009A
:40118000000000000000000000000000000000002C1100000000000000000000000000000000000000000000000000000000000000000000000000000000000000000000F2
:4011C00000000000000000000000000000000000D080FF1F000000000000000000000000000000000000000000000000000000000000000000000000000000000000000081
:4012000000000000000000000000000000000000000000000000000000000000000000000000000000000000000000000000000000000000000000000000000000000000AE
:40124000000000000000000000000000000000000000000000000000000000000000000000000000000000000000000000000000000000000000000000000000000000006E
:40128000000000000000000000000000000000000000000000000000000000000000000000000000000000000000000000000000000000000000000000000000000000002E
:4012C00000000000000000000000000000000000000000000000000000000000000000000000000000000000000000000000000000000000000000000000000000000000EE
:020000040003F7
:0200000480007A
:40000000084F00400652004003640040036500402D00014022010140400201403B03014059040140490501404E0601404D07014001090140010B0140010D0140020F0140DE
:400040006D1401404B150140421601403B17014001190140064001400C410140114201400E4301400A440140084501400A460140044701400D4801400D4901400B4C01405C
:40008000034D0140075001400151014001200A1B0D20161B1910224B25802E4B08C0098060156109786579297103820F866F7703850F866F05011C01300131013E013F017B
:4000C000580459045B045F0181018302850287018D018F069108931095089604971099109A029B08A201A608A908AB10AD01AF22B001B104B208B318B404B503B602B72027
:40010000BB28D608D804D904DB04DD90DF0108800E2816A01A801E2A1F0A21022424254127282F0A360537203B083C043D825E105F4066A069106B016C0687408802890227
:400140008C04C261C430CA30CCE0CED2D630D830E62001060410080B0A04140C1602180819051A011D031E10200C22012506260F28102C0731073210340F39023E04540FAC
:400180005604580459045B045F0183108502870488028A018B088C018E069001910E92029608970E98019A029E109F01A508A90EAD02AF04B010B101B203B31EB404B60841
:4001C000B920BA08BF10D608D804D904DB04DD90DF01008003080514080809800A840E020F181680176819081A861B0C1E201F102088220823202602274029182A802B01AB
:400200002F10324A3510374038043B313F02581059805D015E605F046008618064408701884090249610970898109B099C80AA40B010B110C063C2EFC4F0CA4ECC3BCE8799
:40024000D6FCD88CE280EA80040E059406F00760089609CF0A680B3010C5123A14A3165C170F18FE19FD1A011B021D73220129302BC92C7F2D9E2F6032FF37FF3E043F4050
:40028000580459045F0180148104820A8401850189018A019101941895019606981E99089E019F08A104A220A406A618A702A80AAA14AB01AC0EAF08B001B104B220B3085B
:4002C000B41EB703B902BE01BF04C032C106C9FFCAFFCBFFCDA0CF01D018D280D804D904DA04DB04DF01E040E280E440E540E680E840EA80EC40ED20EE80000401040308D6
:40030000050406400704080209200A800B200E0A0F10128214041504174119081D301E68230125082681270128042A402B052C802D082E802F083110320833443402369495
:4003400038043B303C043E023F10450847204E08768085219024920293209501965097099B409C809D14A20AA30CA601A701AE02AF04B004B180C076C2EEC4F9CAFCCCFE7D
:40038000CEE6D060D220EA20EC80EE020304100411021D011E0821012202230229042D012E05300131043202330134043608370239083E103F4540324106454C4602473EEF
:4003C000483749FF4AFF4BFF4DAF4E074F015018540F580459045A045B045F056040628064406540668068406A806C406D206E808101830284088502860187018C07900C9B
:40040000910192029302940C9601980B9A049E10A220A901AA0FAB02B00FB303B420B610BB08D804D904DF01000402020420060409200A820B200C800E4010041301150170
:400440001602180219201A801B011D041E4A1F08202021042440272229202C802F0A320136013740380239083B013D01450847204D014E084F045480560A57025C405E085B
:400480005F12660867047E02848087049024920293209690970898049B409C809D049E029F20A128A20AA480A701C005C29FC49ACAB4CC91CE83D060D220D6F0D860DE1091
:4004C000E408E408EE02EA20E010E4800037046005940604076009300A070BC90C5711FD1208130219CF1B301D9E1F602061217322022401260228042B0F307031FF340F07
:4005000038023F014032410649FF4AFF4BFF4DA04F015018580459045A045F016040628064406540668068406A806C406D206E80800E810A8810890A8A028C168E0890018E
:400540009102981899049A049B019C189E029F05A221A61EAD05B020B108B201B304B41EB502B701B922BE04BF54C023C106C52CC634C70EC81FC9FFCAFFCBFFCDAFCE074F
:40058000CF01D018D40FD604D804D904DA04DB04DF01E040E280E440E540E680E840EA80EC40ED20EE80000801220202030104200502070309020C400E441040110412047A
:4005C0001508168019221B021C281D101E44210224042640276829222E40304031103242352237403820390C3E203F0240044210471849204D204F06542056A85A105B108E
:400600005E885F226780841085808D028E0490209108929097849A049D929E08A202A424A703A802B704C0DFC2D8C43ECA15CCBDCEA6D066D224D6F0D880EE1002010320B9
:4006400009060B180D20111E1401170119181B061D141E021F0A290A2A012B142D0E3002311E3201350137203E043F405280540F580459045B045F05812084A38510865C29
:400680008702880E8AF08B1E8C7F8D168F0890C5923A96019B219D189F04A10EA740A896A918AA68AB02ACFEAE01B101B2FFB350B520B71EBE04BF10D804D904DB04DF0121
:4006C00000280302074009080A800E200F0210081206172019081E50210922C82328248026122702291A2C082F02302032403510368A38A0390A3C203E403F025D905F0A57
:400700006608670468026B0477407F02851087018B40902091089A04A010AA10AC80AF10C017C2ACC443CA37CCFCCEBFD6F0D860DE10E680EA01EA013120361084808A10AC
:40074000CC30E44087808A109A109B409C80A001A520A610AB40B001E240EE80531056106340674093609A109BC09C80A001A480A520AF10B080B340D460D8C0EE401B0126
:400780001F0863406740870993409BC09C80A001A480A520C630D8C0E45014102A107C408B088C04C404CA08DE04E008E4011010900894409A109B08B010C408EA04004089
:4007C00050045610900894409A109B08AC10C002D406000287049B08C0085040540157085B4089209BC09C80A001A308A480A520D4E0D62008800C80738077109B909C8083
:40080000A480AB10B440C2C0DC80DE20EA205F086708740193089B08A001A420A820D601D801DE041020A420C40800010101080109010A0110011A01000F0000601F1F00FD
:400840001F0000000000403F3F007F000000000000CBCB00C00000000007070000000000C000000000000F002F001C0100000000000000000000000000000000000000009D
:400880000000000000000000000000000000000000000000000000000000000000000000000000000000000000000000000000000000000000000000000000000000000038
:4008C00000000000000000000000000000000000000000000000000000000000000000000000000000000000000000000000000000000000000000000000000000000000F8
:4009000000000000000000000000000000000000000000000000000000000000000000000000000000000000000000000000000000000000000000000000000000000000B7
:400940000000000000000000000000000000000000000000000000000000000000000000000000000000000000000000000000000000000000000000000000000000000077
:0200000490006A
:0400000000004005B7
:0200000490105A
:04000000BC90ACAF55
:0200000490303A
:02000000B0EF5F
:0200000490402A
:4000000000000000000000000000000000000000000000000000000000000000000000000000000000000000000000000000000000000000000000000000000000000000C0
:400040000000000000000000000000000000000000000000000000000000000000000000000000000000000000000000000000000000000000000000000000000000000080
:400080000000000000000000000000000000000000000000000000000000000000000000000000000000000000000000000000000000000000000000000000000000000040
:4000C0000000000000000000000000000000000000000000000000000000000000000000000000000000000000000000000000000000000000000000000000000000000000
:0200000490501A
:0C00000000012E16106900012E1EC158D0
:00000001FF