:400000000080002011000000910700009107000008B5044B1A6803F53F5302331A6000F0BFFB00BFFA46004010B5054C237833B9044B13B10448AFF300800123237010BD8D
:400040006081FF1F0000000094220000084B10B51BB108490848AFF300800848036803B910BD074B002BFBD0BDE81040184700BF000000006481FF1F94220000C880FF1F66
:400080000000000000000000F8B5394B1B78DBB2092B05D8364A13780133DBB2137033E0334C0026267000F099FF0028B8BF4042606001F031F80028B8BF4042A0606268D3
:4000C000E3681344E360A268236913442361E068284D2B686F6890FBF3F001F081FE394601F0D2FE606120692B686D6890FBF3F001F076FE294601F0C7FEA061304600F054
:4001000083FF304601F01EF800F024FC184C6068184D2B686E6890FBF3F001F061FE314601F0B2FE01F0ECFA0FA3D3E9002301F065FC01F04BFDE061A0682B686D6890FBB1
:40014000F3F001F04DFE294601F09EFE01F0D8FA05A3D3E9002301F051FC01F037FD2062F8BD00BFAFF30080FCA9F1D24D62503F7C81FF1FD080FF1F08B5322000F00AFE69
:40018000322000F07BFE08BD08B5412000F002FE322000F073FE00F0B5FD0028FBD000F0B9FD0128F7D007E0FFF7E6FF322000F0C1FE00F0AFFD18B100F0ACFD0028F3D027
:4001C00000F0B0FD10B100F0A5FD88B90023094A82F82430084A1372FFF7CEFF4FF47A7000F0A8FE412000F0D5FD3C2000F046FE08BD00BF7C81FF1FD080FF1F08B501208F
:4002000000F02EFD012000F037FD012000F040FD322000F0BFFD462000F030FE00F08AFD0028FBD000F076FD0128F7D00BE0322000F0B0FD322000F021FE322000F07AFEDC
:4002400000F068FD18B100F06DFD0028EFD000F069FD10B100F05EFD88B90023084A82F82430084A1372FFF787FF4FF47A7000F061FE3C2000F08EFD3D2000F0FFFD08BD85
:400280007C81FF1FD080FF1F08B500F04BFD28BB00F040FD10B31E4BD8691E4901F0A6FF30B913E000F03EFE0138C0B200F0E6FD174B186AD96901F07BFF0028F2D008BD80
:4002C00000F0BCFD0130C0B200F064FD104B186AD96901F06DFF0028F2D008BD00F022FD78B100F017FD60B9094B186A094901F07DFF60B100F0A2FD0138C0B200F04AFDCA
:4003000008BD00F00FFE0130C0B200F0B7FD08BD7C81FF1F0000A04008B562B600F060FB002000F09DFC012000F0A6FC012000F0AFFC00F0BBFB00F01FFC00F083FC00F0AC
:40034000E1FA434800F0D0FC642000F01DFD642000F08EFD322000F01DFD322000F08EFD00F0F0FC00F05CFD00F0CEFD00F088FE00F024FF3CE000F0D5FC10B100F0CAFCE8
:4003800050B900F0BFFC012806D900F0D3FC18B10022304B1A722BE000F0B4FC80B900F0B9FC68B1FFF7E8FE00F0ACFC00BB0124284B1C7200F028FE274B83F8244017E07B
:4003C00000F0B8FC88B900F0ADFC70B1FFF7D4FE00F0B0FC60B902221E4B1A7200F0B2FE01221D4B83F8242002E00322194B1A72194B93F8243013F0FF0FBCD0154B1B7A12
:40040000032BF5D8DFE803F00207131DFFF73CFFEEE7FFF7B9FE104B93F8243013F0FF0FF7D103220B4B1A72E2E7FFF7E7FE0A4B93F8243013F0FF0FF7D10322054B1A724F
:40044000D6E7322000F0A6FC322000F017FDCFE789000000D080FF1F7C81FF1FFEE700BFF0B40022174611E050F82760F3B226F0FF0608E001EB420511F812406D78A55521
:400480000132013BDBB2002BF4D10137222FEBD9F0BC7047164B1B78DBB203F00701154A11701B09013213700F22134B1A70022203F22F731A70102203F515731A7040236D
:4004C0000E4A1370802105321170033213700532137003321370202105321170033213705022074B1A704422A3F2E2231A707047CF0100496E5800403D510040C35A004014
:40050000585B004008B50A46002101F0BAFE08BD08B501F0ABFE08BD38B50122314B1A801823314A1370172230490A801C200231087002310A802E4A137004222D492E48C4
:40054000FFF7E6FF02222D4B1A7008224FF040231A70032103F500731970294B1B78DBB228490B70284B1A8041F25122023B1A80002419250CE0254B1B7803F0010343EA8D
:40058000440404F003044FF4F07000F045FF013D0DB1032CEFD115B90320FFF75FFF1C4B4FF480721A8007221A70002219490A704820023108701A700222033B1A7004225B
:4005C0000A331A70144A137843F007031370013A137843F001031370013A137843F08003137038BD8040004082400040844000408A4000409409004800410040004300401E
:4006000008010049A146004022420040254200400440004006400040A243004038B572B6444A137843F00403137000240CE0424D630019194A0011462A44084691882858B2
:40064000FFF760FF0134E4B2062CF0D900240BE03949A3001819420088180622016BC06AFFF756FF0134E4B2002CF1D033494FF09040FFF7F5FE0322314B1A8040F2031261
:4006800002331A8040F2032202331A8040F2033202331A802B4A03F53C438A331A602A4A137843F0020313701032137843F002031370264C237843F040032370A2F5863245
:4006C000513A137843F010031370082220492148FFF71EFF082220492048FFF719FF08221F492048FFF714FF08221F491F48FFF70FFF08221E491F48FFF70AFF08221E497B
:400700001E48FFF705FF1E4A137843F0080313701C4D61232B70FFF7FFFE81232B700122194B1A70FFF7B6FE0E2221461748FFF7EFFE38BDE8460040982200008C00004866
:40074000485800400404008403500140A043004064090048025100406C090048C251004074090048F25100407C0900481251004084090048225100408C090048325100401E
:40078000224300400048004004000840B043004008B501F03FFD03680C2B00D1FEE7FEE708B5104E104D16E029686B68AC68002204E051F8040B43F8040B0432A242F8D1F5
:4007C000E868002203E0002143F8041B04328242F9D11035013E002EE6D101F021FDFFF79BFDFEE701000000F422000008B5104A104B1A60104A136843F400731360002362
:400800000AE0032B03D80D4A52F8231000E00C490C4A42F8231001332F2BF2D90A4B1A780A4B1A70074A0A4B1A60FFF7F7FE08BD0004FA050CED00E014ED00E0000000004D
:40084000910700000080FF1FBC760040C080FF1F08ED00E0054A137843F0020313701032137843F002031370704700BFA74300400F490B7803F0FC0200F0030313430B704D
:4008800001280AD10B4B1B78DBB20B4A13700B4B1B78DBB2013213707047094B1B78DBB2054A1370074B1B78DBB20132137070474158004011010049324600401501004993
:4008C000AF010049B701004908B50020FFF7D0FF0B4B1A7802F0DF021A701A7802F0FB021A701A7842F008021A7003F28E231A7802F0E7021A701A7842F008021A7008BDFA
:400900004158004008B5054B1B7823B9FFF7DCFF0122024B1A70FFF79DFF08BDB081FF1F084A137843F0040313701032137843F00403137002F66532137843F001031370F9
:40094000704700BFA3430040014B1870704700BF1B4F0040014B1878704700BF1B4F0040014B1880704700BF1C4F0040014B1880704700BF1E4F004008B5164A137803F044
:40098000010313700232137803F0FC031370124B1A7802F0CF021A701A7842F030021A701A7802F0F0021A701A7842F00F021A700A4A137843F00103137040F2E730FFF789
:4009C000CFFF40F2E730FFF7D1FF0820FFF7BCFF08BD00BF184F0040234F0040194F004008B5054B1B7823B9FFF7C6FF0122024B1A70FFF795FF08BDB181FF1F054A137812
:400A000043F0010313701032137843F001031370704700BFA74300400F490B7803F0FC0200F0030313430B7001280AD10B4B1B78DBB20B4A13700B4B1B78DBB201321370C4
:400A40007047094B1B78DBB2054A1370074B1B78DBB201321370704740580040100100493046004014010049AD010049B501004908B50020FFF7D0FF0B4B1A7802F0DF0201
:400A80001A701A7802F0FB021A701A7842F008021A7003F287231A7802F0E7021A701A7842F008021A7008BD4058004008B5054B1B7823B9FFF7DCFF0122024B1A70FFF781
:400AC0009DFF08BDB281FF1F054A137843F0080313701032137843F008031370704700BFA74300400F490B7803F0FC0200F0030313430B7001280AD10B4B1B78DBB20B4A19
:400B000013700B4B1B78DBB2013213707047094B1B78DBB2054A1370074B1B78DBB201321370704743580040130100493646004017010049B3010049BB01004908B50020F6
:400B4000FFF7D0FF0B4B1A7802F0DF021A701A7802F0FB021A701A7842F008021A7003F527731A7802F0E7021A701A7842F008021A7008BD4358004008B5054B1B7823B90B
:400B8000FFF7DCFF0122024B1A70FFF79DFF08BDB381FF1F054A137843F0040313701032137843F004031370704700BFA74300400F490B7803F0FC0200F0030313430B706D
:400BC00001280AD10B4B1B78DBB20B4A13700B4B1B78DBB2013213707047094B1B78DBB2054A1370074B1B78DBB2013213707047425800401201004934460040160100494B
:400C0000B1010049B901004908B50020FFF7D0FF0B4B1A7802F0DF021A701A7802F0FB021A701A7842F008021A7003F295231A7802F0E7021A701A7842F008021A7008BDAB
:400C40004258004008B5054B1B7823B9FFF7DCFF0122024B1A70FFF79DFF08BDB481FF1F044A137803F0FB03800000F0040018431070704720510040044A137803F0FD035C
:400C8000400000F0020018431070704720510040044A137803F0FE0300F0010018431070704700BF20510040024B1B68C3F88C00704700BF08ED00E04001C0B2014B187016
:400CC000704700BF13E400E04FF40022014B1A60704700BF00E100E04FF40022014B1A60704700BF80E100E010B50446FFF7F4FF2046FFF7D9FF0720FFF7DEFFFFF7E4FF64
:400D000010BD00BF024B1878C0F38000704700BF01510040024B187800F00100704700BF01510040024B1878C0F34000704700BF01510040024B1878C0F3C000704700BF9B
:400D400001510040054A137843F0040313701032137843F004031370704700BFA2430040084A137843F0010313701032137843F00103137002F64D32137843F0010313704B
:400D8000704700BFA3430040014B1880704700BF044F0040014B1880704700BF064F0040014B1870704700BF034F004008B5194A137843F0020313700232137803F08F0335
:400DC00043F010031370144B1A7802F0CF021A701A7842F030021A701A7802F0F0021A701A7842F00F021A706420FFF7CDFF5020FFF7D0FF0020FFF7D3FF084A137843F09A
:400E00000103137002F65E32137843F00103137008BD00BF004F00400B4F0040A343004008B5054B1B7823B9FFF7C0FF0122024B1A70FFF795FF08BDB581FF1F014B1888D1
:400E4000C0B27047064F0040084A137843F0020313701032137843F00203137002F65932137843F001031370704700BFA3430040014B1880704700BF104F0040014B188053
:400E8000704700BF124F0040014B1870704700BF0F4F004008B5194A137843F0020313700232137803F08F0343F010031370144B1A7802F0CF021A701A7842F030021A7002
:400EC0001A7802F0F0021A701A7842F00F021A706420FFF7CDFF5020FFF7D0FF0020FFF7D3FF084A137843F00203137002F66A32137843F00103137008BD00BF0C4F0040A0
:400F0000174F0040A343004008B5054B1B7823B9FFF7C0FF0122024B1A70FFF795FF08BDB681FF1F014B1888C0B27047124F004001BE704710B5044605E0084B186800F033
:400F40006BFAA4F50044B4F5004FF6D8034B586800FB04F000F060FA10BD00BFE880FF1F70B504460E46074B1D681F2802D90020FFF7DEFF04F01F04103455F8240045F858
:400F8000246070BD08ED00E038B504460D46072902D90020FFF7CCFF1F2C02D90020FFF7C7FF04F01F0000F1604000F564406D01EDB2057038BD00BF08B50222054B1A6015
:400FC00005490120FFF7CCFF07210120FFF7DCFF08BD00BF80E100E0B510000010B50224064B1C6000F03EF9A0F5004000B2044B1B68044A1460184410BD00BF80E100E0FA
:40100000B881FF1F00E100E038B505460224054B1C604FF4004000F01FF9034B1D60034B1C6038BD80E100E0B881FF1F00E100E0024B187800F00F00704700BF63640040A7
:4010400040F00700014B1870704700BF8364004008B50F20FFF7F4FFFFF7EAFF00F0E4F9054A137843F01003137000F0E1F90222024B1A6008BD00BF9364004000E100E073
:4010800008B500F041F94FF4004000F0E5F80022064B1A60064B1B7823B9FFF78DFF0122034B1A70FFF7D4FF08BD00BFB881FF1FB781FF1F0D4B1B78DBB213F0010F06D074
:4010C0000B490A6802F5FF427F320A6007E013F0020F04D006490A68A2F500420A6013F0040F02D00022024B1A60704763640040B881FF1F08B50122054B1A600549002006
:40110000FFF72EFF07210020FFF73EFF08BD00BF80E100E0F111000010B50124064B1C6000F01AF9A0F5004000B2044B1B68044A1460184410BD00BF80E100E0C081FF1FED
:4011400000E100E038B505460124054B1C604FF4004000F0FBF8034B1D60034B1C6038BD80E100E0C081FF1F00E100E0024B187800F00F00704700BF6664004040F00700A1
:40118000014B1870704700BF8664004008B50F20FFF7F4FFFFF7EAFF00F046F9054A137843F01003137000F043F90122024B1A6008BD00BF9664004000E100E008B500F0F3
:4011C0001DF94FF4004000F0C1F80022064B1A60064B1B7823B9FFF78DFF0122034B1A70FFF7D4FF08BD00BFC081FF1FBC81FF1F0D4B1B78DBB213F0010F06D00B490A6855
:4012000002F5FF427F320A6007E013F0020F04D006490A68A2F500420A6013F0040F02D00022024B1A60704766640040C081FF1F024A137843F080031370704777640040B5
:40124000014B1870704700BF85640040014B1878704700BF65640040014B1880704700BF08680040024B1B78024B188880B270470464004088680040014B188880B2704733
:4012800088680040014B1880704700BF48680040014B1880704700BF6868004008B501E0FFF7EAFFFFF7D2FF10F0400FF8D108BD08B5134B1A7802F0F8021A701A7802F082
:4012C000FC021A70FFF7EAFF4FF40040FFF7DAFF4FF40040FFF7C0FF0020FFF7B1FFFFF7B5FF4FF40040FFF7D3FF00F09DF8054A137843F01003137000F09AF808BD00BF14
:40130000776400409564004008B5054B1B7823B9FFF7CEFF0122024B1A70FFF789FF08BDC481FF1F024A137843F080031370704776640040014B1870704700BF8565004025
:40134000014B1878704700BF65650040014B1880704700BF0C6A0040024B1B78024B188880B27047066500408C6A0040014B188880B270478C6A0040014B1880704700BF05
:401380004C6A0040014B1880704700BF6C6A004008B501E0FFF7EAFFFFF7D2FF10F0400FF8D108BD08B5134B1A7802F0F8021A701A7802F0FC021A70FFF7EAFF4FF4004015
:4013C000FFF7DAFF4FF40040FFF7C0FF0020FFF7B1FFFFF7B5FF4FF40040FFF7D3FF00F023F8054A137843F01003137000F020F808BD00BF766400409565004008B5054B90
:401400001B7823B9FFF7CEFF0122024B1A70FFF789FF08BDC581FF1F0230800803D000BF01380046FCD17047EFF3108072B6704780F31088704700BF81F0004102E000BF65
:4014400083F0004330B54FEA41044FEA430594EA050F08BF90EA020F1FBF54EA000C55EA020C7FEA645C7FEA655C00F0E2804FEA5454D4EB5555B8BF6D420CDD2C4480EAA1
:40148000020281EA030382EA000083EA010180EA020281EA0303362D88BF30BD11F0004F4FEA01314FF4801C4CEA113102D0404261EB410113F0004F4FEA03334CEA133335
:4014C00002D0524263EB430394EA050F00F0A780A4F10104D5F1200E0DDB02FA0EFC22FA05F2801841F1000103FA0EF2801843FA05F359410EE0A5F120050EF1200E012A8A
:4015000003FA0EFC28BF4CF0020C43FA05F3C01851EBE37101F0004507D54FF0000EDCF1000C7EEB00006EEB0101B1F5801F1BD3B1F5001F0CD349085FEA30004FEA3C0CB8
:4015400004F101044FEA445212F5800F80F09A80BCF1004F08BF5FEA500C50F1000041EB045141EA050130BD5FEA4C0C404141EB010111F4801FA4F10104E9D191F0000F62
:4015800004BF01460020B1FA81F308BF2033A3F10B03B3F120020CDA0C3208DD02F1140CC2F10C0201FA0CF021FA02F10CE002F11402D8BFC2F1200C01FA02F120FA0CFC03
:4015C000DCBF41EA0C019040E41AA2BF01EB0451294330BD6FEA04041F3C1CDA0C340EDC04F11404C4F1200220FA04F001FA02F340EA030021FA04F345EA030130BDC4F17D
:401600000C04C4F1200220FA02F001FA04F340EA0300294630BD21FA04F0294630BD94F0000F83F4801306BF81F480110134013D4EE77FEA645C18BF7FEA655C29D094EA20
:40164000050F08BF90EA020F05D054EA000C04BF1946104630BD91EA030F1EBF0021002030BD5FEA545C05D14000494128BF41F0004130BD14F580043CBF01F5801130BD0D
:4016800001F0004545F0FE4141F470014FF0000030BD7FEA645C1ABF194610467FEA655C1CBF0B46024650EA013406BF52EA033591EA030F41F4002130BD00BF90F0000F93
:4016C00004BF0021704730B54FF4806404F132044FF000054FF0000150E700BF90F0000F04BF0021704730B54FF4806404F1320410F0004548BF40424FF000013EE700BF4B
:4017000042004FEAE2014FEA31014FEA02701FBF12F07F4393F07F4F81F06051704792F0000F14BF93F07F4F704730B54FF4607401F0004521F0004120E700BF50EA010276
:4017400008BF704730B54FF000050AE050EA010208BF704730B511F0004502D5404261EB41014FF4806404F132045FEA915C3FF4DCAE4FF003025FEADC0C18BF03325FEAFC
:40178000DC0C18BF033202EBDC02C2F1200300FA03FC20FA02F001FA03FE40EA0E0021FA02F11444C1E600BF70B54FF0FF0C4CF4E06C1CEA11541DBF1CEA135594EA0C0F46
:4017C00095EA0C0F00F0DEF82C4481EA030621EA4C5123EA4C5350EA013518BF52EA033541F4801143F4801338D0A0FB02CE4FF00005E1FB02E506F00042E0FB03E54FF052
:401800000006E1FB03569CF0000F18BF4EF0010EA4F1FF04B6F5007F64F5407404D25FEA4E0E6D4146EB060642EAC62141EA55514FEAC52040EA5E504FEACE2EB4F1FD0CBC
:4018400088BFBCF5E06F1ED8BEF1004F08BF5FEA500E50F1000041EB045170BD06F0004646EA010140EA020081EA0301B4EB5C04C2BFD4EB0C0541EA045170BD41F4801104
:401880004FF0000E013C00F3AB8014F1360FDEBF002001F0004170BDC4F10004203C35DA0C341BDC04F11404C4F1200500FA05F320FA04F001FA05F240EA020001F0004287
:4018C00021F0004110EBD37021FA04F642EB06015EEA430E08BF20EAD37070BDC4F10C04C4F1200500FA04F320FA05F001FA04F240EA020001F0004110EBD37041F10001D6
:401900005EEA430E08BF20EAD37070BDC4F1200500FA05F24EEA020E20FA04F301FA05F243EA020321FA04F001F0004121FA04F220EA020000EBD3705EEA430E08BF20EA8F
:40194000D37070BD94F0000F0FD101F00046400041EB010111F4801F08BF013CF7D041EA060195F0000F18BF704703F00046520043EB030313F4801F08BF013DF7D043EABE
:401980000603704794EA0C0F0CEA135518BF95EA0C0F0CD050EA410618BF52EA4306D1D181EA030101F000414FF0000070BD50EA410606BF1046194652EA430619D094EAB0
:4019C0000C0F02D150EA013613D195EA0C0F05D152EA03361CBF104619460AD181EA030101F0004141F0FE4141F470014FF0000070BD41F0FE4141F4780170BD70B54FF082
:401A0000FF0C4CF4E06C1CEA11541DBF1CEA135594EA0C0F95EA0C0F00F0A7F8A4EB050481EA030E52EA03354FEA013100F088804FEA03334FF0805545EA131343EA126333
:401A40004FEA022245EA111545EA10654FEA00260EF000419D4208BF964244F1FD0404F5407402D25B084FEA3202B61A65EB03055B084FEA32024FF480104FF4002CB6EB92
:401A8000020E75EB030E22BFB61A754640EA0C005B084FEA3202B6EB020E75EB030E22BFB61A754640EA5C005B084FEA3202B6EB020E75EB030E22BFB61A754640EA9C00FB
:401AC0005B084FEA3202B6EB020E75EB030E22BFB61A754640EADC0055EA060E18D04FEA051545EA16754FEA06164FEAC30343EA52734FEAC2025FEA1C1CC0D111F4801F41
:401B00000BD141EA00014FF000004FF0004CB6E711F4801F04BF01430020B4F1FD0C88BFBCF5E06F3FF6AFAEB5EB030C04BFB6EB020C5FEA500C50F1000041EB045170BD2F
:401B40000EF0004E4EEA113114EB5C04C2BFD4EB0C0541EA045170BD41F480114FF0000E013C90E645EA060E8DE60CEA135594EA0C0F08BF95EA0C0F3FF43BAF94EA0C0FB8
:401B80000AD150EA01347FF434AF95EA0C0F7FF425AF104619462CE795EA0C0F06D152EA03353FF4FDAE1046194622E750EA410618BF52EA43067FF4C5AE50EA41047FF4A6
:401BC0000DAF52EA43057FF4EBAE12E74FEA4102B2F1E04324BFB3F5001CDCF1FE5C0DD901F0004C4FEAC0024CEA5070B2F1004F40EB830008BF20F00100704711F0804F7D
:401C000021D113F13872BCBF01F00040704741F480114FEA5252C2F11802C2F1200C10FA0CF320FA02F018BF40F001004FEAC1234FEAD32303FA0CFC40EA0C0023FA02F39C
:401C40004FEA4303CCE77FEA625307D150EA01331EBF4FF0FE4040F44000704701F0004040F0FE4040F40000704700BF80F0004002E000BF81F0004142001FBF5FEA410350
:401C800092EA030F7FEA226C7FEA236C6AD04FEA1262D2EB1363C1BFD218414048404140B8BF5B42192B88BF704710F0004F40F4000020F07F4018BF404211F0004F41F413
:401CC000000121F07F4118BF494292EA030F3FD0A2F1010241FA03FC10EB0C00C3F1200301FA03F100F0004302D5494260EB4000B0F5000F13D3B0F1807F06D340084FEAC2
:401D0000310102F10102FE2A51D2B1F1004F40EBC25008BF20F0010040EA03007047490040EB000010F4000FA2F10102EDD1B0FA80FCACF1080CB2EB0C0200FA0CF0AABF8A
:401D400000EBC25052421843BCBFD0401843704792F0000F81F4000106BF80F400000132013BB5E74FEA41037FEA226C18BF7FEA236C21D092EA030F04D092F0000F08BFA1
:401D80000846704790EA010F1CBF0020704712F07F4F04D1400028BF40F00040704712F100723CBF00F50000704700F0004343F0FE4040F4000070477FEA226216BF084634
:401DC0007FEA23630146420206BF5FEA412390EA010F40F4800070474FF0000304E000BF10F0004348BF40425FEA000C08BF704743F0964301464FF000001CE050EA0102B3
:401E000008BF70474FF000030AE000BF50EA010208BF704711F0004302D5404261EB41015FEA010C02BF84460146002043F0B64308BFA3F18053A3F50003BCFA8CF2083AA0
:401E4000A3EBC25310DB01FA02FC634400FA02FCC2F12002BCF1004F20FA02F243EB020008BF20F00100704702F1200201FA02FCC2F1200250EA4C0021FA02F243EB0200F6
:401E800008BF20EADC7070474FF0FF0C1CEAD0521EBF1CEAD15392EA0C0F93EA0C0F6FD01A4480EA010C400218BF5FEA41211ED04FF0006343EA501043EA5111A0FB013155
:401EC0000CF00040B1F5000F3EBF490041EAD3715B0040EA010062F17F02FD2A1DD8B3F1004F40EBC25008BF20F00100704790F0000F0CF0004C08BF49024CEA502040EA4E
:401F000051207F3AC2BFD2F1FF0340EAC250704740F400004FF00003013A5DDC12F1190FDCBF00F000407047C2F10002410021FA02F1C2F1200200FA02FC5FEA310040F12B
:401F4000000053EA4C0308BF20EADC70704792F0000F00F0004C02BF400010F4000F013AF9D040EA0C0093F0000F01F0004C02BF490011F4000F013BF9D041EA0C018FE746
:401F80000CEAD15392EA0C0F18BF93EA0C0F0AD030F0004C18BF31F0004CD8D180EA010000F00040704790F0000F17BF90F0004F084691F0000F91F0004F14D092EA0C0F1F
:401FC00001D142020FD193EA0C0F03D14B0218BF084608D180EA010000F0004040F0FE4040F40000704740F0FE4040F4400070474FF0FF0C1CEAD0521EBF1CEAD15392EAB2
:402000000C0F93EA0C0F69D0A2EB030280EA010C49024FEA402037D04FF0805343EA111143EA10130CF000408B4238BF5B0042F17D024FF4000C8B4224BF5B1A40EA0C0058
:40204000B3EB510F24BFA3EB510340EA5C00B3EB910F24BFA3EB910340EA9C00B3EBD10F24BFA3EBD10340EADC001B0118BF5FEA1C1CE0D1FD2A3FF650AF8B4240EBC250BB
:4020800008BF20F0010070470CF0004C4CEA50207F32C2BFD2F1FF0340EAC250704740F400004FF00003013A37E792F0000F00F0004C02BF400010F4000F013AF9D040EADB
:4020C0000C0093F0000F01F0004C02BF490011F4000F013BF9D041EA0C0195E70CEAD15392EA0C0F08D142027FF47DAF93EA0C0F7FF470AF084676E793EA0C0F04D14B0232
:402100003FF44CAF08466EE730F0004C18BF31F0004CCAD130F000427FF45CAF31F000437FF43CAF5FE700BF4FF0FF3C06E000BF4FF0010C02E000BF4FF0010C4DF804CD6E
:402140004FEA40024FEA41037FEA226C18BF7FEA236C11D001B052EA530C18BF90EA010F58BFB2EB030088BFC81738BF6FEAE17018BF40F0010070477FEA226C02D15FEAC3
:40218000402C05D17FEA236CE4D15FEA412CE1D05DF8040B704700BF844608466146FFE70FB5FFF7C9FF002848BF10F1000F0FBD4DF808EDFFF7F4FF0CBF012000205DF839
:4021C00008FB00BF4DF808EDFFF7EAFF34BF012000205DF808FB00BF4DF808EDFFF7E0FF94BF012000205DF808FB00BF4DF808EDFFF7D2FF94BF012000205DF808FB00BF53
:402200004DF808EDFFF7C8FF34BF012000205DF808FB00BF014B1868704700BF5881FF1F0E4B70B51E460E4C0025E41AA410A54204D056F8253098470135F8E700F048F88E
:40224000084B094C1E46E41AA4100025A54204D056F8253098470135F8E770BDDC220000DC220000DC220000E422000010B5431E0A44914204D011F8014B03F8014FF8E762
:4022800010BD03460244934202D003F8011BFAE77047000000000000004F0040240040510040300000000140001000140140000800400140000A004C01400002005001405F
:4022C00020000000605200405C09004806004300F8B500BFF8BC08BC9E4670474D000000ED070000F8B500BFF8BC08BC9E4670472900000008230000C880FF1F9800000045
:4023000068000000000000000000000000000000E40000003F75A24103000000000000007B14AE47E17A843F0000E02EC05D00001800000000366E0100000000000000002D
:40234000000000000000000000000000000000000000000000000000CE2200000000000000000000000000000000000000000000000000000000000000000000000000006D
:40238000000000000000000000000000000000000000000000000000F880FF1F00000000000000000000000000000000000000000000000000000000000000000000000087
:4023C00000000000000000000000000000000000000000000000000000000000000000000000000000000000000000000000000000000000000000000000000000000000DD
:40240000000000000000000000000000000000000000000000000000000000000000000000000000000000000000000000000000000000000000000000000000000000009C
:40244000000000000000000000000000000000000000000000000000000000000000000000000000000000000000000000000000000000000000000000000000000000005C
:40248000000000000000000000000000000000000000000000000000000000000000000000000000000000000000000000000000000000000000000000000000000000001C
:020000040003F7
:0200000480007A
:40000000064F004007520040086400400265004058000140350101405B0201404F0301406604014048050140520601404F07014001090140020B0140030D01403C1401401A
:4000400046150140651601404B17014001190140011B014007400140124101400B4201401443014004440140094501400A460140064701400F48014014490140084C014089
:40008000044D01400A5001400251014001200A1B0D20161B19102227000A0109088009801CC07819790C21C722C723C727C77303830F856F860F7603856F01020210030C87
:4000C00005F0080C0A020C0C0DA00E010F5011021304160F170119541BA21C071D021F04240825C026012730280B29302A042BC02D703108320F33F03506361037013B2040
:40010000580459045F01860488218A128C108D028EA08F01901092209607970298049C109E60A007A407AA08AC01AE02AF01B040B20FB430B503B680BA20C023C602C8043B
:40014000C9FFCAFFCBFFD608D804D908DA08DB04DC90DD99DF01E080E240E340E440E540E680E880EA80EC80EE800010014003800514070208400B200D080E420F041220F3
:400180001310144015481720181219041D181E421F18210422212316270829542E803004322133803708380239483F804604470857405C805F4067027F0182028F08C0EBD9
:4001C000C2F5C4F6CA1ECC4FCE1BD060D610D810DE10E6400404053007C909FD0B02140215CF160117301D7322022594260127602B0F2D9E2F60300333FF36043E403F0409
:4002000040344620480849FF4AFF4BFF5608580859045A085B045C095D995F0160806240634064406540668068806A806C806E8080048608870189028B01920394029601AF
:400240009B029C03A504AB04B001B208B402B503B604B704BE51BF40C026C620C808C9FFCAFFCBFFD40FD604D804D90BDA0BDB04DC90DD09DF01E080E240E340E440E54036
:40028000E680E880EA80EC80EE8001020210062009880A800F201420170119181A421D021E02200822102301272029082A102D402F1A32103440354438243F144004442023
:4002C00045024701480450105710580859105A415F40620264016808698078017F01810282108408850486018A018D028E01910893749540980299049C409D409E849F209E
:40030000A108A220A308A602A780AC80B006C02CC22DC430CA76CC54CE66D0C4D204D61FD811DE11E042E210040105FE0701090E0BF011C5133A15A3175C19961B681C0486
:4003400024062B012C062D7F2E01300231FF3201340438223E143F014062410349FF4AFF4BFF4DA04F015018580459045A045F016040628064406540668068406A806C4095
:400380006D206E80887389088BF190FD91CC9202932194949577966099CC9B129C309EC9A0CFA180A230A31FA60FA89EAA60ADBBAF44B30FB6FFB7F0BE40C026C103C54CBE
:4003C000C620C73EC83BC9FFCAFFCBFFCDAFCE07CF01D018D40FD804D904DA04DB04DF05E040E280E440E540E680E840EA80EC40ED20EE8003200420061007280A030C401F
:400400000D400E400F2010221608171519081A8C1F4020802540271129602C402E40310432283302371939083B203F2041084204452848044D014E044F0454225501561430
:400440005D085F61660467047E0191089331940496809702980299049C209D409E30A108A220A580A782A940AC48B684C044C2B1C475CA9CCCE7CE26D066D224D6F0D8600A
:40048000DE10E80103200401050709010B020D0713041510160118041B101C021D042202230825012601270229102A0C2B073001320233103408350F360437203E453F0448
:4004C0005280540F5604580459045B045F0188668A088E809066921093019440950196089C3BA678A85DAA20AB03B078B302B4C0B501B607B880B980BF50C015C602C80414
:40050000C9FFCAFFCBFFD280D804D904DA08DB04DD09DF01E080E240E340E440E540E680E880EA80EC80EE800080020805040A810B200D800E281220131015011624170402
:4005400019601A811B021C401E0A1F0820082128230224082580272429202E282F40300231083504369037013D093EC03F244002480150405C405F256440668067017002F7
:4005800076407B0183028401910193B0942095809641974298029A089B119C209D609F04A040A141A228A404A5A0A7B2AA20B404C023C2EDC476CAE4CCF3CEF0D008D20870
:4005C000D6F0D880DE08EE40E801EE10E022EA20EE8003020402060108010A020B040E081C011D101E021F082108231024012508260227102A042D082F113101320833023A
:4006000034033504360437183A203B80580459045F01811682048503880489108F089002972099169A089E039F10A604AD15B001B204B307B402B530B608B708B908BE1410
:40064000D40FD804D904DB04DF05009402010510064009400E800F09100413041704180419041B901D481E88209021402280230424222544270429442A012E4032803688DB
:40068000371038123D083E013FA05C405D105E0A650866106C046F027D088004834488048F0290409110924193019420958099189A509B109F04A209A50CA680A790A91028
:4006C000AC80C057C2D1C426CA1BCC78CEF5D6F0D860DE40E6400030020C0428057F0614081D090E0BF00DA30F5C103C140C1630170119C51B3A1C031D961F6826402803CB
:400700002C142DFE2E282F01303C320233FF3440360138883E403F044031410649FF4AFF4BFF4DA04F0150185608580459045A045B045D905F0160406280644065406680C0
:4007400068406A806C406D206E8088018D028F0192029F02AE05AF01B001B204B402B703BE01C031C106C53EC6C0C742C83BC9FFCAFFCBFFCDAFCE07CF01D018D608D8047F
:40078000D908DA04DB04DC90DD90DF01E040E280E440E540E680E840EA80EC40ED20EE80001004200680071009410A010E400F211002159016041704185019041B201D907B
:4007C0001E6020022240260828022E4032403680371438803D883E803F2041884588480849084B014C0C5002521458805C80630267026D206F027B0183029088942095802F
:400800009640970298029A409B109D049E04A141A201A401A504A690A7B1AC40AF48B020C072C2B8C4E1CA18CC78CE78D05AD224D618D818DE08EA80E68031403204372064
:4008400083208F02CC70E2805280550857025840810882808D018F0496089C109D40A302AC10D4E0D620E280E620EC401A0A4580570496089C509D40A101A704C640D02026
:40088000D4401B041E406104650471048104844096409C509D40A101A704AA40AD80AE01C630D8C0DC80E690E82015012802C404CA08130186808B40B002B101C408E0042E
:4008C000EA04EE010208568093409A809B04AB04B701C002D402EE08000293409B04B608C008EE0228105108550157085A40822092409C10A101AD40CA40D4E0D620E2208B
:40090000EE1009200E08722074028120820483088C029A20A708A908AC10C2C0DC80DE20E020E420E680EA80EC405B04674093409B04B001D602D801EA0110808880C40857
:40094000E60100010101080109010A010B01100111011A011B01003F04C000000301000060000000000F0F000F0000006007070007000000001F1F001F00000000CBCB000D
:40098000C00000000007070000000000C000000000000F0017001C010000000000000000000000000000000000000000000000000000000000000000000000000000000066
:4009C00000000000000000000000000000000000000000000000000000000000000000000000000000000000000000000000000000000000000000000000000000000000F7
:400A000000000000000000000000000000000000000000000000000000000000000000000000000000000000000000000000000000000000000000000000000000000000B6
:400A40000000000000000000000000000000000000000000000000000000000000000000000000000000000000000000000000000000000000000000000000000000000076
:400A80000000000000000000000000000000000000000000000000000000000000000000000000000000000000000000000000000000000000000000000000000000000036
:0200000490006A
:0400000000004005B7
:0200000490105A
:04000000BC90ACAF55
:0200000490303A
:02000000D0FD31
:0200000490402A
:4000000000000000000000000000000000000000000000000000000000000000000000000000000000000000000000000000000000000000000000000000000000000000C0
:400040000000000000000000000000000000000000000000000000000000000000000000000000000000000000000000000000000000000000000000000000000000000080
:400080000000000000000000000000000000000000000000000000000000000000000000000000000000000000000000000000000000000000000000000000000000000040
:4000C0000000000000000000000000000000000000000000000000000000000000000000000000000000000000000000000000000000000000000000000000000000000000
:0200000490501A
:0C00000000012E16106900012E26E1669A
:00000001FF