:400000000080002011000000410400004104000008B5044B1A6803F53F5302331A6000F02FFA00BFFA46004010B5054C237833B9044B13B10448AFF300800123237010BDC4
:400040006881FF1F00000000D4310000084B10B51BB108490848AFF300800848036803B910BD074B002BFBD0BDE81040184700BF000000006C81FF1FD4310000C880FF1FB8
:40008000000000000000000038B5214B1B7813F0030F03D001331E4A137030E000F06AFA1C4C206001F0CAFE054660602068404202F08CF914A3D3E9002302F0EDF900222C
:4000C000154B02F0E9F902F0F9FBA060684202F07DF90DA3D3E9002302F0DEF900220E4B02F0DAF902F0EAFBE0600123084A13702374002000F054FA002001F0B5FE01F082
:400100002FFE38BDAFF30080C3F5285C8F422040CC80FF1F8481FF1F0000D03F10B5044600F098FE0028FBD0002384F83F30212384F83E30204602F045FC81B2204600F08C
:4001400061FE10BD08B562B600F0F4F900F0FEFA00F054FC3C2000F00BFC3C2000F0B0FA642000F0A7FA642000F0FCFB0121002000F04EFD00F084FD0028FBD000F04CFA99
:4001800001F0AEFE01F032FE0E4801F07DFF0E4B1B7C012BFBD10C4C0C4DA2680C49284602F0ECFB2846FFF7B9FF0A4DE2680A49284602F0E3FB2846FFF7B0FF0023237464
:4001C000E5E700BF890000008481FF1FF881FF1FD8310000B881FF1FE8310000FEE700BFF0B40022174611E050F82760F3B226F0FF0608E001EB420511F812406D78A5551C
:400200000132013BDBB2002BF4D10137232FEBD9F0BC7047064B1B78DBB203F00701054A11701B09013213704422034B1A707047CF0100496E5800407658004008B50A46DC
:40024000002102F092FB08BD38B50122264B1A801823264A1370172102321180023213700622234B1A705222A3F580731A70214B1B78DBB2204A13704FF4E1621F4B1A8070
:4002800041F25122023B1A80002419250CE01C4B1B7803F0010343EA440404F003044FF4F07001F001FF013D0DB1032CEFD115B90320FFF793FF134A4FF4807313800723CA
:4002C0001370002310490B7048200231087013700532137002220D4B1A700D4A137843F00303137038BD00BF8040004082400040004300400F010049A14600402242004033
:4003000025420040044000400640004001400040A243004008B502F01DFB08BD38B572B6354A137843F00403137000240CE0334D630019194A0011462A44084691882858E3
:40034000FFF77CFF0134E4B2082CF0D900240BE02A49A3001819420088180622C16B806BFFF7D8FF0134E4B2002CF1D024494FF09040FFF735FF234A234B1A60234A137855
:4003800043F0020313701032137843F0020313701F4C237843F040032370A2F58632513A137843F01003137008221A491A48FFF7B1FF0A2219491A48FFF7ACFF082219490B
:4003C0001948FFF7A7FF082218491948FFF7A2FF184A137843F008031370174D61232B70FFF732FF81232B70FFF714FF0E2221461248FFF78FFF38BDE8460040F8310000DC
:4004000090000048040404C4D800014003500140A043004064080048C25100406C080048F0510040780800481251004080080048325100402243004000480040B0430040A2
:4004400008B502F05BFA03680C2B00D1FEE7FEE708B5094B1A681044084BC31A802B02DC054B186005E002F049FA0C2303604FF0FF32104608BD00BFD080FF1F1083FF1FBE
:4004800008B5104E104D16E029686B68AC68002204E051F8040B43F8040B0432A242F8D1E868002203E0002143F8041B04328242F9D11035013E002EE6D102F025FAFFF7C7
:4004C00041FEFEE7010000000834000008B5104A104B1A60104A136843F40073136000230AE0032B03D80D4A52F8231000E00C490C4A42F8231001332F2BF2D90A4B1A789B
:400500000A4B1A70074A0A4B1A60FFF707FF08BD0004FA050CED00E014ED00E000000000410400000080FF1FBC760040C080FF1F08ED00E0054A137843F0020313701032DF
:40054000137843F002031370704700BFA243004008B50122054B1A600549002000F08AF90721002000F09AF908BD00BF80E100E04D06000010B50124064B1C6000F00EF97E
:40058000A0F5004000B2044B1B68044A1460184410BD00BF80E100E09881FF1F00E100E038B505460124054B1C604FF4004000F0EFF8034B1D60034B1C6038BD80E100E0B1
:4005C0009881FF1F00E100E0024B187800F00F00704700BF6264004040F00700014B1870704700BF8264004008B50F20FFF7F4FFFFF7EAFF01F060FD054A137843F01003E2
:40060000137001F05DFD0122024B1A6008BD00BF9264004000E100E008B500F011F94FF4004000F0B5F80022064B1A60064B1B7823B9FFF78DFF0122034B1A70FFF7D4FFBD
:4006400008BD00BF9881FF1F9581FF1F0D4B1B78DBB213F0010F06D00B490A6802F5FF427F320A6007E013F0020F04D006490A68A2F500420A6013F0040F02D00022024BE7
:400680001A607047626400409881FF1F084A137843F0010313701032137843F00103137002F64D32137843F001031370704700BFA3430040014B1880704700BF044F004069
:4006C000014B1880704700BF064F0040014B1870704700BF034F004008B5194A137843F0020313700232137803F08F0343F010031370144B1A7802F0CF021A701A7842F0BA
:4007000030021A701A7802F0F0021A701A7842F00F021A706420FFF7CDFF5020FFF7D0FF0020FFF7D3FF084A137843F00103137002F65E32137843F00103137008BD00BF53
:40074000004F00400B4F0040A343004008B5054B1B7823B9FFF7C0FF0122024B1A70FFF795FF08BD9C81FF1F024A137843F080031370704770640040014B1870704700BF50
:4007800081640040014B1878704700BF61640040014B1880704700BF00680040024B1B78024B188880B270470064004080680040014B188880B2704780680040014B188058
:4007C000704700BF40680040014B1880704700BF6068004008B501E0FFF7EAFFFFF7D2FF10F0400FF8D108BD08B5134B1A7802F0F8021A701A7802F0FC021A70FFF7EAFF0A
:400800004FF40040FFF7DAFF4FF40040FFF7C0FF0020FFF7B1FFFFF7B5FF4FF40040FFF7D3FF01F049FC054A137843F01003137001F046FC08BD00BF70640040916400409A
:4008400008B5054B1B7823B9FFF7CEFF0122024B1A70FFF789FF08BD9D81FF1F01BE704708B5034B1B7A00FB03F001F01DFC08BDD480FF1F70B504460E46074B1D681F289A
:4008800002D90020FFF7EAFF04F01F04103455F8240045F8246070BD08ED00E038B504460D46072902D90020FFF7D8FF1F2C02D90020FFF7D3FF04F01F0000F1604000F5A6
:4008C00064406D01EDB2057038BD00BF134B1B78DBB20360124A127843EA02230360114A127843EA024303600F4A127843EA026303600E4B1B78DBB243600D4A127843EAE6
:40090000022343600B4A127843EA024343600A4A127843EA02634360704700BF0301004904010049EC4600400201004901010049000100490501004906010049084A137808
:4009400043F0020313701032137843F00203137002F65932137843F001031370704700BFA3430040014B1880704700BF104F0040014B1880704700BF124F0040014B187008
:40098000704700BF0F4F004008B5194A137843F0020313700232137803F08F0343F010031370144B1A7802F0CF021A701A7842F030021A701A7802F0F0021A701A7842F02E
:4009C0000F021A706420FFF7CDFF5020FFF7D0FF0020FFF7D3FF084A137843F00203137002F66A32137843F00103137008BD00BF0C4F0040174F0040A343004008B5054B90
:400A00001B7823B9FFF7C0FF0122024B1A70FFF795FF08BD9E81FF1FF8B501F04DFB0646404A137843F0010313701032137843F00103137001273C4B1F700225943B1D70C3
:400A400002F5E2521B32137803F07F0313700020FFF706FF354C237803F0F9032370344A137803F0DF03137023783B4323703846FFF7F6FE2820FFF7F3FE2E4B1A7802F021
:400A80007F021A701A7802F0BF021A7023782B4323702846FFF7E4FE237843F0040323700023254A137001321370304601F008FB07211720FFF7F2FE20491720FFF7DAFE2A
:400AC00007211820FFF7EAFE1D491820FFF7D2FE07211520FFF7E2FE1A491520FFF7CAFE07212846FFF7DAFE17492846FFF7C2FE07210320FFF7D2FE14490320FFF7BAFEA4
:400B000007210420FFF7CAFE11490420FFF7B2FE07210C20FFF7C2FE0E490C20FFF7AAFEF8BD00BFA54300409D6000409443004012600040F851004084600040D513000025
:400B4000BD110000D1130000311300006113000095130000DD13000008B5214B18700023204A1370204A1370204A1370204A1370204A1370204A1370204A1370204B4FF476
:400B800000021A604FF080721A604FF400121A6004221A6008221A6010221A6011B1012906D00BE0174A137803F0FE0313700AE0144A137843F00103137004E0114A1378E8
:400BC00043F00103137003220F4B1A708022203B1A70012001F068FA04220C4B1A7008BDE382FF1FE282FF1F5482FF1F5582FF1F5682FF1FE682FF1F5782FF1F5382FF1F17
:400C000000E100E009600040286000401260004038B504460D46064B1B7823B9FFF7FCFE0122034B1A7029462046FFF795FF38BD9F81FF1F00230A4A13700A4A13700A4AE4
:400C400013700A4A13700A4A13700A4A13700A4A13700322094B1A708022203B1A707047E282FF1F5482FF1F5582FF1F5682FF1FE682FF1F5782FF1F5382FF1F28600040BB
:400C8000014B1878704700BF5582FF1F00EB40008300024A13445878704700BF7482FF1F431EDBB2072B3CD8F0B4074600EB4004A3001C4C2344DB889BB2C3F500739A42C5
:400CC00008D900EB400293002344DA8892B2C2F5007292B200EB4004A300124C2344DB7843EA1223104D04012E192B55D3B2737039B909E0CE5C3D010C4C665501339BB225
:400D000000E000239A42F5D8420002449300054A134400225A705A79D2B20001044B1A54F0BC70477482FF1FFC5F004078600040FE5F004010B4FF2400230EE0094AD25C05
:400D400002EB42029100084A11448A7AD2B2824201D11C4602230133DBB2012BEED9204610BC70474082FF1F7482FF1F10B5204C2079FFF7DFFF237813F0800F0ED0637850
:400D8000DBB2212B2FD11B4B07221A80C0EBC000194A1044586000F07FFA10BD144B5B78DBB2202B02D0222B10D01EE0114A07231380C0EBC00310490B4453600F4A135C71
:400DC00043F00103135400F08FFA10BD084B9B780B4A22F81030094A135C43F00203135400F018F910BD002010BD002010BD00BF006000406482FF1FE480FF1F4882FF1F24
:400E00004C82FF1F70B506460D460F4B1B780F4AD45CE4B204EB440293000D4A13441B899BB28B4209D204EB44029300084A13441D89ADB20020FFF711FD2A463146204600
:400E4000FFF72EFF70BD00BFA081FF1F3882FF1F7482FF1F08B5034B1B78034AD05CFFF715FF08BDA081FF1F3882FF1FC37803F0030390F9020000280FDA032B06D002F075
:400E800001030B48C15442F001020EE0C2F380030848C15442F0040207E0032B05D0C2F340030548C15442F002021046704700BF3882FF1F4082FF1F3C82FF1F1D4B1978FB
:400EC0001D4A13889BB20B449BB2138000220FE01A494B681B78DBB2194883544B6801334B600132D2B20B889BB2013B9BB20B80124B1B889BB20BB1072AE9D90D4B1B78D1
:400F0000DBB2082B00D05AB10E490B7883F080030B700F210C4B197002210C4B197004E0022309490B7009490B70094B1A70014B1A7070475382FF1FE082FF1F6482FF1F33
:400F4000006000405882FF1F5282FF1FE282FF1F7082FF1F0222074B1A708022064B1A700F22064B1A700023054A1370054A137001207047E282FF1F5882FF1F5282FF1FC1
:400F80005382FF1F7082FF1F08B5FFF797FF08BD10B4194B197801F00F010239C9B2174A13889BB20B449BB21380002011E0144A5468144B1B5CDBB2237053680133536075
:400FC0000130C0B20139C9B213889BB2013B9BB213800B4B1B889BB20BB10029E7D10A4B19700A4A137883F0800313700B22084B1A7010BC704700BF29600040E082FF1FE7
:401000006482FF1F006000407082FF1F5882FF1F5282FF1F0623064A1370064A13708022054B1A700022054B1A700120704700BFE282FF1F5282FF1F5882FF1F7082FF1FB8
:40104000064B9B6843B1054B9A6810709A6804490988518000229A60704700BF6482FF1FE082FF1F08B5134B1A78D2B21A701B78DBB213F0800F02D00F4A137008BD02208D
:40108000FFF7DEFF0D4B1B7803F06003202B05D0402B06D043B900F093FC06E001F014F803E000F037FE00E0002010B90322024B1A7008BD286000405282FF1F0060004071
:4010C00008B5094B1978094A13889BB20B449BB213800022064B1A700120FFF7B1FF0322044B1A7008BD00BF5382FF1FE082FF1FE282FF1F5282FF1F08B50B4B1B78DBB284
:40110000042B06D0062B07D0022B0BD1FFF7D8FF08BDFFF73DFF08BD0320FFF791FF0322024B1A7008BD00BFE282FF1F5282FF1F08B50022044B1A700120FFF781FF0322FF
:40114000024B1A7008BD00BFE282FF1F5282FF1F08B50B4B1B7813F0FF0F07D0084A137843F0800307490B70002313700022064B1A700120FFF764FF0322044B1A7008BDD4
:40118000E682FF1F08600040E282FF1F5282FF1F08B5094B1B78DBB2042B06D0062B07D0022B07D1FFF7F0FE08BDFFF7C1FF08BDFFF7CEFF08BD00BFE282FF1F08B5284B2D
:4011C0001B78DBB213F0100F48D013F0800F0CD003F00F03012B16D1FFF744FF214B1B7813F0800F11D1012312E013F0400F03D0FFF7CEFF01230BE013F0200F07D0FFF757
:401200007BFF012304E0002302E0002300E0002323B3134B1B7813F0800F1FD1124B1B78124A12781343124A13701278D2B2934214D10C4B1B78DBB2094A127812F0800F00
:4012400007D1084B1B78DBB2054A1370137803F00F03044A1278D2B29342EAD108BD00BF286000405282FF1F5882FF1F7082FF1F296000400022064B1A80064B9B682BB189
:40128000044A916800230B7092685380704700BFE082FF1F6482FF1F08B50F4B1B889BB213B9FFF757FE15E002220C4B1A7000220B4B1A70FFF7DEFF0A4AD179937943EABE
:4012C0000123054A128892B2934201D2024A1380FFF7F4FD012008BD6482FF1FE282FF1F5882FF1F0060004008B504220B4B1A7080220B4B1A70FFF7BDFF0A4AD17993798A
:4013000043EA0123084A128892B2934201D2064A13800B22054B1A70012008BDE282FF1F5882FF1F006000406482FF1F5282FF1F0122094B1A700F3B9B7C084B1B7B03F066
:401340000303934204D0054AD37B83F08003D3730122024B5A7370470B6000407482FF1F02220A4B1A700F3B93F82230084B1B7E03F00303012B04D0054AD37E83F080038D
:40138000D3760122024B5A76704700BF0B6000407482FF1F04220C4B1A700F3B93F832300A4B93F8243003F00303012B06D0074A92F8273083F0800382F827300122034B98
:4013C00083F82520704700BF0B6000407482FF1F704700BF08B5FFF72DFC08BD08B500F013FD08BD70B588B0054603AC174E0FCE0FC43368237035B322232B7003236B70FC
:4014000001A8FFF763FA002402231AE008AA224412F81C2C08A901EB121111F8141CE954581C00212954981C02F00F0208AE324412F8142C2A54DA1CA9540134E4B204331B
:40144000DBB2212BE2D908B070BD00BF3C32000010B401233EE019461A010C242148845403EB4300820020480244527912F0FF0F13D003EB430082001B480244127912F0CD
:40148000800F04D01801194A024494700AE01801164A02440820907004E01801134A0244802090704800084482000F480244D488E4B208010B4901448C71D088C0F307207C
:4014C000C871D088C0B20871D288C2F307224A710133DBB2082BBED9FF22054B1A7010BC704700BF706000407482FF1FFC5F00400A600040074B1A78074B03EBC2035B68A0
:401500001A7C824204D9C000103018444068704700207047E382FF1F50320000F8B5404B1B7813F0FF0F79D03D4B18780138C0B2FFF7E0FF047AC2683A4B1878C0B20023CE
:401540006AE01178884264D13749095CC9B25578A9425ED1917801F07F01D67806F00306DFF8C8E04D000D44AF000EEB07054FF0000C85F803C092F802C085F804C092F818
:4015800003C00EF807C097882F8192F90250002D0DDA012E01D1072700E00D274E000E44B500224E35446F7101266E700CE0012E01D1052700E009274E000E44B5001B4E8E
:4015C00035446F7100266E70DFF868E00F010EEB07060125B57001FA05F529448D00134929440D89C5F307250EF807500D89EDB27570CE88F6B20E4D3D44AE71CE88C6F35D
:401600000726EE71CE88F6B22E71C988C1F30721697108320133DBB2A34292D3F8BD00BF5582FF1F5682FF1F6082FF1F7482FF1F70600040FC5F0040034B1A78034B03EBFB
:40164000C2035868704700BFE382FF1F5032000008B5084B18780138C0B2FFF74BFF30B142681279023200EBC203586808BD002008BD00BF5582FF1F2DE9F047002310E067
:40168000724D5900CA189600AC190022AA55A270E2702281A272627034462C4462710133DBB2082BECD940B90AE000226849CA546849CA540133DBB200E00023012BF4D9F1
:4016C000654B1B7813F0FF0F00F0BD80624B18780138C0B2FFF70EFF80464368DB7913F0400F05D05D4A137843F00103137004E05A4A137803F0FE03137098F808704FF0D5
:40170000000A01266FE0D8F80C50002467E0AB7803F07F039E425FD1314606EB460083004A4803441B899BB2A888834206D206EB460E4FEA8E03454A134418812B78444865
:40174000C35CDBB26878834246D195F802C0DFF8FCE04B000B4498000EEB000383F804C0EB780EF80030EB7803F0030395F90200002813DA012B02D14FF0070901E04FF08A
:401780000D09DFF8C8E04B0003EB010C4FEA8C00704480F805900121417012E0012B02D14FF0050901E04FF00909DFF8A0E04B0003EB010C4FEA8C00704480F80590002141
:4017C0004170AB790A2B01D0022B05D1524631462846FFF74BFB824608350134E4B2BC4295D30136F6B2082E8DD9D8F80C0000220CE0837803F07F0310F8084B03EB4303B8
:401800009900124B19448C720132D2B2BA42F0D3FFF71EFF124B1860002301210FE00B4D4A00501884002C44E380228992B213449BB203F0010213449BB20131C9B2082959
:40184000EDD9FFF705FEBDE8F08700BF7482FF1F6082FF1F5082FF1F5582FF1F5782FF1F5C82FF1F08B5154B1B7903F07F035A1ED2B2072A20D8590019448A0010490A44B0
:40188000917841F0010191700021D170517841F002015170127912F0800F05D01B01094A1A448D23937004E01B01064A1A4489239370FFF7AFFB08BD002008BD0060004013
:4018C0007482FF1FFC5F0040274B1B7903F07F035A1ED2B2072A44D810B5590019448A0022490A44917801F0FE0191700021D1701F4C1801215C01F07F012154517801F0BA
:40190000FD015170127912F0800F13D003EB43018A0016490A445278D2B2012A04D1224602440C23937019E01B01114A1A440D23937013E003EB43018A000C490A44527835
:40194000D2B2012A05D11B01094A1A440823937004E01B01064A1A4409239370FFF75AFB10BD0020704700BF006000407482FF1FFC5F004010B50E4B1C79E4B20D4B1878DC
:401980000138C0B2FFF7B6FD43681B799C4201D9022C0AD8084A135DDBB208490B55044B9B78DBB21355012010BD002010BD00BF006000405582FF1F6082FF1F5082FF1F56
:4019C00010B59C4B1B78DBB200219B4A118013F0800F00F0AD80974A5278D2B20A2A00F27481DFE812F06900720172017201720172010B007201920072019A008D4BDB78D2
:401A0000DBB2012B09D1FFF717FE42688A4B5A6012221A80FFF740FC10BD864BDB78DBB2022B13D1834B9878FFF764FD002800F04E814268804B5A605A68D1785A6892781E
:401A400042EA01221A80FFF727FC10BD794BDB78DBB2032B05D02CE00A7811440133DBB201E000237549734A9278D2B2934203D20A7812F0FF0FEFD16E4B9B7813F0FF0F66
:401A80000BD06C4B9B78DBB26D4A127C934204D16C4C2046FFF7A6FC21460B7813F0FF0F00F017810B78644A13805160FFF7F4FB10BD00F009FB10BD13F0030317D0022BC7
:401AC00040F009815C490B805A4B1B7903F07F0303EB43039A005C4B1A449278D2B25B4B1A7000225A704B60FFF7D6FB10BD524902230B80564B1A78D2B2544B1A70002245
:401B00005A704B60FFF7C8FB10BD4B4B01221A80504A5A60FFF7C0FB10BD474A01231380444B1B794C490B445360FFF7B5FB10BD404A5278013A0A2A00F2CF80DFE812F043
:401B40004C00CD009800CD000B00CD00CD00CD001300CD003000374B9B78DBB23F4A1370FFF758FA10BD334B9B7803F0FF041BB1601EC0B2FFF7BEFC04B110B9002C40F055
:401B8000AE80344B1B78DBB29C4206D0314B1C700120334B1870FFF76FFDFFF73BFA10BDFFF7E8FE002800F09C80224A1379DBB21279D2B22B490A702B4AD25CD2B22649F3
:401BC000CB5CDBB29A4204D00122254B1A70FFF7A5FCFFF71FFA10BD03F00303012B17D04BB1022B7FD1134B9B7813F0FF0F7CD1FFF76AFE10BD0F4B9B78DBB2012B76D105
:401C0000134A137803F0FD031370FFF703FA10BD084B1B79DBB2012B6BD8064B98781B79DBB21249CA5C22EA0002CA54FFF7F2F910BD00BF006000406482FF1FB832000079
:401C40009C330000E882FF1F7482FF1FA481FF1F5782FF1F5582FF1F6082FF1FE682FF1F5482FF1F5682FF1F5082FF1FE482FF1F03F00303012B17D04BB1022B3BD1224B38
:401C80009B7813F0FF0F38D1FFF7ECFD10BD1E4B9B78DBB2012B32D11C4A137843F002031370FFF7B7F910BD174B1B79DBB2012B27D8154B98781B79DBB21549CA5C22EA25
:401CC0000002CA54FFF7A6F910BD002010BD002010BD002010BD002010BD002010BD002010BD002010BD002010BD002010BD002010BD002010BD002010BD002010BD002039
:401D000010BD002010BD00BF006000405782FF1FE482FF1F044B1B7813F0800F01D0024B5B780020704700BF00600040084A137843F0040313701032137843F00403137050
:401D400002F66532137843F001031370704700BFA3430040014B1870704700BF1B4F0040014B1878704700BF1B4F0040014B1880704700BF1C4F0040014B1880704700BFA4
:401D80001E4F004008B5164A137803F0010313700232137803F0FC031370124B1A7802F0CF021A701A7842F030021A701A7802F0F0021A701A7842F00F021A700A4A137826
:401DC00043F0010313704FF6FF70FFF7CFFF4FF6FF70FFF7D1FF0820FFF7BCFF08BD00BF184F0040234F0040194F004008B5054B1B7823B9FFF7C6FF0122024B1A70FFF7B2
:401E000095FF08BDA681FF1F024B1878C0F38010704700BF8F45004008B50222054B1A6005490120FEF726FD07210120FEF736FD08BD00BF80E100E0151F000010B50224D3
:401E4000064B1C6000F0A0F8A0F5004000B2044B1B68044A1460184410BD00BF80E100E0A881FF1F00E100E038B505460224054B1C604FF4004000F081F8034B1D60034B92
:401E80001C6038BD80E100E0A881FF1F00E100E0024B187800F00F00704700BF6364004040F00700014B1870704700BF8364004008B50F20FFF7F4FFFFF7EAFF00F0FCF8CF
:401EC000054A137843F01003137000F0F9F80222024B1A6008BD00BF9364004000E100E008B500F0A3F84FF4004000F047F80022064B1A60064B1B7823B9FFF78DFF0122AB
:401F0000034B1A70FFF7D4FF08BD00BFA881FF1FA781FF1F0D4B1B78DBB213F0010F06D00B490A6802F5FF427F320A6007E013F0020F04D006490A68A2F500420A6013F09F
:401F4000040F02D00022024B1A60704763640040A881FF1F024A137843F080031370704777650040014B1870704700BF87640040014B1878704700BF67640040014B1880F5
:401F8000704700BF0C6A0040024B1B78024B188880B27047066500408C6A0040014B188880B270478C6A0040014B1880704700BF4C6A0040014B1880704700BF6C6A004093
:401FC00008B501E0FFF7EAFFFFF7D2FF10F0400FF8D108BD08B5134B1A7802F0F8021A701A7802F0FC021A70FFF7EAFF4FF40040FFF7DAFF4FF40040FFF7C0FF0020FFF712
:40200000B1FFFFF7B5FF4FF40040FFF7D3FF00F053F8054A137843F01003137000F050F808BD00BF776500409764004008B5054B1B7823B9FFF7CEFF0122024B1A70FFF7DB
:4020400089FF08BDAC81FF1F024B1B68C3F88C00704700BF08ED00E04001C0B2014B1870704700BF13E400E04FF40022014B1A60704700BF00E100E04FF40022014B1A6005
:40208000704700BF80E100E010B50446FFF7F4FF2046FFF7D9FF0720FFF7DEFFFFF7E4FF10BD00BF000000000230800803D000BF01380046FCD17047EFF3108072B670473E
:4020C00080F31088704700BF08B5144B1B7803F00303012B02D0022B04D00FE00F4B1B79DBB20CE00D4B1B7903F07F0303EB43039A000B4B1A44937ADBB200E00023022BB5
:4021000007D8084A1268D35C022B04D1FEF72EFE08BD002008BD002008BD00BF006000407482FF1F5C82FF1F81F0004102E000BF83F0004330B54FEA41044FEA430594EA39
:40214000050F08BF90EA020F1FBF54EA000C55EA020C7FEA645C7FEA655C00F0E2804FEA5454D4EB5555B8BF6D420CDD2C4480EA020281EA030382EA000083EA010180EAF2
:40218000020281EA0303362D88BF30BD11F0004F4FEA01314FF4801C4CEA113102D0404261EB410113F0004F4FEA03334CEA133302D0524263EB430394EA050F00F0A7803F
:4021C000A4F10104D5F1200E0DDB02FA0EFC22FA05F2801841F1000103FA0EF2801843FA05F359410EE0A5F120050EF1200E012A03FA0EFC28BF4CF0020C43FA05F3C018DB
:4022000051EBE37101F0004507D54FF0000EDCF1000C7EEB00006EEB0101B1F5801F1BD3B1F5001F0CD349085FEA30004FEA3C0C04F101044FEA445212F5800F80F09A8007
:40224000BCF1004F08BF5FEA500C50F1000041EB045141EA050130BD5FEA4C0C404141EB010111F4801FA4F10104E9D191F0000F04BF01460020B1FA81F308BF2033A3F147
:402280000B03B3F120020CDA0C3208DD02F1140CC2F10C0201FA0CF021FA02F10CE002F11402D8BFC2F1200C01FA02F120FA0CFCDCBF41EA0C019040E41AA2BF01EB0451AA
:4022C000294330BD6FEA04041F3C1CDA0C340EDC04F11404C4F1200220FA04F001FA02F340EA030021FA04F345EA030130BDC4F10C04C4F1200220FA02F001FA04F340EAA4
:402300000300294630BD21FA04F0294630BD94F0000F83F4801306BF81F480110134013D4EE77FEA645C18BF7FEA655C29D094EA050F08BF90EA020F05D054EA000C04BFDA
:402340001946104630BD91EA030F1EBF0021002030BD5FEA545C05D14000494128BF41F0004130BD14F580043CBF01F5801130BD01F0004545F0FE4141F470014FF00000B9
:4023800030BD7FEA645C1ABF194610467FEA655C1CBF0B46024650EA013406BF52EA033591EA030F41F4002130BD00BF90F0000F04BF0021704730B54FF4806404F1320443
:4023C0004FF000054FF0000150E700BF90F0000F04BF0021704730B54FF4806404F1320410F0004548BF40424FF000013EE700BF42004FEAE2014FEA31014FEA02701FBFBE
:4024000012F07F4393F07F4F81F06051704792F0000F14BF93F07F4F704730B54FF4607401F0004521F0004120E700BF50EA010208BF704730B54FF000050AE050EA0102ED
:4024400008BF704730B511F0004502D5404261EB41014FF4806404F132045FEA915C3FF4DCAE4FF003025FEADC0C18BF03325FEADC0C18BF033202EBDC02C2F1200300FA2E
:4024800003FC20FA02F001FA03FE40EA0E0021FA02F11444C1E600BF70B54FF0FF0C4CF4E06C1CEA11541DBF1CEA135594EA0C0F95EA0C0F00F0DEF82C4481EA030621EA79
:4024C0004C5123EA4C5350EA013518BF52EA033541F4801143F4801338D0A0FB02CE4FF00005E1FB02E506F00042E0FB03E54FF00006E1FB03569CF0000F18BF4EF0010E9A
:40250000A4F1FF04B6F5007F64F5407404D25FEA4E0E6D4146EB060642EAC62141EA55514FEAC52040EA5E504FEACE2EB4F1FD0C88BFBCF5E06F1ED8BEF1004F08BF5FEA5E
:40254000500E50F1000041EB045170BD06F0004646EA010140EA020081EA0301B4EB5C04C2BFD4EB0C0541EA045170BD41F480114FF0000E013C00F3AB8014F1360FDEBFB3
:40258000002001F0004170BDC4F10004203C35DA0C341BDC04F11404C4F1200500FA05F320FA04F001FA05F240EA020001F0004221F0004110EBD37021FA04F642EB060130
:4025C0005EEA430E08BF20EAD37070BDC4F10C04C4F1200500FA04F320FA05F001FA04F240EA020001F0004110EBD37041F100015EEA430E08BF20EAD37070BDC4F12005EE
:4026000000FA05F24EEA020E20FA04F301FA05F243EA020321FA04F001F0004121FA04F220EA020000EBD3705EEA430E08BF20EAD37070BD94F0000F0FD101F000464000DC
:4026400041EB010111F4801F08BF013CF7D041EA060195F0000F18BF704703F00046520043EB030313F4801F08BF013DF7D043EA0603704794EA0C0F0CEA135518BF95EAFE
:402680000C0F0CD050EA410618BF52EA4306D1D181EA030101F000414FF0000070BD50EA410606BF1046194652EA430619D094EA0C0F02D150EA013613D195EA0C0F05D1FD
:4026C00052EA03361CBF104619460AD181EA030101F0004141F0FE4141F470014FF0000070BD41F0FE4141F4780170BD70B54FF0FF0C4CF4E06C1CEA11541DBF1CEA1355DC
:4027000094EA0C0F95EA0C0F00F0A7F8A4EB050481EA030E52EA03354FEA013100F088804FEA03334FF0805545EA131343EA12634FEA022245EA111545EA10654FEA0026BD
:402740000EF000419D4208BF964244F1FD0404F5407402D25B084FEA3202B61A65EB03055B084FEA32024FF480104FF4002CB6EB020E75EB030E22BFB61A754640EA0C0017
:402780005B084FEA3202B6EB020E75EB030E22BFB61A754640EA5C005B084FEA3202B6EB020E75EB030E22BFB61A754640EA9C005B084FEA3202B6EB020E75EB030E22BF3E
:4027C000B61A754640EADC0055EA060E18D04FEA051545EA16754FEA06164FEAC30343EA52734FEAC2025FEA1C1CC0D111F4801F0BD141EA00014FF000004FF0004CB6E798
:4028000011F4801F04BF01430020B4F1FD0C88BFBCF5E06F3FF6AFAEB5EB030C04BFB6EB020C5FEA500C50F1000041EB045170BD0EF0004E4EEA113114EB5C04C2BFD4EB2C
:402840000C0541EA045170BD41F480114FF0000E013C90E645EA060E8DE60CEA135594EA0C0F08BF95EA0C0F3FF43BAF94EA0C0F0AD150EA01347FF434AF95EA0C0F7FF463
:4028800025AF104619462CE795EA0C0F06D152EA03353FF4FDAE1046194622E750EA410618BF52EA43067FF4C5AE50EA41047FF40DAF52EA43057FF4EBAE12E74A0011D2D4
:4028C00012F5001211D20DD56FF47873B3EB62520ED44FEAC12343F0004343EA505323FA02F070474FF00000704750EA013002D14FF0FF3070474FF000007047014B186834
:40290000704700BF6081FF1F0E4B70B51E460E4C0025E41AA410A54204D056F8253098470135F8E700F05EFD084B094C1E46E41AA4100025A54204D056F82530984701351C
:40294000F8E770BDF0330000F0330000F0330000F833000010B5431E0A44914204D011F8014B03F8014FF8E710BD03460244934202D003F8011BFAE7704700000EB400B5F4
:402980004FF402719CB0ADF814106FF00041049107914FF6FF711DAB02900690084853F8042BADF81610006802A9019300F06CF8029B00221A701CB05DF804EB03B0704787
:4029C0006081FF1F034613F8012B002AFBD1181A013870472DE9F0478E6882469E420C46914698463ED88A8912F4906F3AD02568096902236F1A656905EB450595FBF3F5E9
:402A00007B1C43449D4238BF1D4653050FD5294600F040FB064698B13A462169FFF79AFFA38923F4906343F08003A38113E02A4600F08EFB064670B92169504600F0DEFAF2
:402A40000C23CAF80030A3894FF0FF3043F04003A381BDE8F08726613E44266046466561ED1BA560464528BF464649463246206800F0A8FAA36800209B1BA36023681E4407
:402A80002660BDE8F08700002DE9F04F9DB003938B8980461C060D4616460DD50B695BB9402100F0F7FA2860286118B90C23C8F80030CDE040236B610023099320238DF881
:402AC0002930DFF89CB130238DF82A3037463C4614F8013B1BB9B7EB060910D003E0252BF9D02746F3E74B46324629464046FFF771FF013000F0A780099B4B4409933B780A
:402B0000002B00F0A08000234FF0FF3204930793059206938DF853301A930126052221784E4800F041FA671C049B38B14B4A3C46801A06FA00F018430490EFE7D90644BFB6
:402B400020228DF853201A0744BF2B228DF8532022782A2A03D0079A00210A200BE0039A111D12680391002A10DA524243F00200079204900BE027463B780134303B092B58
:402B800003D800FB02320121F5E701B107923B782E2B1ED17B782A2B0AD1039B02371A1D1B680392002BB8BF4FF0FF33059310E0002319460593781C0A2407463A780130D7
:402BC000303A092A03D804FB01210123F5E703B1059103223978224800F0E6F940B14023CBEB000003FA00F0049B013718430490397806221B487E1C8DF8281000F0D4F9D6
:402C000088B1194B33B9039B073323F007030833039314E003AB00932A46144B04A94046AFF3008007E003AB00932A460F4B04A9404600F093F8B0F1FF3F824603D0099B2E
:402C40005344099342E7AB895B0601D4099801E04FF0FF301DB0BDE8F08F00BFB0330000B6330000BA33000000000000D52900002DE9F04791461F460A698B680646934227
:402C8000B8BF1346C9F8003091F843200C46DDF8208012B10133C9F800302368990642BFD9F800300233C9F80030256815F0060510D104F1190A07E0012352463946304638
:402CC000C04701301AD00135E368D9F800209B1A9D42F1DB94F843302268003318BF012392060FD5E118302081F843005A1C94F845102244023382F8431003E04FF0FF3098
:402D0000BDE8F08704F1430239463046C0470130F4D02268D9F80050E36802F00602042A08BF5D1B2269A3680CBF25EAE57500259342C4BF9B1AED184FF000091A344D45C6
:402D400009D00123224639463046C0470130D5D009F10109F3E70020BDE8F0872DE9F04317460A7E85B06E2A984606460C460C9B01F1430E00F0AE8011D8632A22D009D83A
:402D8000002A00F0BB80582A40F0CA8081F84520834955E0642A1ED0692A1CD0C0E0732A00F0B08009D86F2A2ED0702A40F0B8800A6842F020020A603EE0752A24D0782A8E
:402DC0003AD0ADE01A6801F14205111D1960136884F84230A8E021681A6811F0800F02D0111D196008E011F0400F02F10401196002D0B2F9003000E01368002B3CDA2D2294
:402E00005B4284F8432037E021681A6811F0800F02D0111D196007E011F0400F02F10401196001D0138800E01368227E5C496F2A14BF0A2208221BE078225A4984F845205C
:402E40002268186812F0800F00F104051D6003D1550601D5038800E00368D00744BF42F0200222601BB9226822F0200222601022002084F8430001E049490A226568002DF7
:402E8000A56008DB206820F0040020602BB9002D7DD175460CE0002B79D07546B3FBF2F002FB1033CB5C05F8013D03460028F5D1082A0BD12368DA0708D5236962689A42E7
:402EC000DEBF302305F8013C05F1FF35C5EB0E0323612EE008681A6810F0800F496903D0101D1860136808E010F0400F02F104001860136801D0198000E01960002323617A
:402F0000754616E01A68111D1960156800216268284600F049F808B1401B6060636804E004F1420584F8422001232361002384F84330CDF800803B4603AA21463046FFF713
:402F400097FE013002D14FF0FF3026E023692A4639463046C0470130F5D023689B0710D5002504F1190907E001234A4639463046C0470130E7D00135E368039A9B1A9D42D7
:402F8000F2DBE068039B9842B8BF184605E00B7804F1420584F842308AE705B0BDE8F083C1330000D233000010B5C9B202449042034605D01C7801308C42F8D1184610BDE9
:402FC000002010BD884210B501EB020301D8421E0BE09842FBD28118D21AD34204D013F8014D01F8014DF8E710BD994204D011F8014B02F8014FF8E710BD000038B50546AD
:40300000002944D051F8043C0C1F002BB8BFE41800F0D4F81E4A1368114613B96360146030E0A3420DD92268A018834201BF18685B681218226063600C6023E0A24203D886
:4030400013465A68002AF9D118681918A1420BD12168014458188242196013D110685268014419605A600DE002D90C232B6009E021686018824201BF106852680918216004
:4030800062605C602846BDE8384000F098B838BDB481FF1F70B5CD1C25F0030508350C2D38BF0C25002D064601DBA94202D90C23336046E000F082F8234B1C681A46214690
:4030C000A1B10B685B1B0ED40B2B03D90B60CC18CD501EE08C420BBF63684B681360636018BF0C4615E00C464968E9E7174C23681BB9304600F052F820602946304600F033
:403100004DF8431C18D0C41C24F00304A0420DD12560304600F053F804F10B00231D20F00700C31A0ED05A42E25070BD211A304600F034F80130EBD10C233360304600F023
:403140003EF8002070BD00BFB481FF1FB081FF1FF8B5074615460E4621B91146BDE8F840FFF798BF1AB9FFF749FF2846F8BD00F027F885420ED929463846FFF78BFF0446BF
:4031800050B131462A46FFF7E5FB31463846FFF735FF01E03046F8BD2046F8BD38B5064C0023054608462360FDF752F9431C02D1236803B12B6038BD0C83FF1F7047704742
:4031C00051F8040C0028BEBF091851F8043CC018043870470000000073706565645F4D313A20256C640D0A0073706565645F4D323A20256C640D0A00004F004024000051AF
:403200000040100020510040100040510040300000000140001000140140000800400140000A004C014000020050014020000000605200405C080048060000003031323399
:40324000343536373839414243444546000000000100000058320000010000009C330000000000000000000001000000703200000100000058330000030000009C32000017
:40328000000000000000000000000000000000000000000098320000020A000000008103080002000100820240000A000100030240000A0002030000040309042C03430000
:4032C0007900700072006500730073002000530065006D00690063006F006E0064007500630074006F0072001003550053004200550041005200540038034300440043006B
:40330000200043006F006D006D0075006E00690063006100740069006F006E00200049006E007400650072006600610063006500260343004400430020004400610074003A
:403340006100200049006E007400650072006600610063006500000009024300020101803209040000010202010305240010010424020205240600010524010001070581D3
:403380000308000A09040100020A0000040705820240000007050302400000001201000202000008B40432F20100010280014300232D302B2000686C4C0065666745464707
:4033C000003031323334353637383941424344454600303132333435363738396162636465660000F8B500BFF8BC08BC9E4670474D000000CD040000F8B500BFF8BC08BC48
:403400009E4670472900000018340000C880FF1FA0000000A801000000000000010000001083FF1F0000E02EC05D00001800000000366E0100C2010000000800C2010000A5
:4034400000080000A120000000000200000000000000000000000000000000000000000000000000000000000000000000000000AE330000000000000000000000000000A0
:403480000000000000000000000000000000000000000000000000000000000000000000000000000000000000000000000000000081FF1F0000000000000000000000006D
:4034C00000000000000000000000000000000000000000000000000000000000000000000000000000000000000000000000000000000000000000000000000000000000CC
:40350000000000000000000000000000000000000000000000000000000000000000000000000000000000000000000000000000000000000000000000000000000000008B
:40354000000000000000000000000000000000000000000000000000000000000000000000000000000000000000000000000000000000000000000000000000000000004B
:40358000000000000000000000000000000000000000000000000000000000000000000000000000000000000000000000000000000000000000000000000000000000000B
:020000040003F7
:0200000480007A
:4000000001450040064F004006520040066400405600014036010140380201403A03014040040140370501403C06014040070140270801401D090140010B0140040D0140D8
:40004000431401403C1501405F1601404B17014004190140031B014009400140064101400C420140084301400244014006450140024601400B4701400B48014010490140B6
:40008000084C0140054D014006500140025101407E0201100A4B0D10164B1980224B08C009401CC0781979157C4075037903816F820F830F876F01050601070809060C0186
:4000C0000D0319062E0131083401370739803E104063410249FF4AFF4BFF4DA04F0150185280580459045A045B045F016040628064406540668068406A806C406D206E8077
:40010000830188048D028E029C089D019E01A408A604AC08AF02B002B102B208B404B601B701B808BE14BF41C063C102C52CC630C74EC83BC9FFCAFFCBFFCDAFCE07CF01BB
:40014000D018D40FD804D904DA04DB04DF05E040E280E440E540E680E840EA80EC40ED20EE800084060207040F0210021580162019101A081C101D481E4820802140228086
:40018000230127822F0233103540380639803B103E403F02401842044408450849104E044F06562A57025D105E085F826608670470027E8085108741C0C5C280C4A1CA1018
:4001C000CC14CE9FD066D224D6F0D860DE8001070720090C0B010D0B0E020F04100211081301170F1802190C1B021C011F2024012B102D203202330F3510360137203880D4
:400200003E043F40540F5604580459045B045F018101840185018E018F029101950498019901A704AB01AF04B401B503B704BE10BF40D40FD604D804D904DB04DF01018800
:40024000054008200E440F02162019101D401E1020042240250426402714282429802E6031043311340435403711388239093C203D803E043F11580859105A805B025D017E
:400280005E9863406502924093019406960497509A209D029F14A280A301B102C085C2D2C420CA3ECCF7CEFBD6FFD881E240E620EA8001FD0302040105CF060207300810F4
:4002C00009940B600C010E0210071530160417C9199E1A071B601C101D732007260828042B0F2E203220340F35FF3610388039023F11580459045F0184FE850A86018705DC
:40030000880E890C8AF08B038C968D0F8E68907F9103930C95059601970A98C59A3A9D07A0A3A25CB0FFB70FBE01D804D904DB04DF0102040311045809800A140B400D0883
:400340000E400F041004128113081502199C1A041B041E802388240225402910300432803310340436803701380239283C203D883E103F406F068302878090049482950824
:4003800096049B109C2C9D8C9F03A104A280A410A540AA84C0E7C27FC41FCA04CCDECE77010704010501070208010D040E01120213041708180119072001250127022A04E9
:4003C0002B0732033404350F580459045F0185188601870488A389108A5C8B028C0E8EF08F1E9118930294969668972099209CFE9E01A07FA301A4C5A516A63AA708A90127
:40040000AD0EB0FFB120B51EB701BE01BF41D40FD804D904DB04DF0500A40458084409400E800F041108128015021604172018801D1822412304270C28102A012B052E2024
:400440002F103008311032023410360A38503B243C403F064420462047085A8A5B20610462107B01900494D8952A964097049B109C2C9E059F03A144A2C0A304A410A588E2
:40048000B704C0E7C255C45CCA6FCCE7CEDED60FD806DE08E202EE100D020F0412011504170219021B04250227042A022F0130023301340135063B20580459045F01820164
:4004C000950297019E02A101A302A901AB02AD01AE04AF02B002B303B401B604BB08D804D904DB04DF0101020A010E401002172019621A011E401F202108272829622D80E4
:400500002F20310837283E406801692088018910A002C008C211C441CA5DCC62CE10E202A002A002B002E240E6200518070208030A0C0B1E0C0C0D0E0E03100711181304C0
:40054000180F1E201F012101240A25162605270828102C052D102E0A2F023010311E3301340F36203E013F04580459045F018001820284018602870888088A048C048E0826
:40058000930198049A089B049C019E02A002A201A404A628A702AA10B003B104B20CB301B420B508B610B702BA0AD804D904DF01001002020410075209800A440B400E0A6D
:4005C0001160130416801728180819011A041B601C501E0A1F1021012206275A2A802B602F10318032023601371038103B443C403D403E803F08830487208D01924093047C
:40060000945895029608A190A602A720A804A910AA20AB02B110C0F3C2CBC477CA4BCCA9CE4EE640E801EA80059E076009940B600D300FC911CF1330170F240125FD2702E2
:400640002D7333FF34013E103F044056410349FF4AFF4BFF4DA04F015018580459045A045B045F016040628064406540668068406A806C406D206E808410850C87028B0F00
:400680008C0C9007950896309701980C990C9B019D07A001A10BA304A40AA801AE10B00EB220B30FB401B610B822BE50C012C103C50EC6C3C742C83DC9FFCAFFCBFFCDAFF2
:4006C000CE07CF01D018D280D804D904DA04DB04DF01E040E280E440E540E680E840EA80EC40ED20EE800108020209080A400B04101812401340162019281A451B411F10B6
:4007000020202104260828402C102E402F203004328033103602370839283C503F0442054304470849044D204F805008518052556D106F0273408302840887018B10912039
:4007400093049458950A964898449B1C9C189D049E159F02A108A280A418A580A60AA701AC04B040B110B301C005C20EC42FCA51CCCECE76D04ED230E220EA089D80AF08BB
:40078000B108EE2089809D80E801314032023520370139408520CCF0CE10E6408B018D4095409F01A602B14057405A045E046102834085028604A602D440D6C0D840E260B2
:4007C0001A101E408602A008A602B408C630E2401501C40488018F01B101E202E604EE0197029C0109020B020C0185028840894097029C01C20EE001E40450085401570811
:400800005A4082208B089250A008D4E0D620E2200B020F0472207402830187048C029A20AA50B001C2C0DC80DE20E040E420E8A05F0164407D809840A140D601D801DE04B5
:4008400011018901AB01C408E601000108010A010C0110011A0100AF01020000050400006000000060070700070000004000001F1F001F00C000000000CBCB00C0000000EC
:40088000C000000000000000000000000000000000000000000000000000000000000000000000000000000000000000000000000000000000000000000000000000000078
:4008C00000000000000000000000000000000000000000000000000000000000000000000000000000000000000000000000000000000000000000000000000000000000F8
:4009000000000000000000000000000000000000000000000000000000000000000000000000000000000000000000000000000000000000000000000000000000000000B7
:400940000000000000000000000000000000000000000000000000000000000000000000000000000000000000000000000000000000000000000000000000000000000077
:400980000000000000000000000000000000000000000000000000000000000000000000000000000000000000000000000000000000000000000000000000000000000037
:0200000490006A
:0400000000004005B7
:0200000490105A
:04000000BC90ACAF55
:0200000490303A
:02000000ED51C0
:0200000490402A
:4000000000000000000000000000000000000000000000000000000000000000000000000000000000000000000000000000000000000000000000000000000000000000C0
:400040000000000000000000000000000000000000000000000000000000000000000000000000000000000000000000000000000000000000000000000000000000000080
:400080000000000000000000000000000000000000000000000000000000000000000000000000000000000000000000000000000000000000000000000000000000000040
:4000C0000000000000000000000000000000000000000000000000000000000000000000000000000000000000000000000000000000000000000000000000000000000000
:0200000490501A
:0C00000000012E16106900012E2BFDBA25
:00000001FF