:400000000080002011000000350400003504000008B5044B1A6803F53F5302331A6000F029FA00BFFA46004010B5054C237833B9044B13B10448AFF300800123237010BDE2
:400040006881FF1F000000009C310000084B10B51BB108490848AFF300800848036803B910BD074B002BFBD0BDE81040184700BF000000006C81FF1F9C310000C880FF1F28
:40008000000000000000000038B51F4B1B78042B03D001331C4A13702DE000F065FA1B4C206001F0C5FE054660602068404202F071F913A3D3E9002302F0D2F90022144BFC
:4000C00002F0CEF902F0DEFBA060684202F062F90BA3D3E9002302F0C3F900220C4B02F0BFF902F0CFFBE0600123074A13702374002000F04FFA01F02DFE38BDAFF3008010
:40010000C3F5285C8F422040CC80FF1F8481FF1F0000D03F10B5044600F096FE0028FBD0002384F83F30212384F83E30204602F02DFC81B2204600F05FFE10BD08B562B6EB
:4001400000F0F2F900F0FCFA00F052FC3C2000F009FC3C2000F0AEFA642000F0A5FA642000F0FAFB0121002000F04CFD00F082FD0028FBD000F04AFA01F098FE01F030FE08
:40018000094801F067FF094B1B7C012BFBD1074C074DA2680749284602F0D4FB2846FFF7B9FF00232374EEE7890000008481FF1FB881FF1FA0310000FEE700BFF0B400229B
:4001C000174611E050F82760F3B226F0FF0608E001EB420511F812406D78A5550132013BDBB2002BF4D10137262FEBD9F0BC7047064B1B78DBB203F00701054A11701B09CD
:40020000013213704422034B1A707047CF0100496E5800407658004008B50A46002102F088FB08BD38B50122284B1A801823284A13701721023211800232137033210232F5
:400240001180023213700622224B1A705222A3F580731A70204B1B78DBB2204A13704FF4E1621F4B1A8041F25122023B1A80002419250CE01B4B1B7803F0010343EA44045C
:4002800004F003044FF4F07001F0F2FE013D0DB1032CEFD115B90320FFF78EFF124A4FF48073138007231370002310490B7048200231087013700532137002220C4B1A7042
:4002C0000C4A137843F00703137038BD8040004082400040004300400F010049A14600402242004025420040044000400640004001400040A243004008B502F00FFB08BDEA
:4003000038B572B6354A137843F00403137000240CE0334D630019194A0011462A44084691882858FFF778FF0134E4B2062CF0D92C494FF09040FFF741FF2B4A2B4B1A6074
:40034000A2F5802203F5A0531A60294A137843F0020313701032137843F002031370254C237843F040032370A2F58632513A137843F0100313700A221F492048FFF7BCFFAE
:4003800008221F491F48FFF7B7FF0A221E491F48FFF7B2FF08221E491E48FFF7ADFF08221D491E48FFF7A8FF08221D491D48FFF7A3FF1D4A137843F0080313701B4D61239F
:4003C0002B70FFF72FFF81232B70FFF711FF0E2221461748FFF790FF38BD00BFE8460040B03100009C000048040404845800014003500140A0430040F40A004800510040E0
:40040000000B0048C2510040080B0048F0510040140B0048125100401C0B004822510040240B0048325100402243004000480040B043004008B502F045FA03680C2B00D113
:40044000FEE7FEE708B5094B1A681044084BC31A802B02DC054B186005E002F033FA0C2303604FF0FF32104608BD00BFD080FF1FD082FF1F08B5104E104D16E029686B68BA
:40048000AC68002204E051F8040B43F8040B0432A242F8D1E868002203E0002143F8041B04328242F9D11035013E002EE6D102F00FFAFFF743FEFEE701000000A8330000AD
:4004C00008B5104A104B1A60104A136843F40073136000230AE0032B03D80D4A52F8231000E00C490C4A42F8231001332F2BF2D90A4B1A780A4B1A70074A0A4B1A60FFF707
:40050000FFFE08BD0004FA050CED00E014ED00E000000000350400000080FF1FBC760040C080FF1F08ED00E0054A137843F0020313701032137843F002031370704700BF2D
:40054000A243004008B50122054B1A600549002000F08AF90721002000F09AF908BD00BF80E100E04106000010B50124064B1C6000F00EF9A0F5004000B2044B1B68044A9F
:400580001460184410BD00BF80E100E09881FF1F00E100E038B505460124054B1C604FF4004000F0EFF8034B1D60034B1C6038BD80E100E09881FF1F00E100E0024B187883
:4005C00000F00F00704700BF6565004040F00700014B1870704700BF8565004008B50F20FFF7F4FFFFF7EAFF01F04AFD054A137843F01003137001F047FD0122024B1A6023
:4006000008BD00BF9565004000E100E008B500F011F94FF4004000F0B5F80022064B1A60064B1B7823B9FFF78DFF0122034B1A70FFF7D4FF08BD00BF9881FF1F9581FF1F82
:400640000D4B1B78DBB213F0010F06D00B490A6802F5FF427F320A6007E013F0020F04D006490A68A2F500420A6013F0040F02D00022024B1A607047656500409881FF1F64
:40068000084A137843F0010313701032137843F00103137002F64D32137843F001031370704700BFA3430040014B1880704700BF044F0040014B1880704700BF064F0040E8
:4006C000014B1870704700BF034F004008B5194A137843F0020313700232137803F08F0343F010031370144B1A7802F0CF021A701A7842F030021A701A7802F0F0021A70ED
:400700001A7842F00F021A706420FFF7CDFF5020FFF7D0FF0020FFF7D3FF084A137843F00103137002F65E32137843F00103137008BD00BF004F00400B4F0040A3430040C0
:4007400008B5054B1B7823B9FFF7C0FF0122024B1A70FFF795FF08BD9C81FF1F024A137843F080031370704776650040014B1870704700BF84650040014B1878704700BF1D
:4007800064650040014B1880704700BF0C6A0040024B1B78024B188880B27047066500408C6A0040014B188880B270478C6A0040014B1880704700BF4C6A0040014B18804A
:4007C000704700BF6C6A004008B501E0FFF7EAFFFFF7D2FF10F0400FF8D108BD08B5134B1A7802F0F8021A701A7802F0FC021A70FFF7EAFF4FF40040FFF7DAFF4FF4004069
:40080000FFF7C0FF0020FFF7B1FFFFF7B5FF4FF40040FFF7D3FF01F033FC054A137843F01003137001F030FC08BD00BF766500409465004008B5054B1B7823B9FFF7CEFF51
:400840000122024B1A70FFF789FF08BD9D81FF1F01BE704708B5034B1B7A00FB03F001F007FC08BDD480FF1F70B504460E46074B1D681F2802D90020FFF7EAFF04F01F04FE
:40088000103455F8240045F8246070BD08ED00E038B504460D46072902D90020FFF7D8FF1F2C02D90020FFF7D3FF04F01F0000F1604000F564406D01EDB2057038BD00BFBD
:4008C000134B1B78DBB20360124A127843EA02230360114A127843EA024303600F4A127843EA026303600E4B1B78DBB243600D4A127843EA022343600B4A127843EA0243A7
:4009000043600A4A127843EA02634360704700BF0301004904010049EC4600400201004901010049000100490501004906010049084A137843F0020313701032137843F066
:400940000203137002F65932137843F001031370704700BFA3430040014B1880704700BF104F0040014B1880704700BF124F0040014B1870704700BF0F4F004008B5194A8F
:40098000137843F0020313700232137803F08F0343F010031370144B1A7802F0CF021A701A7842F030021A701A7802F0F0021A701A7842F00F021A706420FFF7CDFF502011
:4009C000FFF7D0FF0020FFF7D3FF084A137843F00203137002F66A32137843F00103137008BD00BF0C4F0040174F0040A343004008B5054B1B7823B9FFF7C0FF0122024B4D
:400A00001A70FFF795FF08BD9E81FF1FF8B501F037FB0646404A137843F0010313701032137843F00103137001273C4B1F700225943B1D7002F5E2521B32137803F07F03F5
:400A400013700020FFF706FF354C237803F0F9032370344A137803F0DF03137023783B4323703846FFF7F6FE2820FFF7F3FE2E4B1A7802F07F021A701A7802F0BF021A70BF
:400A800023782B4323702846FFF7E4FE237843F0040323700023254A137001321370304601F0F2FA07211720FFF7F2FE20491720FFF7DAFE07211820FFF7EAFE1D4918203F
:400AC000FFF7D2FE07211520FFF7E2FE1A491520FFF7CAFE07212846FFF7DAFE17492846FFF7C2FE07210320FFF7D2FE14490320FFF7BAFE07210420FFF7CAFE11490420F8
:400B0000FFF7B2FE07210C20FFF7C2FE0E490C20FFF7AAFEF8BD00BFA54300409D6000409443004012600040F851004084600040C9130000B1110000C513000025130000E7
:400B40005513000089130000D113000008B5214B18700023204A1370204A1370204A1370204A1370204A1370204A1370204A1370204B4FF400021A604FF080721A604FF426
:400B800000121A6004221A6008221A6010221A6011B1012906D00BE0174A137803F0FE0313700AE0144A137843F00103137004E0114A137843F00103137003220F4B1A708F
:400BC0008022203B1A70012001F052FA04220C4B1A7008BDA382FF1FA282FF1F1482FF1F1582FF1F1682FF1FA682FF1F1782FF1F1382FF1F00E100E00960004028600040BE
:400C00001260004038B504460D46064B1B7823B9FFF7FCFE0122034B1A7029462046FFF795FF38BD9F81FF1F00230A4A13700A4A13700A4A13700A4A13700A4A13700A4A91
:400C400013700A4A13700322094B1A708022203B1A707047A282FF1F1482FF1F1582FF1F1682FF1FA682FF1F1782FF1F1382FF1F28600040014B1878704700BF1582FF1FF9
:400C800000EB40008300024A13445878704700BF3482FF1F431EDBB2072B3CD8F0B4074600EB4004A3001C4C2344DB889BB2C3F500739A4208D900EB400293002344DA88E2
:400CC00092B2C2F5007292B200EB4004A300124C2344DB7843EA1223104D04012E192B55D3B2737039B909E0CE5C3D010C4C665501339BB200E000239A42F5D8420002445B
:400D00009300054A134400225A705A79D2B20001044B1A54F0BC70473482FF1FFC5F004078600040FE5F004010B4FF2400230EE0094AD25C02EB42029100084A11448A7A0C
:400D4000D2B2824201D11C4602230133DBB2012BEED9204610BC70470082FF1F3482FF1F10B5204C2079FFF7DFFF237813F0800F0ED06378DBB2212B2FD11B4B07221A803B
:400D8000C0EBC000194A1044586000F07FFA10BD144B5B78DBB2202B02D0222B10D01EE0114A07231380C0EBC00310490B4453600F4A135C43F00103135400F08FFA10BD8F
:400DC000084B9B780B4A22F81030094A135C43F00203135400F018F910BD002010BD002010BD00BF006000402482FF1FE480FF1F0882FF1F0C82FF1F70B506460D460F4BBE
:400E00001B780F4AD45CE4B204EB440293000D4A13441B899BB28B4209D204EB44029300084A13441D89ADB20020FFF711FD2A4631462046FFF72EFF70BD00BFA081FF1FBC
:400E4000F881FF1F3482FF1F08B5034B1B78034AD05CFFF715FF08BDA081FF1FF881FF1FC37803F0030390F9020000280FDA032B06D002F001030B48C15442F001020EE0F6
:400E8000C2F380030848C15442F0040207E0032B05D0C2F340030548C15442F002021046704700BFF881FF1F0082FF1FFC81FF1F1D4B19781D4A13889BB20B449BB21380CE
:400EC00000220FE01A494B681B78DBB2194883544B6801334B600132D2B20B889BB2013B9BB20B80124B1B889BB20BB1072AE9D90D4B1B78DBB2082B00D05AB10E490B78DA
:400F000083F080030B700F210C4B197002210C4B197004E0022309490B7009490B70094B1A70014B1A7070471382FF1FA082FF1F2482FF1F006000401882FF1F1282FF1F5E
:400F4000A282FF1F3082FF1F0222074B1A708022064B1A700F22064B1A700023054A1370054A137001207047A282FF1F1882FF1F1282FF1F1382FF1F3082FF1F08B5FFF755
:400F800097FF08BD10B4194B197801F00F010239C9B2174A13889BB20B449BB21380002011E0144A5468144B1B5CDBB223705368013353600130C0B20139C9B213889BB2EB
:400FC000013B9BB213800B4B1B889BB20BB10029E7D10A4B19700A4A137883F0800313700B22084B1A7010BC704700BF29600040A082FF1F2482FF1F006000403082FF1F33
:401000001882FF1F1282FF1F0623064A1370064A13708022054B1A700022054B1A700120704700BFA282FF1F1282FF1F1882FF1F3082FF1F064B9B6843B1054B9A681070D2
:401040009A6804490988518000229A60704700BF2482FF1FA082FF1F08B5134B1A78D2B21A701B78DBB213F0800F02D00F4A137008BD0220FFF7DEFF0D4B1B7803F0600313
:40108000202B05D0402B06D043B900F093FC06E000F0FEFF03E000F037FE00E0002010B90322024B1A7008BD286000401282FF1F0060004008B5094B1978094A13889BB2F8
:4010C0000B449BB213800022064B1A700120FFF7B1FF0322044B1A7008BD00BF1382FF1FA082FF1FA282FF1F1282FF1F08B50B4B1B78DBB2042B06D0062B07D0022B0BD14B
:40110000FFF7D8FF08BDFFF73DFF08BD0320FFF791FF0322024B1A7008BD00BFA282FF1F1282FF1F08B50022044B1A700120FFF781FF0322024B1A7008BD00BFA282FF1FF8
:401140001282FF1F08B50B4B1B7813F0FF0F07D0084A137843F0800307490B70002313700022064B1A700120FFF764FF0322044B1A7008BDA682FF1F08600040A282FF1FC1
:401180001282FF1F08B5094B1B78DBB2042B06D0062B07D0022B07D1FFF7F0FE08BDFFF7C1FF08BDFFF7CEFF08BD00BFA282FF1F08B5284B1B78DBB213F0100F48D013F000
:4011C000800F0CD003F00F03012B16D1FFF744FF214B1B7813F0800F11D1012312E013F0400F03D0FFF7CEFF01230BE013F0200F07D0FFF77BFF012304E0002302E000230A
:4012000000E0002323B3134B1B7813F0800F1FD1124B1B78124A12781343124A13701278D2B2934214D10C4B1B78DBB2094A127812F0800F07D1084B1B78DBB2054A13708D
:40124000137803F00F03044A1278D2B29342EAD108BD00BF286000401282FF1F1882FF1F3082FF1F296000400022064B1A80064B9B682BB1044A916800230B7092685380B4
:40128000704700BFA082FF1F2482FF1F08B50F4B1B889BB213B9FFF757FE15E002220C4B1A7000220B4B1A70FFF7DEFF0A4AD179937943EA0123054A128892B2934201D2F7
:4012C000024A1380FFF7F4FD012008BD2482FF1FA282FF1F1882FF1F0060004008B504220B4B1A7080220B4B1A70FFF7BDFF0A4AD179937943EA0123084A128892B29342ED
:4013000001D2064A13800B22054B1A70012008BDA282FF1F1882FF1F006000402482FF1F1282FF1F0122094B1A700F3B9B7C084B1B7B03F00303934204D0054AD37B83F0FD
:401340008003D3730122024B5A7370470B6000403482FF1F02220A4B1A700F3B93F82230084B1B7E03F00303012B04D0054AD37E83F08003D3760122024B5A76704700BF8D
:401380000B6000403482FF1F04220C4B1A700F3B93F832300A4B93F8243003F00303012B06D0074A92F8273083F0800382F827300122034B83F82520704700BF0B600040F6
:4013C0003482FF1F704700BF08B5FFF72DFC08BD08B500F013FD08BD70B588B0054603AC174E0FCE0FC43368237035B322232B7003236B7001A8FFF763FA002402231AE0DE
:4014000008AA224412F81C2C08A901EB121111F8141CE954581C00212954981C02F00F0208AE324412F8142C2A54DA1CA9540134E4B20433DBB2212BE2D908B070BD00BF22
:40144000DC31000010B401233EE019461A010C242148845403EB4300820020480244527912F0FF0F13D003EB430082001B480244127912F0800F04D01801194A024494703D
:401480000AE01801164A02440820907004E01801134A0244802090704800084482000F480244D488E4B208010B4901448C71D088C0F30720C871D088C0B20871D288C2F31A
:4014C00007224A710133DBB2082BBED9FF22054B1A7010BC704700BF706000403482FF1FFC5F00400A600040074B1A78074B03EBC2035B681A7C824204D9C00010301844D8
:401500004068704700207047A382FF1FF0310000F8B5404B1B7813F0FF0F79D03D4B18780138C0B2FFF7E0FF047AC2683A4B1878C0B200236AE01178884264D13749095C4B
:40154000C9B25578A9425ED1917801F07F01D67806F00306DFF8C8E04D000D44AF000EEB07054FF0000C85F803C092F802C085F804C092F803C00EF807C097882F8192F9E5
:401580000250002D0DDA012E01D1072700E00D274E000E44B500224E35446F7101266E700CE0012E01D1052700E009274E000E44B5001B4E35446F7100266E70DFF868E0FC
:4015C0000F010EEB07060125B57001FA05F529448D00134929440D89C5F307250EF807500D89EDB27570CE88F6B20E4D3D44AE71CE88C6F30726EE71CE88F6B22E71C9885F
:40160000C1F30721697108320133DBB2A34292D3F8BD00BF1582FF1F1682FF1F2082FF1F3482FF1F70600040FC5F0040034B1A78034B03EBC2035868704700BFA382FF1F37
:40164000F031000008B5084B18780138C0B2FFF74BFF30B142681279023200EBC203586808BD002008BD00BF1582FF1F2DE9F047002310E0724D5900CA189600AC1900220F
:40168000AA55A270E2702281A272627034462C4462710133DBB2082BECD940B90AE000226849CA546849CA540133DBB200E00023012BF4D9654B1B7813F0FF0F00F0BD80E7
:4016C000624B18780138C0B2FFF70EFF80464368DB7913F0400F05D05D4A137843F00103137004E05A4A137803F0FE03137098F808704FF0000A01266FE0D8F80C50002486
:4017000067E0AB7803F07F039E425FD1314606EB460083004A4803441B899BB2A888834206D206EB460E4FEA8E03454A134418812B784448C35CDBB26878834246D195F840
:4017400002C0DFF8FCE04B000B4498000EEB000383F804C0EB780EF80030EB7803F0030395F90200002813DA012B02D14FF0070901E04FF00D09DFF8C8E04B0003EB010CA4
:401780004FEA8C00704480F805900121417012E0012B02D14FF0050901E04FF00909DFF8A0E04B0003EB010C4FEA8C00704480F8059000214170AB790A2B01D0022B05D13E
:4017C000524631462846FFF74BFB824608350134E4B2BC4295D30136F6B2082E8DD9D8F80C0000220CE0837803F07F0310F8084B03EB43039900124B19448C720132D2B28E
:40180000BA42F0D3FFF71EFF124B1860002301210FE00B4D4A00501884002C44E380228992B213449BB203F0010213449BB20131C9B20829EDD9FFF705FEBDE8F08700BFC7
:401840003482FF1F2082FF1F1082FF1F1582FF1F1782FF1F1C82FF1F08B5154B1B7903F07F035A1ED2B2072A20D8590019448A0010490A44917841F0010191700021D1702B
:40188000517841F002015170127912F0800F05D01B01094A1A448D23937004E01B01064A1A4489239370FFF7AFFB08BD002008BD006000403482FF1FFC5F0040274B1B793D
:4018C00003F07F035A1ED2B2072A44D810B5590019448A0022490A44917801F0FE0191700021D1701F4C1801215C01F07F012154517801F0FD015170127912F0800F13D0B1
:4019000003EB43018A0016490A445278D2B2012A04D1224602440C23937019E01B01114A1A440D23937013E003EB43018A000C490A445278D2B2012A05D11B01094A1A44A1
:401940000823937004E01B01064A1A4409239370FFF75AFB10BD0020704700BF006000403482FF1FFC5F004010B50E4B1C79E4B20D4B18780138C0B2FFF7B6FD43681B79DB
:401980009C4201D9022C0AD8084A135DDBB208490B55044B9B78DBB21355012010BD002010BD00BF006000401582FF1F2082FF1F1082FF1F10B59C4B1B78DBB200219B4AD7
:4019C000118013F0800F00F0AD80974A5278D2B20A2A00F27481DFE812F06900720172017201720172010B007201920072019A008D4BDB78DBB2012B09D1FFF717FE42685C
:401A00008A4B5A6012221A80FFF740FC10BD864BDB78DBB2022B13D1834B9878FFF764FD002800F04E814268804B5A605A68D1785A68927842EA01221A80FFF727FC10BD97
:401A4000794BDB78DBB2032B05D02CE00A7811440133DBB201E000237549734A9278D2B2934203D20A7812F0FF0FEFD16E4B9B7813F0FF0F0BD06C4B9B78DBB26D4A127CBE
:401A8000934204D16C4C2046FFF7A6FC21460B7813F0FF0F00F017810B78644A13805160FFF7F4FB10BD00F0F3FA10BD13F0030317D0022B40F009815C490B805A4B1B7932
:401AC00003F07F0303EB43039A005C4B1A449278D2B25B4B1A7000225A704B60FFF7D6FB10BD524902230B80564B1A78D2B2544B1A7000225A704B60FFF7C8FB10BD4B4BD7
:401B000001221A80504A5A60FFF7C0FB10BD474A01231380444B1B794C490B445360FFF7B5FB10BD404A5278013A0A2A00F2CF80DFE812F04C00CD009800CD000B00CD007E
:401B4000CD00CD001300CD003000374B9B78DBB23F4A1370FFF758FA10BD334B9B7803F0FF041BB1601EC0B2FFF7BEFC04B110B9002C40F0AE80344B1B78DBB29C4206D02A
:401B8000314B1C700120334B1870FFF76FFDFFF73BFA10BDFFF7E8FE002800F09C80224A1379DBB21279D2B22B490A702B4AD25CD2B22649CB5CDBB29A4204D00122254B7D
:401BC0001A70FFF7A5FCFFF71FFA10BD03F00303012B17D04BB1022B7FD1134B9B7813F0FF0F7CD1FFF76AFE10BD0F4B9B78DBB2012B76D1134A137803F0FD031370FFF7A8
:401C000003FA10BD084B1B79DBB2012B6BD8064B98781B79DBB21249CA5C22EA0002CA54FFF7F2F910BD00BF006000402482FF1F583200003C330000A882FF1F3482FF1FE2
:401C4000A481FF1F1782FF1F1582FF1F2082FF1FA682FF1F1482FF1F1682FF1F1082FF1FA482FF1F03F00303012B17D04BB1022B3BD1224B9B7813F0FF0F38D1FFF7ECFD97
:401C800010BD1E4B9B78DBB2012B32D11C4A137843F002031370FFF7B7F910BD174B1B79DBB2012B27D8154B98781B79DBB21549CA5C22EA0002CA54FFF7A6F910BD00208F
:401CC00010BD002010BD002010BD002010BD002010BD002010BD002010BD002010BD002010BD002010BD002010BD002010BD002010BD002010BD002010BD00BF00600040C2
:401D00001782FF1FA482FF1F044B1B7813F0800F01D0024B5B780020704700BF00600040084A137843F0040313701032137843F00403137002F66532137843F00103137015
:401D4000704700BFA3430040014B1870704700BF1B4F0040014B1878704700BF1B4F0040014B1880704700BF1C4F0040014B1880704700BF1E4F004008B5164A137803F030
:401D8000010313700232137803F0FC031370124B1A7802F0CF021A701A7842F030021A701A7802F0F0021A701A7842F00F021A700A4A137843F0010313704FF6FF70FFF70A
:401DC000CFFF4FF6FF70FFF7D1FF0820FFF7BCFF08BD00BF184F0040234F0040194F004008B5054B1B7823B9FFF7C6FF0122024B1A70FFF795FF08BDA681FF1F024B18789B
:401E0000C0F38010704700BF8F45004008B50222054B1A6005490120FEF726FD07210120FEF736FD08BD00BF80E100E0E11E000010B50224064B1C6000F08CF8A0F500406D
:401E400000B2044B1B68044A1460184410BD00BF80E100E0A881FF1F00E100E0024B187800F00F00704700BF6364004040F00700014B1870704700BF8364004008B50F20FE
:401E8000FFF7F4FFFFF7EAFF00F0FAF8054A137843F01003137000F0F7F80222024B1A6008BD00BF9364004000E100E008B500F0A3F84FF4004000F047F80022064B1A60A8
:401EC000064B1B7823B9FFF7A1FF0122034B1A70FFF7D4FF08BD00BFA881FF1FA781FF1F0D4B1B78DBB213F0010F06D00B490A6802F5FF427F320A6007E013F0020F04D06E
:401F000006490A68A2F500420A6013F0040F02D00022024B1A60704763640040A881FF1F024A137843F080031370704773640040014B1870704700BF80640040014B18789F
:401F4000704700BF60640040014B1880704700BF14680040024B1B78024B188880B270470A64004094680040014B188880B2704794680040014B1880704700BF54680040CA
:401F8000014B1880704700BF7468004008B501E0FFF7EAFFFFF7D2FF10F0400FF8D108BD08B5134B1A7802F0F8021A701A7802F0FC021A70FFF7EAFF4FF40040FFF7DAFF2A
:401FC0004FF40040FFF7C0FF0020FFF7B1FFFFF7B5FF4FF40040FFF7D3FF00F051F8054A137843F01003137000F04EF808BD00BF736400409064004008B5054B1B7823B991
:40200000FFF7CEFF0122024B1A70FFF789FF08BDAC81FF1F024B1B68C3F88C00704700BF08ED00E04001C0B2014B1870704700BF13E400E04FF40022014B1A60704700BF7E
:4020400000E100E04FF40022014B1A60704700BF80E100E010B50446FFF7F4FF2046FFF7D9FF0720FFF7DEFFFFF7E4FF10BD00BF0230800803D000BF01380046FCD17047E3
:40208000EFF3108072B6704780F31088704700BF08B5144B1B7803F00303012B02D0022B04D00FE00F4B1B79DBB20CE00D4B1B7903F07F0303EB43039A000B4B1A44937A61
:4020C000DBB200E00023022B07D8084A1268D35C022B04D1FEF744FE08BD002008BD002008BD00BF006000403482FF1F1C82FF1F81F0004102E000BF83F0004330B54FEA6B
:4021000041044FEA430594EA050F08BF90EA020F1FBF54EA000C55EA020C7FEA645C7FEA655C00F0E2804FEA5454D4EB5555B8BF6D420CDD2C4480EA020281EA030382EAC7
:40214000000083EA010180EA020281EA0303362D88BF30BD11F0004F4FEA01314FF4801C4CEA113102D0404261EB410113F0004F4FEA03334CEA133302D0524263EB43034F
:4021800094EA050F00F0A780A4F10104D5F1200E0DDB02FA0EFC22FA05F2801841F1000103FA0EF2801843FA05F359410EE0A5F120050EF1200E012A03FA0EFC28BF4CF08D
:4021C000020C43FA05F3C01851EBE37101F0004507D54FF0000EDCF1000C7EEB00006EEB0101B1F5801F1BD3B1F5001F0CD349085FEA30004FEA3C0C04F101044FEA44524D
:4022000012F5800F80F09A80BCF1004F08BF5FEA500C50F1000041EB045141EA050130BD5FEA4C0C404141EB010111F4801FA4F10104E9D191F0000F04BF01460020B1FA89
:4022400081F308BF2033A3F10B03B3F120020CDA0C3208DD02F1140CC2F10C0201FA0CF021FA02F10CE002F11402D8BFC2F1200C01FA02F120FA0CFCDCBF41EA0C01904068
:40228000E41AA2BF01EB0451294330BD6FEA04041F3C1CDA0C340EDC04F11404C4F1200220FA04F001FA02F340EA030021FA04F345EA030130BDC4F10C04C4F1200220FA52
:4022C00002F001FA04F340EA0300294630BD21FA04F0294630BD94F0000F83F4801306BF81F480110134013D4EE77FEA645C18BF7FEA655C29D094EA050F08BF90EA020FEF
:4023000005D054EA000C04BF1946104630BD91EA030F1EBF0021002030BD5FEA545C05D14000494128BF41F0004130BD14F580043CBF01F5801130BD01F0004545F0FE41FC
:4023400041F470014FF0000030BD7FEA645C1ABF194610467FEA655C1CBF0B46024650EA013406BF52EA033591EA030F41F4002130BD00BF90F0000F04BF0021704730B5F0
:402380004FF4806404F132044FF000054FF0000150E700BF90F0000F04BF0021704730B54FF4806404F1320410F0004548BF40424FF000013EE700BF42004FEAE2014FEA67
:4023C00031014FEA02701FBF12F07F4393F07F4F81F06051704792F0000F14BF93F07F4F704730B54FF4607401F0004521F0004120E700BF50EA010208BF704730B54FF09F
:4024000000050AE050EA010208BF704730B511F0004502D5404261EB41014FF4806404F132045FEA915C3FF4DCAE4FF003025FEADC0C18BF03325FEADC0C18BF033202EBF0
:40244000DC02C2F1200300FA03FC20FA02F001FA03FE40EA0E0021FA02F11444C1E600BF70B54FF0FF0C4CF4E06C1CEA11541DBF1CEA135594EA0C0F95EA0C0F00F0DEF8FA
:402480002C4481EA030621EA4C5123EA4C5350EA013518BF52EA033541F4801143F4801338D0A0FB02CE4FF00005E1FB02E506F00042E0FB03E54FF00006E1FB03569CF01E
:4024C000000F18BF4EF0010EA4F1FF04B6F5007F64F5407404D25FEA4E0E6D4146EB060642EAC62141EA55514FEAC52040EA5E504FEACE2EB4F1FD0C88BFBCF5E06F1ED87A
:40250000BEF1004F08BF5FEA500E50F1000041EB045170BD06F0004646EA010140EA020081EA0301B4EB5C04C2BFD4EB0C0541EA045170BD41F480114FF0000E013C00F3F7
:40254000AB8014F1360FDEBF002001F0004170BDC4F10004203C35DA0C341BDC04F11404C4F1200500FA05F320FA04F001FA05F240EA020001F0004221F0004110EBD370A7
:4025800021FA04F642EB06015EEA430E08BF20EAD37070BDC4F10C04C4F1200500FA04F320FA05F001FA04F240EA020001F0004110EBD37041F100015EEA430E08BF20EA2F
:4025C000D37070BDC4F1200500FA05F24EEA020E20FA04F301FA05F243EA020321FA04F001F0004121FA04F220EA020000EBD3705EEA430E08BF20EAD37070BD94F0000F2A
:402600000FD101F00046400041EB010111F4801F08BF013CF7D041EA060195F0000F18BF704703F00046520043EB030313F4801F08BF013DF7D043EA0603704794EA0C0F9B
:402640000CEA135518BF95EA0C0F0CD050EA410618BF52EA4306D1D181EA030101F000414FF0000070BD50EA410606BF1046194652EA430619D094EA0C0F02D150EA0136DD
:4026800013D195EA0C0F05D152EA03361CBF104619460AD181EA030101F0004141F0FE4141F470014FF0000070BD41F0FE4141F4780170BD70B54FF0FF0C4CF4E06C1CEA77
:4026C00011541DBF1CEA135594EA0C0F95EA0C0F00F0A7F8A4EB050481EA030E52EA03354FEA013100F088804FEA03334FF0805545EA131343EA12634FEA022245EA111552
:4027000045EA10654FEA00260EF000419D4208BF964244F1FD0404F5407402D25B084FEA3202B61A65EB03055B084FEA32024FF480104FF4002CB6EB020E75EB030E22BF15
:40274000B61A754640EA0C005B084FEA3202B6EB020E75EB030E22BFB61A754640EA5C005B084FEA3202B6EB020E75EB030E22BFB61A754640EA9C005B084FEA3202B6EB1F
:40278000020E75EB030E22BFB61A754640EADC0055EA060E18D04FEA051545EA16754FEA06164FEAC30343EA52734FEAC2025FEA1C1CC0D111F4801F0BD141EA00014FF09E
:4027C00000004FF0004CB6E711F4801F04BF01430020B4F1FD0C88BFBCF5E06F3FF6AFAEB5EB030C04BFB6EB020C5FEA500C50F1000041EB045170BD0EF0004E4EEA1131E4
:4028000014EB5C04C2BFD4EB0C0541EA045170BD41F480114FF0000E013C90E645EA060E8DE60CEA135594EA0C0F08BF95EA0C0F3FF43BAF94EA0C0F0AD150EA01347FF4F4
:4028400034AF95EA0C0F7FF425AF104619462CE795EA0C0F06D152EA03353FF4FDAE1046194622E750EA410618BF52EA43067FF4C5AE50EA41047FF40DAF52EA43057FF4E3
:40288000EBAE12E74A0011D212F5001211D20DD56FF47873B3EB62520ED44FEAC12343F0004343EA505323FA02F070474FF00000704750EA013002D14FF0FF3070474FF038
:4028C00000007047014B1868704700BF6081FF1F0E4B70B51E460E4C0025E41AA410A54204D056F8253098470135F8E700F04AFD084B094C1E46E41AA4100025A54204D0A6
:4029000056F8253098470135F8E770BD9033000090330000903300009833000010B5431E0A44914204D011F8014B03F8014FF8E710BD03460244934202D003F8011BFAE72A
:40294000704700000EB400B54FF402719CB0ADF814106FF00041049107914FF6FF711DAB02900690084853F8042BADF81610006802A9019300F06CF8029B00221A701CB047
:402980005DF804EB03B070476081FF1F034613F8012B002AFBD1181A013870472DE9F0478E6882469E420C46914698463ED88A8912F4906F3AD02568096902236F1A65692D
:4029C00005EB450595FBF3F57B1C43449D4238BF1D4653050FD5294600F040FB064698B13A462169FFF79AFFA38923F4906343F08003A38113E02A4600F08EFB064670B969
:402A00002169504600F0DEFA0C23CAF80030A3894FF0FF3043F04003A381BDE8F08726613E44266046466561ED1BA560464528BF464649463246206800F0A8FAA368002005
:402A40009B1BA36023681E442660BDE8F08700002DE9F04F9DB003938B8980461C060D4616460DD50B695BB9402100F0F7FA2860286118B90C23C8F80030CDE040236B61A2
:402A80000023099320238DF82930DFF89CB130238DF82A3037463C4614F8013B1BB9B7EB060910D003E0252BF9D02746F3E74B46324629464046FFF771FF013000F0A78045
:402AC000099B4B4409933B78002B00F0A08000234FF0FF3204930793059206938DF853301A930126052221784E4800F041FA671C049B38B14B4A3C46801A06FA00F01843C1
:402B00000490EFE7D90644BF20228DF853201A0744BF2B228DF8532022782A2A03D0079A00210A200BE0039A111D12680391002A10DA524243F00200079204900BE02746D3
:402B40003B780134303B092B03D800FB02320121F5E701B107923B782E2B1ED17B782A2B0AD1039B02371A1D1B680392002BB8BF4FF0FF33059310E0002319460593781CEE
:402B80000A2407463A780130303A092A03D804FB01210123F5E703B1059103223978224800F0E6F940B14023CBEB000003FA00F0049B013718430490397806221B487E1C32
:402BC0008DF8281000F0D4F988B1194B33B9039B073323F007030833039314E003AB00932A46144B04A94046AFF3008007E003AB00932A460F4B04A9404600F093F8B0F172
:402C0000FF3F824603D0099B5344099342E7AB895B0601D4099801E04FF0FF301DB0BDE8F08F00BF50330000563300005A330000000000009D2900002DE9F04791461F46C9
:402C40000A698B6806469342B8BF1346C9F8003091F843200C46DDF8208012B10133C9F800302368990642BFD9F800300233C9F80030256815F0060510D104F1190A07E0A2
:402C80000123524639463046C04701301AD00135E368D9F800209B1A9D42F1DB94F843302268003318BF012392060FD5E118302081F843005A1C94F845102244023382F8CB
:402CC000431003E04FF0FF30BDE8F08704F1430239463046C0470130F4D02268D9F80050E36802F00602042A08BF5D1B2269A3680CBF25EAE57500259342C4BF9B1AED188B
:402D00004FF000091A344D4509D00123224639463046C0470130D5D009F10109F3E70020BDE8F0872DE9F04317460A7E85B06E2A984606460C460C9B01F1430E00F0AE809B
:402D400011D8632A22D009D8002A00F0BB80582A40F0CA8081F84520834955E0642A1ED0692A1CD0C0E0732A00F0B08009D86F2A2ED0702A40F0B8800A6842F020020A60D8
:402D80003EE0752A24D0782A3AD0ADE01A6801F14205111D1960136884F84230A8E021681A6811F0800F02D0111D196008E011F0400F02F10401196002D0B2F9003000E08C
:402DC0001368002B3CDA2D225B4284F8432037E021681A6811F0800F02D0111D196007E011F0400F02F10401196001D0138800E01368227E5C496F2A14BF0A2208221BE0B0
:402E000078225A4984F845202268186812F0800F00F104051D6003D1550601D5038800E00368D00744BF42F0200222601BB9226822F0200222601022002084F8430001E0D1
:402E400049490A226568002DA56008DB206820F0040020602BB9002D7DD175460CE0002B79D07546B3FBF2F002FB1033CB5C05F8013D03460028F5D1082A0BD12368DA077E
:402E800008D5236962689A42DEBF302305F8013C05F1FF35C5EB0E0323612EE008681A6810F0800F496903D0101D1860136808E010F0400F02F104001860136801D01980AB
:402EC00000E0196000232361754616E01A68111D1960156800216268284600F049F808B1401B6060636804E004F1420584F8422001232361002384F84330CDF800803B46D4
:402F000003AA21463046FFF797FE013002D14FF0FF3026E023692A4639463046C0470130F5D023689B0710D5002504F1190907E001234A4639463046C0470130E7D0013513
:402F4000E368039A9B1A9D42F2DBE068039B9842B8BF184605E00B7804F1420584F842308AE705B0BDE8F083613300007233000010B5C9B202449042034605D01C7801302F
:402F80008C42F8D1184610BD002010BD884210B501EB020301D8421E0BE09842FBD28118D21AD34204D013F8014D01F8014DF8E710BD994204D011F8014B02F8014FF8E730
:402FC00010BD000038B50546002944D051F8043C0C1F002BB8BFE41800F0D4F81E4A1368114613B96360146030E0A3420DD92268A018834201BF18685B68121822606360F0
:403000000C6023E0A24203D813465A68002AF9D118681918A1420BD12168014458188242196013D110685268014419605A600DE002D90C232B6009E021686018824201BFEA
:40304000106852680918216062605C602846BDE8384000F098B838BDB481FF1F70B5CD1C25F0030508350C2D38BF0C25002D064601DBA94202D90C23336046E000F082F8B5
:40308000234B1C681A462146A1B10B685B1B0ED40B2B03D90B60CC18CD501EE08C420BBF63684B681360636018BF0C4615E00C464968E9E7174C23681BB9304600F052F80F
:4030C00020602946304600F04DF8431C18D0C41C24F00304A0420DD12560304600F053F804F10B00231D20F00700C31A0ED05A42E25070BD211A304600F034F80130EBD137
:403100000C233360304600F03EF8002070BD00BFB481FF1FB081FF1FF8B5074615460E4621B91146BDE8F840FFF798BF1AB9FFF749FF2846F8BD00F027F885420ED929461F
:403140003846FFF78BFF044650B131462A46FFF7E5FB31463846FFF735FF01E03046F8BD2046F8BD38B5064C0023054608462360FDF768F9431C02D1236803B12B6038BD3F
:40318000CC82FF1F7047704751F8040C0028BEBF091851F8043CC018043870470000000073706565643A20256C640D0A00000000004F004024004051004030000000014056
:4031C000001000140140000800400140000A004C014000020050014020000000303132333435363738394142434445460000000001000000F8310000010000003C3300005B
:403200000000000000000000010000001032000001000000F8320000030000003C320000000000000000000000000000000000000000000038320000020A000000008103B5
:40324000080002000100820240000A000100030240000A0002030000040309042C0343007900700072006500730073002000530065006D00690063006F006E00640075002D
:40328000630074006F007200100355005300420055004100520054003803430044004300200043006F006D006D0075006E00690063006100740069006F006E002000490039
:4032C0006E007400650072006600610063006500260343004400430020004400610074006100200049006E0074006500720066006100630065000000090243000201018076
:4033000032090400000102020103052400100104240202052406000105240100010705810308000A09040100020A000004070582024000000705030240000000120100028E
:4033400002000008B40432F20100010280014300232D302B2000686C4C00656667454647003031323334353637383941424344454600303132333435363738396162636477
:4033800065660000F8B500BFF8BC08BC9E4670474D000000C1040000F8B500BFF8BC08BC9E46704729000000B8330000C880FF1FA0000000680100000000000001000000AE
:4033C000D082FF1F0000E02EC05D00001800000000366E0100C2010000000800C201000000080000A12000000000020000000000000000000000000000000000000000001C
:40340000000000000000000000000000000000004E33000000000000000000000000000000000000000000000000000000000000000000000000000000000000000000000B
:40344000000000000000000000000000000000000081FF1F0000000000000000000000000000000000000000000000000000000000000000000000000000000000000000AD
:40348000000000000000000000000000000000000000000000000000000000000000000000000000000000000000000000000000000000000000000000000000000000000C
:4034C00000000000000000000000000000000000000000000000000000000000000000000000000000000000000000000000000000000000000000000000000000000000CC
:40350000000000000000000000000000000000000000000000000000000000000000000000000000000000000000000000000000000000000000000000000000000000008B
:40354000000000000000000000000000000000000000000000000000000000000000000000000000000000000000000000000000000000000000000000000000000000004B
:020000040003F7
:0200000480007A
:4000000001450040064F004009520040046400400365004052000140320101405B0201404D030140520401404F050140570601405B0701400408014016090140690A0140B6
:40004000460B01400D0D0140020F01403D1401404D150140631601404F17014004190140041B014008400140114101400E420140104301400144014008450140074601400A
:4000800006470140074801400D490140084C0140074D014006500140035101407E0201100A270D1016271980221B04050940140618201920640C781079107C40806F830FA8
:4000C00084388B0F846F850F87720004010203010E0C120115011706180119011B0226032D012F0A30043201330834023504360837033B803E054004464049FF4A074BFFAB
:400100004C404D204EF04F055008540F580459045A045B045D025F05604061A8624063208010816682208310841086608807893B8C238D408E1C8F089380940C95669603F5
:400140009708980F9C059E0AA410A6A0AB78AC0AAD5DAE05AF20B040B178B280B3C0B40FB507B630B920BA80D804D904DF0101400380054507040A440E280F0111081410D8
:4001800017401A841B881D451E08210822102301253528022D102F0231083210360A3B013C803D223F204101481050205A8A5B20600863106B017B108008C0F9C2EAC4A4AD
:4001C000CA38CCC6CEB1D001D60FD806DE02E204E60401C5033A060C070108800A220C510D0E0EA20FF014F315A31608175C18F31A041C401E11257F283029962AC32B6871
:400200002DFE2F0131FF320F34F03A083F01580459045C025F01850488028A0C8E0192019502970199049C089D03A303A802AD04AF08B002B108B201B304B408B502B60440
:40024000B701B802B908BE14BF54C026C104C205C403C6CEC80CC9FFCAFFCBFFCC62CDA0CEF0CF41D00CD280D40FD604D804D904DA04DB04DD02DF01E640E702E910EA30BF
:40028000EB10ED10EE10EF1201800204052407010A010B800C080D800E041320152019011A091B041D041F1420602250260229012A802D182F22312833A0360839203A04A9
:4002C0003B203C803D0A4090420848044A0150105340580159085AA0610272408410850393019552964A971099409B019C129F64A165A204A380A440A61AA702AC10B02047
:40030000B140B308C0E3C2E9C442CA79CC4ECED2D007D20CD60FD801E008E204E602E808EA04000C010C0211030104100510060C076009080A800B010C400D100E800F201A
:400340001203150C16C0170219071A201C14200921202210231F2640281C29102A022BA02C102D0B2F04301F313032E0330F358037403A203B023E045418560458045904E7
:400380005B045C025D205F018031819E82C28360860888C089308A348BC98D948F6090F795CF9607973098779C549EA0A573AB0FACA1ADFDAE52AF02B0F0B20FB3FFBF041F
:4003C000D804D904DF01000201240201030107980A400B2A0C010D280F0211A012201302160218101A481B101D081F0A2080214022082384271028012A202B422F2A31201F
:4004000032083608370839903A023B043C803D123E023F8059016240634887408A808B208D408E248F0290609329941095509606971099409B019C939DA09E8C9F64A161FC
:40044000A224A324A44CA508A619A702A980AA20C07FC2FFC48FCA7DCC46CEBFD601D80DEC04EE0200C5023A03780C0E0EF01166131014A3153B165C18FE19661A011B08A8
:400480001C961D401E681F082380247F255D27202A01317833C0350736FF39203E40580459045F018302850488098B088D108E2990079104923894069504983F9B019C0487
:4004C000A039A101A206A302A402A708A826AA19AF10B008B110B226B308B407B504B610B703B880BA20BF05C013C105C5C0C6E0C7B0C82AC9FFCAFFCBFFCEF0CF44D00C84
:40050000D804D904DA04DC22DD02DF01E6C0EA40EB020010030205500608074009880A080B400C100E280F01110212081304172819951F802008212022812310251426022B
:40054000276C29042A812C102F80300832203301354036123708386439023C043E043F014002410448835110531178017A808002810182088504880289048C808D048E01EE
:40058000907091029248930195049606970299409A819D819E489F44A224A310A40DA611A880A910AB10AD21B010B110B311B402B508C093C2EFC46ECACBCCF7CE8FD00AC9
:4005C000D208E28CE802EA01B880BE40D804DF0119408310850189408B108E01910193209B109C029E019F08AB04AE10B005B220B6C0E2A0E440EAB0EC10EE800301050294
:400600000601070C0D020F041A041D041F0225022602271430023108320133103404350137063B804062410449FF4AFF4BFF4DA04F015018580459045A045F0160406280ED
:4006400064406540668068406A806C406D206E80814083098C038E14930295169729987399289A0C9B139E08A235A316A44AA528A614A715A873AA04B010B160B260B30727
:40068000B40FB51BB808B902BA20BB28BE05C062C104C542C6E0C7C3C83BC9FFCAFFCBFFCDAFCE07CF01D018D401D604D804D904DA04DB04DC22DD20DF01E040E280E44081
:4006C000E540E680E840EA80EC40ED20EE8002100480060108200E07102015011714180419081A801E441F18204A21842601271429082E012F1031803715384139083D0176
:40070000412042804520468049204D224F04550856225C025E405F286501804083208B048C048D0A8E0190019101982099209B019D019E02A020A120A708A820B020B401EF
:40074000C084C2C2C474CAC2CCE8CE8BD0A5D224D6F0D880E250E670EE02810185208708910199209B019E02AD01B120B301E820EA04EC208202E204020C040807040F03CC
:400780001102130114021908210722022601300231013204330234083508360137043E113F55540F580459045B045F05809E81848260831085778C948E60920F930794CFAC
:4007C00095B79630974098FD9A029C309D019EC99FF2A308A873A9C0AB24ADC1AF12B10FB5F0B6FFBE40D40FD604D804D904DB04DF01010802400540068007400A200C0868
:400800000D020E280F01108011041408160C19091A041B401F8022402364250226122B402C082E802F8031023320354036063880390C3E083F0159015A845B105C085D02E2
:400840005F606104621064806B0978088308848087018B048C808D028E048F10908091089220930199449A549B40A080A204A320A612A820AF80B501C09CC2F4C44CCAB178
:40088000CCD5CECAD6FFD886DE02E0060705100219021D0128012F01300133023501360237043E413F144036410549FF4AFF4BFF4DA04F0150185280580459045A045B04F1
:4008C0005F016040628064406540668068406A806C406D206E8080058108851089BC8B428DBC8F419343953099049D20A005A104A202A308A5FFA804A9CFAB30AF0CB001C3
:40090000B170B202B33FB404B580B822BB0ABE10BF10C036C105C52EC6C3C704C81FC9FFCAFFCBFFCDAFCE07CF01D018D602D712D804D904DA04DB04DC20DD20DF01E04049
:40094000E280E440E540E680E840EA80EC40ED20EE8002400E401080112012041520188019201A281D011F8020102208234826802724280129102A012B102E80318832208A
:40098000330234203680381039023B443D0843044704488049244A024E06510452505B0868086A046B0171887304768087208F2091229240930196049744980199509A013F
:4009C0009B409F01A114A224A312A408A588A618A920AB02AE40AF10B310C008C210C44ACA1FCC3FCE4FD042D23CD602E408E6109F08B002E408E820B708E006E420EC401A
:400A00003012360837803B208002CCF0CE10E2200128308032013642630280808602878097209C109F80AA08C050CCF0D640E260EA200220078086409C10A640A701A928B2
:400A4000AF10B010B201C030E640ECA0EE4019021E20680171407540880189409C10A701AE20AF80C630DA40DC60E840EC4082400080068052109640A740AB40C006D40499
:400A800096429E10A740AE01B040B680EE0C0A420F8096429E10A740C20E86108C0199029C10A210A701E410600165028410900199029C10A902AF01D640D880E640EC20FB
:400AC000EE1061026302740287019E10D602D802DE04800285028A109E10A402A502E404000508050A050C0510051A0500AF01FE020300004000054040004000000000004C
:400B00000C000000000000004000001010001000C000000000CBCB00C00000000601010001000000003030003000000000000000000000000000000000000000000000008A
:400B40000000000000000000000000000000000000000000000000000000000000000000000000000000000000000000000000000000000000000000000000000000000075
:400B80000000000000000000000000000000000000000000000000000000000000000000000000000000000000000000000000000000000000000000000000000000000035
:400BC00000000000000000000000000000000000000000000000000000000000000000000000000000000000000000000000000000000000000000000000000000000000F5
:400C000000000000000000000000000000000000000000000000000000000000000000000000000000000000000000000000000000000000000000000000000000000000B4
:0200000490006A
:0400000000004005B7
:0200000490105A
:04000000BC90ACAF55
:0200000490303A
:02000000C96FC6
:0200000490402A
:4000000000000000000000000000000000000000000000000000000000000000000000000000000000000000000000000000000000000000000000000000000000000000C0
:400040000000000000000000000000000000000000000000000000000000000000000000000000000000000000000000000000000000000000000000000000000000000080
:400080000000000000000000000000000000000000000000000000000000000000000000000000000000000000000000000000000000000000000000000000000000000040
:4000C0000000000000000000000000000000000000000000000000000000000000000000000000000000000000000000000000000000000000000000000000000000000000
:0200000490501A
:0C00000000012E16106900012E2CD9D82A
:00000001FF