:400000000080002011000000D1050000D105000008B5044B1A6803F53F5302331A6000F0DFFA00BFFA46004010B5054C237833B9044B13B10448AFF300800123237010BDF2
:400040005081FF1F0000000048180000084B10B51BB108490848AFF300800848036803B910BD074B002BFBD0BDE81040184700BF000000005481FF1F48180000C880FF1F32
:40008000000000002DE9F8431F4B9B78092B03D801331D4A937033E01B4F0123BB7000F0B7FE0028B8BF4042184C606000F03AFF80EAE076A6EBE076A660D4F80480E068A1
:4000C000C0EB08002369184420616569751BA3691D44A561D7F80490BF6890FBF9F001F059F9394601F0AAF9E06195FBF9F001F051F9394601F0A2F92062C4F80C8066612E
:4001000000F03EFBBDE8F883D080FF1F6C81FF1F08B500F06DFD164A13781844107000F0E9FB144A13781844107000F079FC124A13781844107000F0EDFC104A1378184444
:4001400010700F4B5B6A032B0AD10023084A1370084A1370084A1370084A1370084A5362074A536A0133536200F00AFB08BD00BFC381FF1FBF81FF1FC481FF1FC181FF1F66
:400180006C81FF1F024B32225A701A70704700BFD080FF1F0E4B1B783BB10E4A127822B90D4A13780133137070473BB9094A127822B1094A5378013353707047054A12782D
:4001C0002AB923B9044B4B225A704C221A707047C381FF1FBF81FF1FD080FF1F08B562B600F014FB244800F0A3FA244800F0A4FB00F0F0FC00F070FB00F004FC00F07CFC86
:4002000000F00AFD00F076FD00F0E2FD642000F025FD642000F090FD00F038FE00F0C0FE174B1B784BB1012000F0EAFC0122154B83F82820144A154BDA60124B93F82830C4
:40024000012B06D013B1022B13D0E9E7FFF7A2FFE6E70E4BD9680B4BD86901F0A1FA28B1012000F0E5FBFFF78DFFD9E7FFF792FFD6E7FFF787FFD3E711010000850000009A
:40028000C481FF1F6C81FF1F00004040D080FF1FFEE700BFF0B40022174611E050F82760F3B226F0FF0608E001EB420511F812406D78A5550132013BDBB2002BF4D1013722
:4002C000202FEBD9F0BC7047164B1B78DBB203F00701154A11701B09013213700F22134B1A70022203F22F731A70102203F515731A7040230E4A13708021053211700332EC
:4003000013700532137003321370202105321170033213705022074B1A704422A3F2E2231A707047CF0100496E5800403D510040C35A0040585B004008B50A46002101F02C
:400340007AFA08BD08B501F06BFA08BD38B50322314B1A801823314A13702F2230490A801C200231087002310A802E4A137004222D492E48FFF7E6FF06222D4B1A7052228D
:40038000A3F580731A702B4B1B78DBB22A4A13704FF4E262294B1A8041F25122023B1A80002419250CE0264B1B7803F0010343EA440404F003044FF4F07000F021FF013DDF
:4003C0000DB1032CEFD115B90320FFF761FF1D4A4FF4807313800723137000231A490B704820023108701370053213700222174B1A7004220A331A70154A137843F00703B7
:400400001370013A137843F001031370013A137843F08003137038BD8040004082400040844000408A4000402C08004800410040004300400F010049A14600402242004011
:4004400025420040044000400640004001400040A243004038B572B6464A137843F00403137000240CE0444D630019194A0011462A44084691882858FFF75EFF0134E4B2EE
:40048000072CF0D900240BE03B49A3001819420088188022416B006BFFF754FF0134E4B2002CF1D035494FF09040FFF7F3FE0322334B1A8040F2031202331A8040F203221F
:4004C00002331A8040F2033202331A802D4B2E4A136002F59052136002F564522B32137843F0020313701032137843F002031370264C237843F040032370A2F58632513A80
:40050000137843F010031370082221492148FFF719FF082220492148FFF714FF082220492048FFF70FFF08221F492048FFF70AFF08221F491F48FFF705FF08221E491F4874
:40054000FFF700FF1E4A137843F0080313701D4D61232B70FFF7FAFEC1232B7001221A4B1A70FFF7B1FE0E2221461848FFF7EAFE38BD00BFE84600404C18000084000048FE
:400580004858004004040444D8040140A0430040FC0700480251004004080048C25100400C080048F251004014080048125100401C0800482251004024080048325100400A
:4005C000224300400048004004000840B043004008B501F0F9F803680C2B00D1FEE7FEE708B5104E104D16E029686B68AC68002204E051F8040B43F8040B0432A242F8D102
:40060000E868002203E0002143F8041B04328242F9D11035013E002EE6D101F0DBF8FFF7DDFDFEE701000000AC18000008B5104A104B1A60104A136843F40073136000237E
:400640000AE0032B03D80D4A52F8231000E00C490C4A42F8231001332F2BF2D90A4B1A780A4B1A70074A0A4B1A60FFF7F3FE08BD0004FA050CED00E014ED00E00000000013
:40068000D10500000080FF1FBC760040C080FF1F08ED00E001BE704770B504460E46074B1D681F2802D90020FFF7F4FF04F01F04103455F8240045F8246070BD08ED00E057
:4006C00038B504460D46072902D90020FFF7E2FF1F2C02D90020FFF7DDFF04F01F0000F1604000F564406D01EDB2057038BD00BF024B1B68C3F88C00704700BF08ED00E081
:400700004001C0B2014B1870704700BF13E400E04FF40022014B1A60704700BF00E100E04FF40022014B1A60704700BF80E100E010B50446FFF7F4FF2046FFF7D9FF07204E
:40074000FFF7DEFFFFF7E4FF10BD00BF084A137843F0040313701032137843F00403137002F66532137843F001031370704700BFA3430040014B1870704700BF1B4F0040B9
:40078000014B1878704700BF1B4F0040014B1880704700BF1C4F0040014B1880704700BF1E4F004008B5164A137803F0010313700232137803F0FC031370124B1A7802F0FA
:4007C000CF021A701A7842F030021A701A7802F0F0021A701A7842F00F021A700A4A137843F00103137040F2E730FFF7CFFF40F2E730FFF7D1FF0820FFF7BCFF08BD00BFAD
:40080000184F0040234F0040194F004008B5054B1B7823B9FFF7C6FF0122024B1A70FFF795FF08BDA881FF1F054A137843F0080313701032137843F008031370704700BF51
:40084000A74300400F490B7803F0FC0200F0030313430B7001280AD10B4B1B78DBB20B4A13700B4B1B78DBB2013213707047094B1B78DBB2054A1370074B1B78DBB201329B
:400880001370704743580040130100493646004017010049B3010049BB01004908B50020FFF7D0FF0B4B1A7802F0DF021A701A7802F0FB021A701A7842F008021A7003F565
:4008C00027731A7802F0E7021A701A7842F008021A7008BD4358004008B5054B1B7823B9FFF7DCFF0122024B1A70FFF79DFF08BDA981FF1F024B187800F00800704700BF3E
:40090000965B0040014B1B68D864704708ED00E04001C0B2014B1870704700BF03E400E00822014B1A60704700E100E00822014B1A60704780E100E010B50446FFF7F6FFE1
:400940002046FFF7DFFF0720FFF7E2FFFFF7E8FF10BD00BF054A137843F0040313701032137843F004031370704700BFA74300400F490B7803F0FC0200F0030313430B7082
:4009800001280AD10B4B1B78DBB20B4A13700B4B1B78DBB2013213707047094B1B78DBB2054A1370074B1B78DBB2013213707047425800401201004934460040160100498D
:4009C000B1010049B901004908B50020FFF7D0FF0B4B1A7802F0DF021A701A7802F0FB021A701A7842F008021A7003F295231A7802F0E7021A701A7842F008021A7008BDEE
:400A00004258004008B5054B1B7823B9FFF7DCFF0122024B1A70FFF79DFF08BDAA81FF1F024B187800F00400704700BF965B0040044A137803F0FB03800000F004001843E4
:400A40001070704720510040054A137843F0020313701032137843F002031370704700BFA74300400F490B7803F0FC0200F0030313430B7001280AD10B4B1B78DBB20B4A6F
:400A800013700B4B1B78DBB2013213707047094B1B78DBB2054A1370074B1B78DBB201321370704741580040110100493246004015010049AF010049B701004908B5002089
:400AC000FFF7D0FF0B4B1A7802F0DF021A701A7802F0FB021A701A7842F008021A7003F28E231A7802F0E7021A701A7842F008021A7008BD4158004008B5054B1B7823B97A
:400B0000FFF7DCFF0122024B1A70FFF79DFF08BDAB81FF1F024B187800F00200704700BF965B0040054A137843F0010313701032137843F001031370704700BFA743004018
:400B40000F490B7803F0FC0200F0030313430B7001280AD10B4B1B78DBB20B4A13700B4B1B78DBB2013213707047094B1B78DBB2054A1370074B1B78DBB201321370704788
:400B800040580040100100493046004014010049AD010049B501004908B50020FFF7D0FF0B4B1A7802F0DF021A701A7802F0FB021A701A7842F008021A7003F287231A787E
:400BC00002F0E7021A701A7842F008021A7008BD4058004008B5054B1B7823B9FFF7DCFF0122024B1A70FFF79DFF08BDAC81FF1F024B187800F00100704700BF965B00403D
:400C0000044A137803F0FD03400000F0020018431070704720510040054A137843F0040313701032137843F004031370704700BFA2430040084A137843F0010313701032DE
:400C4000137843F00103137002F64D32137843F001031370704700BFA3430040014B1880704700BF044F0040014B1880704700BF064F0040014B1870704700BF034F00401F
:400C800008B5194A137843F0020313700232137803F08F0343F010031370144B1A7802F0CF021A701A7842F030021A701A7802F0F0021A701A7842F00F021A706420FFF72A
:400CC000CDFF5020FFF7D0FF0020FFF7D3FF084A137843F00103137002F65E32137843F00103137008BD00BF004F00400B4F0040A343004008B5054B1B7823B9FFF7C0FFA3
:400D00000122024B1A70FFF795FF08BDAD81FF1F084A137843F0020313701032137843F00203137002F65932137843F001031370704700BFA3430040014B1880704700BF40
:400D4000104F0040014B1880704700BF124F0040014B1870704700BF0F4F004008B5194A137843F0020313700232137803F08F0343F010031370144B1A7802F0CF021A7040
:400D80001A7842F030021A701A7802F0F0021A701A7842F00F021A706420FFF7CDFF5020FFF7D0FF0020FFF7D3FF084A137843F00203137002F66A32137843F00103137080
:400DC00008BD00BF0C4F0040174F0040A343004008B5054B1B7823B9FFF7C0FF0122024B1A70FFF795FF08BDAE81FF1F08B50122054B1A6005490020FFF74EFC07210020A1
:400E0000FFF75EFC08BD00BF80E100E0C10E000010B50124064B1C6000F016F9A0F5004000B2044B1B68044A1460184410BD00BF80E100E0B081FF1F00E100E0024B1878E7
:400E400000F00F00704700BF6465004040F00700014B1870704700BF8465004008B50F20FFF7F4FFFFF7EAFF00F0D2F9054A137843F01003137000F0CFF90122024B1A6096
:400E800008BD00BF9465004000E100E008B500F02DF94FF4004000F0D1F80022064B1A60064B1B7823B9FFF7A1FF0122034B1A70FFF7D4FF08BD00BFB081FF1FAF81FF1F7D
:400EC0000D4B1B78DBB213F0010F06D00B490A6802F5FF427F320A6007E013F0020F04D006490A68A2F500420A6013F0040F02D00022024B1A60704764650040B081FF1FC5
:400F000008B50222054B1A6005490120FFF7C4FB07210120FFF7D4FB08BD00BF80E100E0D50F000010B50224064B1C6000F006F9A0F5004000B2044B1B68044A146018440D
:400F400010BD00BF80E100E0B881FF1F00E100E0024B187800F00F00704700BF6264004040F00700014B1870704700BF8264004008B50F20FFF7F4FFFFF7EAFF00F048F9A8
:400F8000054A137843F01003137000F045F90222024B1A6008BD00BF9264004000E100E008B500F01DF94FF4004000F0C1F80022064B1A60064B1B7823B9FFF7A1FF0122A5
:400FC000034B1A70FFF7D4FF08BD00BFB881FF1FB481FF1F0D4B1B78DBB213F0010F06D00B490A6802F5FF427F320A6007E013F0020F04D006490A68A2F500420A6013F0D2
:40100000040F02D00022024B1A60704762640040B881FF1F024A137843F080031370704777650040014B1870704700BF87650040014B1878704700BF67650040014B188033
:40104000704700BF0C6A0040024B1B78024B188880B27047066500408C6A0040014B188880B270478C6A0040014B1880704700BF4C6A0040014B1880704700BF6C6A0040E2
:4010800008B501E0FFF7EAFFFFF7D2FF10F0400FF8D108BD08B5134B1A7802F0F8021A701A7802F0FC021A70FFF7EAFF4FF40040FFF7DAFF4FF40040FFF7C0FF0020FFF761
:4010C000B1FFFFF7B5FF4FF40040FFF7D3FF00F09FF8054A137843F01003137000F09CF808BD00BF776500409765004008B5054B1B7823B9FFF7CEFF0122024B1A70FFF792
:4011000089FF08BDBC81FF1F024A137843F080031370704772640040014B1870704700BF85640040014B1878704700BF65640040014B1880704700BF0A680040024B1B7870
:40114000024B188880B27047056400408A680040014B188880B270478A680040014B1880704700BF4A680040014B1880704700BF6A68004008B501E0FFF7EAFFFFF7D2FFBB
:4011800010F0400FF8D108BD08B5134B1A7802F0F8021A701A7802F0FC021A70FFF7EAFF4FF40040FFF7DAFF4FF40040FFF7C0FF0020FFF7B1FFFFF7B5FF4FF40040FFF7D1
:4011C000D3FF00F025F8054A137843F01003137000F022F808BD00BF726400409564004008B5054B1B7823B9FFF7CEFF0122024B1A70FFF789FF08BDBD81FF1F00000000B8
:401200000230800803D000BF01380046FCD17047EFF3108072B6704780F31088704700BF80F0004002E000BF81F0004142001FBF5FEA410392EA030F7FEA226C7FEA236C60
:401240006AD04FEA1262D2EB1363C1BFD218414048404140B8BF5B42192B88BF704710F0004F40F4000020F07F4018BF404211F0004F41F4000121F07F4118BF494292EA2A
:40128000030F3FD0A2F1010241FA03FC10EB0C00C3F1200301FA03F100F0004302D5494260EB4000B0F5000F13D3B0F1807F06D340084FEA310102F10102FE2A51D2B1F1A7
:4012C000004F40EBC25008BF20F0010040EA03007047490040EB000010F4000FA2F10102EDD1B0FA80FCACF1080CB2EB0C0200FA0CF0AABF00EBC25052421843BCBFD04073
:401300001843704792F0000F81F4000106BF80F400000132013BB5E74FEA41037FEA226C18BF7FEA236C21D092EA030F04D092F0000F08BF0846704790EA010F1CBF0020D8
:40134000704712F07F4F04D1400028BF40F00040704712F100723CBF00F50000704700F0004343F0FE4040F4000070477FEA226216BF08467FEA23630146420206BF5FEA80
:40138000412390EA010F40F4800070474FF0000304E000BF10F0004348BF40425FEA000C08BF704743F0964301464FF000001CE050EA010208BF70474FF000030AE000BF1C
:4013C00050EA010208BF704711F0004302D5404261EB41015FEA010C02BF84460146002043F0B64308BFA3F18053A3F50003BCFA8CF2083AA3EBC25310DB01FA02FC634426
:4014000000FA02FCC2F12002BCF1004F20FA02F243EB020008BF20F00100704702F1200201FA02FCC2F1200250EA4C0021FA02F243EB020008BF20EADC7070474FF0FF0C50
:401440001CEAD0521EBF1CEAD15392EA0C0F93EA0C0F6FD01A4480EA010C400218BF5FEA41211ED04FF0006343EA501043EA5111A0FB01310CF00040B1F5000F3EBF490086
:4014800041EAD3715B0040EA010062F17F02FD2A1DD8B3F1004F40EBC25008BF20F00100704790F0000F0CF0004C08BF49024CEA502040EA51207F3AC2BFD2F1FF0340EA35
:4014C000C250704740F400004FF00003013A5DDC12F1190FDCBF00F000407047C2F10002410021FA02F1C2F1200200FA02FC5FEA310040F1000053EA4C0308BF20EADC7067
:40150000704792F0000F00F0004C02BF400010F4000F013AF9D040EA0C0093F0000F01F0004C02BF490011F4000F013BF9D041EA0C018FE70CEAD15392EA0C0F18BF93EA34
:401540000C0F0AD030F0004C18BF31F0004CD8D180EA010000F00040704790F0000F17BF90F0004F084691F0000F91F0004F14D092EA0C0F01D142020FD193EA0C0F03D10C
:401580004B0218BF084608D180EA010000F0004040F0FE4040F40000704740F0FE4040F4400070474FF0FF0C1CEAD0521EBF1CEAD15392EA0C0F93EA0C0F69D0A2EB0302E0
:4015C00080EA010C49024FEA402037D04FF0805343EA111143EA10130CF000408B4238BF5B0042F17D024FF4000C8B4224BF5B1A40EA0C00B3EB510F24BFA3EB510340EA34
:401600005C00B3EB910F24BFA3EB910340EA9C00B3EBD10F24BFA3EBD10340EADC001B0118BF5FEA1C1CE0D1FD2A3FF650AF8B4240EBC25008BF20F0010070470CF0004C1B
:401640004CEA50207F32C2BFD2F1FF0340EAC250704740F400004FF00003013A37E792F0000F00F0004C02BF400010F4000F013AF9D040EA0C0093F0000F01F0004C02BF60
:40168000490011F4000F013BF9D041EA0C0195E70CEAD15392EA0C0F08D142027FF47DAF93EA0C0F7FF470AF084676E793EA0C0F04D14B023FF44CAF08466EE730F0004CDB
:4016C00018BF31F0004CCAD130F000427FF45CAF31F000437FF43CAF5FE700BF4FF0FF3C06E000BF4FF0010C02E000BF4FF0010C4DF804CD4FEA40024FEA41037FEA226C07
:4017000018BF7FEA236C11D001B052EA530C18BF90EA010F58BFB2EB030088BFC81738BF6FEAE17018BF40F0010070477FEA226C02D15FEA402C05D17FEA236CE4D15FEAC4
:40174000412CE1D05DF8040B704700BF844608466146FFE70FB5FFF7C9FF002848BF10F1000F0FBD4DF808EDFFF7F4FF0CBF012000205DF808FB00BF4DF808EDFFF7EAFFE0
:4017800034BF012000205DF808FB00BF4DF808EDFFF7E0FF94BF012000205DF808FB00BF4DF808EDFFF7D2FF94BF012000205DF808FB00BF4DF808EDFFF7C8FF34BF01206D
:4017C00000205DF808FB00BF014B1868704700BF4881FF1F0E4B70B51E460E4C0025E41AA410A54204D056F8253098470135F8E700F04AF8084B094C1E46E41AA41000250F
:40180000A54204D056F8253098470135F8E770BD9418000094180000941800009C18000010B5431E0A44914204D011F8014B03F8014FF8E710BD03460244934202D003F8D9
:40184000011BFAE77047000000000000004F0040240040510040300000000140001000140140800200170140000500400140000A004C0140000200500140200080160140D9
:401880007C07004880004300F8B500BFF8BC08BC9E4670474D0000002D060000F8B500BFF8BC08BC9E46704729000000C0180000C880FF1F880000007800000000000000B5
:4018C000000000000000000047460100E40000007201A2410000C8420C022B8716D92540000000000000000000000000000000000000000000000000000000000000000002
:401900008618000000000000000000000000000000000000000000000000000000000000000000000000000000000000000000000000000000000000000000000000000009
:40194000E880FF1F000000000000000000000000000000000000000000000000000000000000000000000000000000000000000000000000000000000000000000000000E1
:401980000000000000000000000000000000000000000000000000000000000000000000000000000000000000000000000000000000000000000000000000000000000027
:4019C00000000000000000000000000000000000000000000000000000000000000000000000000000000000000000000000000000000000000000000000000000000000E7
:401A000000000000000000000000000000000000000000000000000000000000000000000000000000000000000000000000000000000000000000000000000000000000A6
:401A40000000000000000000000000000000000000000000000000000000000000000000000000000000000000000000000000000000000000000000000000000000000066
:020000040003F7
:0200000480007A
:40000000064F00400852004003640040036500404100014032010140420201403F0301405504014049050140560601404107014002090140020D0140010F0140381401407B
:40004000381501401416014041170140074001400F410140104201400B430140054401400645014002460140054701400D4801400D4901400A4C0140034D01400A50014097
:400080000151014001200A4B0D20164B1910224B000101010840094060026103781979157603820F856F7403840F876F0008010203010608080E10021204150116101706E8
:4000C00019011A0E1B021E012101230A280E2C022E04300131033308341E35043B025608580459045B045D905F018308840C8601880B8A048D028F01910193029407950138
:400100009706981099019B129C0C9E02A20FAC08AE01B010B104B308B510B60FB703BB80BE01D608D804D904DB04DD90DF010026024003040404070409800A180B800C20C2
:400140000E020F10118012011330164119011A081B101C801E021F402129254026022718290131283602371839023D803F0158405C80618067016F0A830284408880C06E83
:40018000C2EFC493CA01CCE6CE91D618D818E020E608020403010460061008030E0312781402160118041E04204022082458262028382C602E08300132023301347836040D
:4001C0003E455280540F5604580459045B045F01809681208268830484A38501865C88FE891C8A018D0190C5923A933C950199309B089D309F04A201A301A702A87FA92C2C
:40020000AB10AC0EAD01AEF0B2FFB53CB703BE04D804D904DF0100260240038404040510074208010B800C020E080F21100211C0132114091640172419041C441D801E20EC
:40024000221023012604280129242B80304032103309381439423F015C485E226502774089029102920893C0940496109F20A140A310A411AC40B340B420B708C0FEC2F86B
:40028000C4FBCA0FCC0FCE8FD6F0D880E280E802EA11EC100030015002C903AF04CF063008FD09770A02109E1138126013C119CC1A0F1B3121AC2352287329FB2B042C94EE
:4002C0002E60310F32FF33F038203E14580459045F01801081108407850688208E20940F980399039A0C9E50A005A106A20AA40CA603A905AC0AAD10AE05AF08B040B20F91
:40030000B307B420B508B610B710B988BE50C013C106C9FFCAFFCBFFCDA0CF01D018D40FD804D904DA04DB04DF05E040E280E440E540E680E840EA80EC40ED20EE800026AF
:40034000025005810602072808420A0A0B800C200E200F02118013201402165018081A101C201D011E2A1F08220123102608272A284029202D802F48321033013720381008
:4003800039023C043F02458849204B104E045D105E4A660867047E0884208550870190049102922893C0941096109C409D309F23A1C0A411A708AA01AB08C0FEC2EAC4B33C
:4003C000CAB5CC25CEC5D050D220D6F0D860DE200308040108020C011102130115011608170219011B021C01210123062606300232013304340435083608370338083B8002
:400400003E0540134106452C4640473E483B49FF4AFF4BFF4DAF4E074F0150185608580459045A045B045D905F016040628064406540668068406A806C406D206E808130C0
:4004400083C9847F89FD8B028C0E8EF08F0F919E936094A3965C99CF9B309CC59D949E3A9F60A573A601A8FEAA01AC96AE68B0FFB3FFBE01BF04D804D904DF01010803018C
:400480000510060207200A220E200F0212011318162019011D181E401F4022082694270129082F403001329136143701384039023A013B103F0145884E044F06562A5F40DF
:4004C00067016C016D10800189109102922A93509410964097049B209D109E0A9F01A180A401A508A701A804C0E5C2A5C427CA82CCEDCE8DD050D220D610D810E404E08053
:40050000E404E802EA21E608010202010304050107080D100E04100413101D101E082101220225042702280229022B042D022E042F043004310132013308340235103608D8
:40054000370639023B803E113F10540F5604580459045B045F018E0496019B01A402A901B004B201B402B701BE10BF40D608D804D904DB04DD90DF01004105800A800B029E
:400580000E20108012081340162018031A441B041F2B2002210222182340270228202A012B062F083102324036103846590A5A605F8063806580680A800284298C848F8025
:4005C000904092809604990A9A219F02A080A210A401A760AA20C089C229C42BCA2FCC29CE0BD61FD811E4104046410149FF4AFF4BFF4DA04F0150185A045F0160406280F4
:4006000064406540668068406A806C406D206E800010026109880A8010801354181419481A481B04204021082242238C280129092A4032BA388039123B14400442C0468094
:40064000478048804A124E04504051805215582059405A045B025C205E20621473407B04832085128F409102922093109450980199019D089F08A288A401C00FC20DC40F73
:40068000CA0BCC0FCE0FD095D228D60FD806DE04E64031203206361283408810CCF0E2205F808A10948096089B809C10A101A340A520A610AB80B440B501D620EA801A0850
:4006C0005040574059045C026220948096089C10A101A340A520C640D460D6C0D84018801E4094809C10A101A520A802A904AA20C630EE8014102A808680C404CA089B015A
:40070000A680AA80AF01B010EA049B01A680820289029B01A680E0015108550157045A4083048D2092409C10A101A520D4E0D620E62008100F017B02830285088F019C1037
:40074000A508AA40C2C0DC80E260E8205B016602750299029A029B01A680D602D801DE041280A680C40800010101080109010A010B01100111011A011B0100AF0C400001EC
:400780000C00000826710000200000040100007010000080000100400011012020000002007010000A0000000011102010F00E08200301042800000000005100420500000B
:4007C0000032C42E3FFFFFFF00AF0701180080000F0000000404040400000005400080004040800040008000402080000000000000000000000000000000000000010100C4
:40080000010000006007070007000000001F1F001F00000000CBCB00C00000000007070000000000C000000000000F002F001C010000000000000000000000000000000066
:400840000000000000000000000000000000000000000000000000000000000000000000000000000000000000000000000000000000000000000000000000000000000078
:400880000000000000000000000000000000000000000000000000000000000000000000000000000000000000000000000000000000000000000000000000000000000038
:4008C00000000000000000000000000000000000000000000000000000000000000000000000000000000000000000000000000000000000000000000000000000000000F8
:4009000000000000000000000000000000000000000000000000000000000000000000000000000000000000000000000000000000000000000000000000000000000000B7
:0200000490006A
:0400000000004005B7
:0200000490105A
:04000000BC90ACAF55
:0200000490303A
:02000000825329
:0200000490402A
:4000000000000000000000000000000000000000000000000000000000000000000000000000000000000000000000000000000000000000000000000000000000000000C0
:400040000000000000000000000000000000000000000000000000000000000000000000000000000000000000000000000000000000000000000000000000000000000080
:400080000000000000000000000000000000000000000000000000000000000000000000000000000000000000000000000000000000000000000000000000000000000040
:4000C0000000000000000000000000000000000000000000000000000000000000000000000000000000000000000000000000000000000000000000000000000000000000
:0200000490501A
:0C00000000012E16106900012E2192BC98
:00000001FF