:400000000080002011000000A5050000A505000008B5044B1A6803F53F5302331A6000F0C9FA00BFFA46004010B5054C237833B9044B13B10448AFF300800123237010BD60
:400040005081FF1F00000000B41B0000084B10B51BB108490848AFF300800848036803B910BD074B002BFBD0BDE81040184700BF000000005481FF1FB41B0000C880FF1F54
:40008000000000000000000038B5214B1B6813F0030F03D001331E4A136030E000F07CFE1C4C206000F016FF054660602068404201F020FA14A3D3E9002301F081FA0022C2
:4000C000154B01F07DFA01F015FDA060684201F011FA0DA3D3E9002301F072FA00220E4B01F06EFA01F006FDE0600123084A13602374002000F066FE002000F001FF00F0A7
:40010000FBFA38BDAFF30080C3F5285C8F422040D080FF1F7081FF1F0000D03F08B5322000F0FEFC08BD00BF08B5322000F066FD08BD00BF2DE9F04786B006460F46384CAF
:40014000D4F814A090FBFAF001F0D4F9354DD5E9028942464B4601F033FACDE9000197FBFAF001F0C7F902460B464046494601F027FACDE90201A06A301A90FBFAF001F0B3
:40018000B9F902460B464046494601F019FACDE90401384601F0AEF9D4E90C2301F05CF806460F46504601F0A5F902460B463046394601F02FFB02460B464046494601F0CB
:4001C000FFF980468946DDE90423DDE9000101F045F806460F46C4E9066742464B46DDE9020101F03BF8C4E90801286901F082F902460B463046394601F068FC08B1FFF78A
:400200008DFF084B186901F075F9054BD3E9082301F052FC08B1FFF787FF06B0BDE8F0877081FF1FD080FF1F08B562B600F0AAFA00F092FD134800F0EDFF00F03BFC00F0CF
:4002400007FB00F06BFB00F0CFFB00F041FC00F0ADFC00F019FD502000F0D0FC502000F05FFC642000F056FC642000F0C1FC00F0E5FD00F081FE044B59681868FFF75AFFA2
:40028000F9E700BF890000007081FF1FFEE700BFF0B40022174611E050F82760F3B226F0FF0608E001EB420511F812406D78A5550132013BDBB2002BF4D10137232FEBD931
:4002C000F0BC7047164B1B78DBB203F00701154A11701B09013213700F22134B1A70022203F22F731A70102203F515731A7040230E4A137080210532117003321370053245
:40030000137003321370202105321170033213705022074B1A704422A3F2E2231A707047CF0100496E5800403D510040C35A0040585B004008B50A46002101F032FC08BDF3
:4003400008B501F023FC08BD38B50322334B1A801821023319702F23314A13801C223148027002300380023001702F490B802F4B1A7004222E497630FFF7E2FF06222D4B28
:400380001A705222A3F580731A702B4B1B78DBB22A4A13704FF4E262294B1A8041F25122023B1A80002419250CE0264B1B7803F0010343EA440404F003044FF4F07000F03F
:4003C00037FF013D0DB1032CEFD115B90320FFF75DFF1D4A4FF4807313800723137000231A490B704820023108701370053213700222174B1A7004220A331A70154A137884
:4004000043F00F031370013A137843F001031370013A137843F08003137038BD8040004084400040864000408C4000408E40004048080048004300400F010049A1460040C1
:400440002242004025420040044000400640004001400040A243004038B572B63C4A137843F00403137000240CE03A4D630019194A0011462A44084691882858FFF75AFF2D
:400480000134E4B2072CF0D933494FF09040FFF7FFFE0322314B1A8040F2031202331A8040F2032202331A8040F2033202331A80202203F2C4731A70294A03F52243463309
:4004C0001A60284A137843F0020313701032137843F002031370244C237843F040032370A2F58632513A137843F01003137008221E491F48FFF724FF0A221E491E48FFF700
:400500001FFF08221D491E48FFF71AFF08221D491D48FFF715FF08221C491D48FFF710FF1C4A137843F0080313701B4D61232B70FFF70AFFC1232B700122184B1A70FFF7E3
:40054000C1FE0E2221461648FFF7FAFE38BD00BFE8460040B81B000090000048485800400404048403500140A04300401C080048C251004024080048F051004030080048B1
:400580001251004038080048225100404008004832510040224300400048004004000840B043004008B501F0C5FA03680C2B00D1FEE7FEE708B5104E104D16E029686B68E2
:4005C000AC68002204E051F8040B43F8040B0432A242F8D1E868002203E0002143F8041B04328242F9D11035013E002EE6D101F0A7FAFFF719FEFEE701000000101C0000AE
:4006000008B5104A104B1A60104A136843F40073136000230AE0032B03D80D4A52F8231000E00C490C4A42F8231001332F2BF2D90A4B1A780A4B1A70074A0A4B1A60FFF7C5
:400640000BFF08BD0004FA050CED00E014ED00E000000000A50500000080FF1FBC760040C080FF1F08ED00E001BE704770B504460E46074B1D681F2802D90020FFF7F4FFC6
:4006800004F01F04103455F8240045F8246070BD08ED00E038B504460D46072902D90020FFF7E2FF1F2C02D90020FFF7DDFF04F01F0000F1604000F564406D01EDB2057048
:4006C00038BD00BF084A137843F0040313701032137843F00403137002F66532137843F001031370704700BFA3430040014B1870704700BF1B4F0040014B1878704700BF6C
:400700001B4F0040014B1880704700BF1C4F0040014B1880704700BF1E4F004008B5164A137803F0010313700232137803F0FC031370124B1A7802F0CF021A701A7842F0AD
:4007400030021A701A7802F0F0021A701A7842F00F021A700A4A137843F00103137040F26B50FFF7CFFF40F26B50FFF7D1FF0820FFF7BCFF08BD00BF184F0040234F0040AB
:40078000194F004008B5054B1B7823B9FFF7C6FF0122024B1A70FFF795FF08BDC481FF1F054A137843F0080313701032137843F008031370704700BFA74300400F490B780A
:4007C00003F0FC0200F0030313430B7001280AD10B4B1B78DBB20B4A13700B4B1B78DBB2013213707047094B1B78DBB2054A1370074B1B78DBB2013213707047435800400C
:40080000130100493646004017010049B3010049BB01004908B50020FFF7D0FF0B4B1A7802F0DF021A701A7802F0FB021A701A7842F008021A7003F527731A7802F0E702F3
:400840001A701A7842F008021A7008BD4358004008B5054B1B7823B9FFF7DCFF0122024B1A70FFF79DFF08BDC581FF1F054A137843F0040313701032137843F004031370D3
:40088000704700BFA74300400F490B7803F0FC0200F0030313430B7001280AD10B4B1B78DBB20B4A13700B4B1B78DBB2013213707047094B1B78DBB2054A1370074B1B78A5
:4008C000DBB201321370704742580040120100493446004016010049B1010049B901004908B50020FFF7D0FF0B4B1A7802F0DF021A701A7802F0FB021A701A7842F00802F0
:400900001A7003F295231A7802F0E7021A701A7842F008021A7008BD4258004008B5054B1B7823B9FFF7DCFF0122024B1A70FFF79DFF08BDC681FF1F054A137843F002037D
:4009400013701032137843F002031370704700BFA74300400F490B7803F0FC0200F0030313430B7001280AD10B4B1B78DBB20B4A13700B4B1B78DBB2013213707047094BB0
:400980001B78DBB2054A1370074B1B78DBB201321370704741580040110100493246004015010049AF010049B701004908B50020FFF7D0FF0B4B1A7802F0DF021A701A78A8
:4009C00002F0FB021A701A7842F008021A7003F28E231A7802F0E7021A701A7842F008021A7008BD4158004008B5054B1B7823B9FFF7DCFF0122024B1A70FFF79DFF08BDF5
:400A0000C781FF1F054A137843F0010313701032137843F001031370704700BFA74300400F490B7803F0FC0200F0030313430B7001280AD10B4B1B78DBB20B4A13700B4B5A
:400A40001B78DBB2013213707047094B1B78DBB2054A1370074B1B78DBB201321370704740580040100100493046004014010049AD010049B501004908B50020FFF7D0FFE6
:400A80000B4B1A7802F0DF021A701A7802F0FB021A701A7842F008021A7003F287231A7802F0E7021A701A7842F008021A7008BD4058004008B5054B1B7823B9FFF7DCFFB6
:400AC0000122024B1A70FFF79DFF08BDC881FF1F054A137843F0040313701032137843F004031370704700BFA2430040084A137843F0010313701032137843F00103137064
:400B000002F64D32137843F001031370704700BFA3430040014B1880704700BF044F0040014B1880704700BF064F0040014B1870704700BF034F004008B5194A137843F0C7
:400B4000020313700232137803F08F0343F010031370144B1A7802F0CF021A701A7842F030021A701A7802F0F0021A701A7842F00F021A706420FFF7CDFF5020FFF7D0FF48
:400B80000020FFF7D3FF084A137843F00103137002F65E32137843F00103137008BD00BF004F00400B4F0040A343004008B5054B1B7823B9FFF7C0FF0122024B1A70FFF7F5
:400BC00095FF08BDC981FF1F084A137843F0020313701032137843F00203137002F65932137843F001031370704700BFA3430040014B1880704700BF104F0040014B1880D3
:400C0000704700BF124F0040014B1870704700BF0F4F004008B5194A137843F0020313700232137803F08F0343F010031370144B1A7802F0CF021A701A7842F030021A7084
:400C40001A7802F0F0021A701A7842F00F021A706420FFF7CDFF5020FFF7D0FF0020FFF7D3FF084A137843F00203137002F66A32137843F00103137008BD00BF0C4F004022
:400C8000174F0040A343004008B5054B1B7823B9FFF7C0FF0122024B1A70FFF795FF08BDCA81FF1F084A137843F0080313701032137843F00803137002F67132137843F000
:400CC00001031370704700BFA3430040014B1870704700BF274F0040014B1880704700BF284F0040014B1880704700BF2A4F004008B5164A137803F00103137002321378CC
:400D000003F0FC031370124B1A7802F0CF021A701A7842F030021A701A7802F0F0021A701A7842F00F021A700A4A137843F00103137042F28C00FFF7CFFF42F28C00FFF750
:400D4000D1FF0820FFF7C2FF08BD00BF244F00402F4F0040254F004008B5054B1B7823B9FFF7C6FF0122024B1A70FFF79BFF08BDCB81FF1F08B50122054B1A600549002013
:400D8000FFF774FC07210020FFF784FC08BD00BF80E100E0710E000010B50124064B1C6000F03EF9A0F5004000B2044B1B68044A1460184410BD00BF80E100E0D081FF1F3A
:400DC00000E100E038B505460124054B1C604FF4004000F01FF9034B1D60034B1C6038BD80E100E0D081FF1F00E100E0024B187800F00F00704700BF6665004040F00700EF
:400E0000014B1870704700BF8665004008B50F20FFF7F4FFFFF7EAFF00F012FA054A137843F01003137000F00FFA0122024B1A6008BD00BF9665004000E100E008B500F0DA
:400E400041F94FF4004000F0E5F80022064B1A60064B1B7823B9FFF78DFF0122034B1A70FFF7D4FF08BD00BFD081FF1FCC81FF1F0D4B1B78DBB213F0010F06D00B490A6870
:400E800002F5FF427F320A6007E013F0020F04D006490A68A2F500420A6013F0040F02D00022024B1A60704766650040D081FF1F08B50222054B1A6005490120FFF7D6FB29
:400EC00007210120FFF7E6FB08BD00BF80E100E0AD0F000010B50224064B1C6000F01AF9A0F5004000B2044B1B68044A1460184410BD00BF80E100E0D881FF1F00E100E01A
:400F000038B505460224054B1C604FF4004000F0FBF8034B1D60034B1C6038BD80E100E0D881FF1F00E100E0024B187800F00F00704700BF6564004040F00700014B1870B8
:400F4000704700BF8564004008B50F20FFF7F4FFFFF7EAFF00F074F9054A137843F01003137000F071F90222024B1A6008BD00BF9564004000E100E008B500F01DF94FF455
:400F8000004000F0C1F80022064B1A60064B1B7823B9FFF78DFF0122034B1A70FFF7D4FF08BD00BFD881FF1FD481FF1F0D4B1B78DBB213F0010F06D00B490A6802F5FF4288
:400FC0007F320A6007E013F0020F04D006490A68A2F500420A6013F0040F02D00022024B1A60704765640040D881FF1F024A137843F080031370704777650040014B187044
:40100000704700BF85650040014B1878704700BF65650040014B1880704700BF086A0040024B1B78024B188880B2704704650040886A0040014B188880B27047886A004010
:40104000014B1880704700BF486A0040014B1880704700BF686A004008B501E0FFF7EAFFFFF7D2FF10F0400FF8D108BD08B5134B1A7802F0F8021A701A7802F0FC021A7068
:40108000FFF7EAFF4FF40040FFF7DAFF4FF40040FFF7C0FF0020FFF7B1FFFFF7B5FF4FF40040FFF7D3FF00F0CBF8054A137843F01003137000F0C8F808BD00BF7765004066
:4010C0009565004008B5054B1B7823B9FFF7CEFF0122024B1A70FFF789FF08BDDC81FF1F024A137843F080031370704776640040014B1870704700BF82640040014B187892
:40110000704700BF62640040014B1880704700BF02680040024B1B78024B188880B270470164004082680040014B188880B2704782680040014B1880704700BF4268004067
:40114000014B1880704700BF6268004008B501E0FFF7EAFFFFF7D2FF10F0400FF8D108BD08B5134B1A7802F0F8021A701A7802F0FC021A70FFF7EAFF4FF40040FFF7DAFF8A
:401180004FF40040FFF7C0FF0020FFF7B1FFFFF7B5FF4FF40040FFF7D3FF00F051F8054A137843F01003137000F04EF808BD00BF766400409264004008B5054B1B7823B9DA
:4011C000FFF7CEFF0122024B1A70FFF789FF08BDDD81FF1F024B1B68C3F89000704700BF08ED00E04001C0B2014B1870704700BF14E400E04FF48012014B1A60704700BF27
:4012000000E100E04FF48012014B1A60704700BF80E100E010B50446FFF7F4FF2046FFF7D9FF0720FFF7DEFFFFF7E4FF10BD00BF0230800803D000BF01380046FCD17047C1
:40124000EFF3108072B6704780F31088704700BF81F0004102E000BF83F0004330B54FEA41044FEA430594EA050F08BF90EA020F1FBF54EA000C55EA020C7FEA645C7FEAC4
:40128000655C00F0E2804FEA5454D4EB5555B8BF6D420CDD2C4480EA020281EA030382EA000083EA010180EA020281EA0303362D88BF30BD11F0004F4FEA01314FF4801C88
:4012C0004CEA113102D0404261EB410113F0004F4FEA03334CEA133302D0524263EB430394EA050F00F0A780A4F10104D5F1200E0DDB02FA0EFC22FA05F2801841F100015A
:4013000003FA0EF2801843FA05F359410EE0A5F120050EF1200E012A03FA0EFC28BF4CF0020C43FA05F3C01851EBE37101F0004507D54FF0000EDCF1000C7EEB00006EEB79
:401340000101B1F5801F1BD3B1F5001F0CD349085FEA30004FEA3C0C04F101044FEA445212F5800F80F09A80BCF1004F08BF5FEA500C50F1000041EB045141EA050130BD18
:401380005FEA4C0C404141EB010111F4801FA4F10104E9D191F0000F04BF01460020B1FA81F308BF2033A3F10B03B3F120020CDA0C3208DD02F1140CC2F10C0201FA0CF0B6
:4013C00021FA02F10CE002F11402D8BFC2F1200C01FA02F120FA0CFCDCBF41EA0C019040E41AA2BF01EB0451294330BD6FEA04041F3C1CDA0C340EDC04F11404C4F1200208
:4014000020FA04F001FA02F340EA030021FA04F345EA030130BDC4F10C04C4F1200220FA02F001FA04F340EA0300294630BD21FA04F0294630BD94F0000F83F4801306BF5F
:4014400081F480110134013D4EE77FEA645C18BF7FEA655C29D094EA050F08BF90EA020F05D054EA000C04BF1946104630BD91EA030F1EBF0021002030BD5FEA545C05D1CC
:401480004000494128BF41F0004130BD14F580043CBF01F5801130BD01F0004545F0FE4141F470014FF0000030BD7FEA645C1ABF194610467FEA655C1CBF0B46024650EA15
:4014C000013406BF52EA033591EA030F41F4002130BD00BF90F0000F04BF0021704730B54FF4806404F132044FF000054FF0000150E700BF90F0000F04BF0021704730B505
:401500004FF4806404F1320410F0004548BF40424FF000013EE700BF42004FEAE2014FEA31014FEA02701FBF12F07F4393F07F4F81F06051704792F0000F14BF93F07F4F72
:40154000704730B54FF4607401F0004521F0004120E700BF50EA010208BF704730B54FF000050AE050EA010208BF704730B511F0004502D5404261EB41014FF4806404F1B3
:4015800032045FEA915C3FF4DCAE4FF003025FEADC0C18BF03325FEADC0C18BF033202EBDC02C2F1200300FA03FC20FA02F001FA03FE40EA0E0021FA02F11444C1E600BF9E
:4015C00070B54FF0FF0C4CF4E06C1CEA11541DBF1CEA135594EA0C0F95EA0C0F00F0DEF82C4481EA030621EA4C5123EA4C5350EA013518BF52EA033541F4801143F48013BF
:4016000038D0A0FB02CE4FF00005E1FB02E506F00042E0FB03E54FF00006E1FB03569CF0000F18BF4EF0010EA4F1FF04B6F5007F64F5407404D25FEA4E0E6D4146EB0606C7
:4016400042EAC62141EA55514FEAC52040EA5E504FEACE2EB4F1FD0C88BFBCF5E06F1ED8BEF1004F08BF5FEA500E50F1000041EB045170BD06F0004646EA010140EA02007B
:4016800081EA0301B4EB5C04C2BFD4EB0C0541EA045170BD41F480114FF0000E013C00F3AB8014F1360FDEBF002001F0004170BDC4F10004203C35DA0C341BDC04F1140482
:4016C000C4F1200500FA05F320FA04F001FA05F240EA020001F0004221F0004110EBD37021FA04F642EB06015EEA430E08BF20EAD37070BDC4F10C04C4F1200500FA04F37C
:4017000020FA05F001FA04F240EA020001F0004110EBD37041F100015EEA430E08BF20EAD37070BDC4F1200500FA05F24EEA020E20FA04F301FA05F243EA020321FA04F0A9
:4017400001F0004121FA04F220EA020000EBD3705EEA430E08BF20EAD37070BD94F0000F0FD101F00046400041EB010111F4801F08BF013CF7D041EA060195F0000F18BFEE
:40178000704703F00046520043EB030313F4801F08BF013DF7D043EA0603704794EA0C0F0CEA135518BF95EA0C0F0CD050EA410618BF52EA4306D1D181EA030101F00041F0
:4017C0004FF0000070BD50EA410606BF1046194652EA430619D094EA0C0F02D150EA013613D195EA0C0F05D152EA03361CBF104619460AD181EA030101F0004141F0FE41F2
:4018000041F470014FF0000070BD41F0FE4141F4780170BD70B54FF0FF0C4CF4E06C1CEA11541DBF1CEA135594EA0C0F95EA0C0F00F0A7F8A4EB050481EA030E52EA033551
:401840004FEA013100F088804FEA03334FF0805545EA131343EA12634FEA022245EA111545EA10654FEA00260EF000419D4208BF964244F1FD0404F5407402D25B084FEAC6
:401880003202B61A65EB03055B084FEA32024FF480104FF4002CB6EB020E75EB030E22BFB61A754640EA0C005B084FEA3202B6EB020E75EB030E22BFB61A754640EA5C0012
:4018C0005B084FEA3202B6EB020E75EB030E22BFB61A754640EA9C005B084FEA3202B6EB020E75EB030E22BFB61A754640EADC0055EA060E18D04FEA051545EA16754FEADF
:4019000006164FEAC30343EA52734FEAC2025FEA1C1CC0D111F4801F0BD141EA00014FF000004FF0004CB6E711F4801F04BF01430020B4F1FD0C88BFBCF5E06F3FF6AFAE26
:40194000B5EB030C04BFB6EB020C5FEA500C50F1000041EB045170BD0EF0004E4EEA113114EB5C04C2BFD4EB0C0541EA045170BD41F480114FF0000E013C90E645EA060E86
:401980008DE60CEA135594EA0C0F08BF95EA0C0F3FF43BAF94EA0C0F0AD150EA01347FF434AF95EA0C0F7FF425AF104619462CE795EA0C0F06D152EA03353FF4FDAE104644
:4019C000194622E750EA410618BF52EA43067FF4C5AE50EA41047FF40DAF52EA43057FF4EBAE12E74FF0FF3C06E000BF4FF0010C02E000BF4FF0010C4DF804CD4FEA410C91
:401A00007FEA6C5C4FEA430C18BF7FEA6C5C1BD001B050EA410C0CBF52EA430C91EA030F02BF90EA020F0020704710F1000F91EA030F58BF994208BF90422CBFD8176FEA61
:401A4000E37040F0010070474FEA410C7FEA6C5C02D150EA013C07D14FEA430C7FEA6C5CD6D152EA033CD3D05DF8040B704700BF8446104662468C461946634600E000BFB9
:401A800001B5FFF7B7FF002848BF10F1000F01BD4DF808EDFFF7F4FF0CBF012000205DF808FB00BF4DF808EDFFF7EAFF34BF012000205DF808FB00BF4DF808EDFFF7E0FF0E
:401AC00094BF012000205DF808FB00BF4DF808EDFFF7CEFF94BF012000205DF808FB00BF4DF808EDFFF7C4FF34BF012000205DF808FB00BF4A0011D212F5001211D20DD54A
:401B00006FF47873B3EB62520ED44FEAC12343F0004343EA505323FA02F070474FF00000704750EA013002D14FF0FF3070474FF000007047014B1868704700BF4881FF1F82
:401B40000E4B70B51E460E4C0025E41AA410A54204D056F8253098470135F8E700F046F8084B094C1E46E41AA4100025A54204D056F8253098470135F8E770BDF81B00005D
:401B8000F81B0000F81B0000001C000010B5431E0A44914204D011F8014B03F8014FF8E710BD03460244934202D003F8011BFAE77047000000000000004F00403000005187
:401BC0000040100040510040300000000140001000140140000800400140000A004C0140000200500140200043000000F8B500BFF8BC08BC9E4670474D0000000106000005
:401C0000F8B500BFF8BC08BC9E46704729000000201C0000C880FF1F8800000090000000000000000000000001000000000000003D0AD7A3701D504064000000E40000001B
:401C40000000000000000000000000000000000000000000000000000000000000000000E81B00000000000000000000000000000000000000000000000000000000000061
:401C80000000000000000000000000000000000000000000000000000000000000000000E880FF1F000000000000000000000000000000000000000000000000000000009E
:401CC00000000000000000000000000000000000000000000000000000000000000000000000000000000000000000000000000000000000000000000000000000000000E4
:401D000000000000000000000000000000000000000000000000000000000000000000000000000000000000000000000000000000000000000000000000000000000000A3
:401D40000000000000000000000000000000000000000000000000000000000000000000000000000000000000000000000000000000000000000000000000000000000063
:401D80000000000000000000000000000000000000000000000000000000000000000000000000000000000000000000000000000000000000000000000000000000000023
:020000040003F7
:0200000480007A
:40000000084F0040065200400464004002650040480001402B0101403C0201403C0301403D04014043050140490601403D07014001090140010B0140030D0140040E0140F1
:40004000020F0140621401404A150140491601403B17014001190140054001400D410140144201400C43014009440140084501400A460140054701400E4801400D490140A5
:400080000B4C0140034D0140085001400151014001200A4B0D20164B1910224B25302E4B08C009406016610A7869792371037203826F850F856F860F010103020502070107
:4000C0000F1019011B0A1D011F0631043303351037083B08560859045B045D905F018001820283108D018F069101930A94019501960A9702980299029A019B019C019E06CB
:40010000A610B004B108B210B304B403B503B608B710BA20BB20C013C105C9FFCAFFCBFFCDA0CF01D018D608D804D904DA04DB04DD90DF01E040E280E440E540E680E84067
:40014000EA80EC40ED20EE8005010E2616201C041D011E2621052250244026282706325036283702390A3A403C403F01458047084E0158405C205F406240662067016A5013
:400180006C046F02824087028C04C010C2E0C420CCECCE9BD050D210D638D838E00801090B040E0810041E0525012602280829042D092F0230013108320233023408350147
:4001C0003604370439223E503F5040134105452C4640473E483B49FF4AFF4BFF4DAF4E074F015018540F580459045A045B045F056040628064406540668068406A806C406A
:400200006D206E8085019401B001B301BE01BF04D804D904DF01060208080D020F021620171019011D0A1E0A1F04231027592F2638083C203F0242404301458047084E4139
:400240004F065410562A57025D205E4A660867046D806F087F208120824188088B08900491089204960297409B049C209F08A580B040B610C080C294C460CA70CEA2D050D1
:40028000D210D6F0D860DE40E080E220EE1E0407059407601204130F1801199E1A021B601DCF1E071F30200721FD2302240125732602280429302BC92E0831FF360F3F0115
:4002C000580459045F01831085088701880C8B0F8C0C8F1090019401950C970298069C0A9D0C9F01A10BA304A507A910AE01B201B40EB50FB710B820BE04BF40D40FD6042E
:40030000D804D904DB04DF010320054007080A850C400D080E080F80104412021308154017401A031B401C101E081F202202252026402708284429112A202B202D022F2446
:40034000316032413680370838043D403E255C105D025E88660287408E0290049108920493189408960297409B449E01A108A580A720A901AD40B020C0C4C2FBC48FCAE7C0
:40038000CC5DCEF2D6F0D880E240E602E88002040401050E07F00A010C0115C5160C173A18041B011DA31F5C200121FE23012401257F29962A022B68320333FF340836044F
:4003C0003E403F045280580459045B045F01807883018438873C882A8A518C018E029302953097049801991C9A069C019D309E029F08A060A12CA218A310A418A660A850C5
:40040000A920AA28AB04B078B101B302B403B604B73CBA20D608D804D904DB04DD90DF010080012203200484052007400A090E28100411041280171A188019331A011D8057
:400440001E28208022C52302271029112D222F2030043241332034043690370838043B013D043E0458806301774085048740900491089204940896809B0C9D139E01A320D8
:40048000A580A680B310C0FFC263C47ECAE5CC7FCE43D608D808EA01EE80EA01E602AB20AF28EA80B828BE14D804DF011F28E018040605940620076009CF0A380B300C3B8E
:4004C0000DFD0F0211731530164017C91820199E1B60240E261028082A102B0F2C3D300733FF347838023F044054410249FF4AFF4BFF4DA04F015018580459045A045F01A3
:400500006040628064406540668068406A806C406D206E80810282059002940199019E0AA102A305AD02B008B204B304B401B501B602B702B980BE50BF50C051C103C52CC7
:40054000C604C73EC837C9FFCAFFCBFFCDAFCE07CF01D018D40FD804D904DA04DB04DF05E040E280E440E540E680E840EA80EC40ED20EE80012002100302068009080A08C1
:400580000E600F0210101204134015401602180419211B021C081E621F0821082580271929202A202E022F0230103111320433043710388039283A143B403F0240044301A5
:4005C000458046204A024E024F06568A5C805D105E025F08660867047F02848489108B0190809128954099109B049D21A202A70BA880C017C2B6C407CA94CC27CE8ED0555A
:40060000D218D6F0D860DE10007F01100501060108960A680B020CFE0D100E0114C5163A170118A319041A5C1B081F0C2101240E250126F0290C2D01311032FF3303350443
:40064000370839023E043F50540F5604580459045B045F0184CA8625870F88058AFA8C778D0B8F0490BF924094CC96139730990C9B029D10A107A483A508A61CA701A90CB1
:40068000AB01AF10B00FB110B4F0B50FB720BF01D280D804D904DB04DF01032604800501060407140A600C200D100F20101014101508188019121A441B301E1021902212EC
:4006C00025082650275029112A842C202E402F483020318835203744388039083D403E143F025C045D025EA066017280800481018C049108938094089B049C809E01C0F7E0
:40070000C26CC424CAFFCC7ECEFAD6F0D880E010E010331036808340CC30E220831088808B0493429B209F10A341A680AB01AF41B720E220EE7050205740634267428E8067
:400740009342970898809AA09B209C40A341A680AA20AE80B040D460D6C0D8C0EA6018101F04970898809AA09B209C40A002A820B002C630EA8014402A107C4087108C04BE
:40078000C404CA08DE04E00813019008931094409A10B040C408EA0100405004561085049008931194409A10C002D406000293109504AB01C0085304562058805F208C1016
:4007C0009010930898809AA09B209C40A002D4E0D62008400E02700276809A809C40A002A601AA01C2C0DC80DE20EC805F02671074018F0293109504A001D601D801DE044A
:40080000E00811049504C40800010101080109010A010B0110011A01000F0000601F1F001F0000000000403F3F007F000000000000CBCB00C0000000000707000000000090
:40084000C000000000000F002F001C01000000000000000000000000000000000000000000000000000000000000000000000000000000000000000000000000000000005D
:400880000000000000000000000000000000000000000000000000000000000000000000000000000000000000000000000000000000000000000000000000000000000038
:4008C00000000000000000000000000000000000000000000000000000000000000000000000000000000000000000000000000000000000000000000000000000000000F8
:4009000000000000000000000000000000000000000000000000000000000000000000000000000000000000000000000000000000000000000000000000000000000000B7
:400940000000000000000000000000000000000000000000000000000000000000000000000000000000000000000000000000000000000000000000000000000000000077
:0200000490006A
:0400000000004005B7
:0200000490105A
:04000000BC90ACAF55
:0200000490303A
:0200000028BE18
:0200000490402A
:4000000000000000000000000000000000000000000000000000000000000000000000000000000000000000000000000000000000000000000000000000000000000000C0
:400040000000000000000000000000000000000000000000000000000000000000000000000000000000000000000000000000000000000000000000000000000000000080
:400080000000000000000000000000000000000000000000000000000000000000000000000000000000000000000000000000000000000000000000000000000000000040
:4000C0000000000000000000000000000000000000000000000000000000000000000000000000000000000000000000000000000000000000000000000000000000000000
:0200000490501A
:0C00000000012E16106900012E23392784
:00000001FF