:400000000080002011000000550400005504000008B5044B1A6803F53F5302331A6000F021FA00BFFA46004010B5054C237833B9044B13B10448AFF300800123237010BDAA
:400040003081FF1F0000000048110000084B10B51BB108490848AFF300800848036803B910BD074B002BFBD0BDE81040184700BF000000003481FF1F48110000C880FF1F80
:400080000000000008B500F049FB012803D000F0E1FB012802D1012000F0B0FC00F084FA08BD00BF08B500F07DFC00F00BFB00F0A5FB00F011FC0023034A1370034A137070
:4000C000034A137008BD00BF6781FF1F6681FF1F6881FF1F08B562B600F0ACFA00F0DEFD124800F0D1FF124800F040FB00F078FC00F006FB00F0A0FB00F00CFC00F08AFC77
:4001000000F0F6FC00F062FD322000F019FD322000F0A8FC642000F09FFC642000F00AFD00F004FE00F076FEFEE700BF85000000A5000000FEE700BFF0B40022174611E0EA
:4001400050F82760F3B226F0FF0608E001EB420511F812406D78A5550132013BDBB2002BF4D10137232FEBD9F0BC7047164B1B78DBB203F00701154A11701B0901321370C8
:400180000F22134B1A70022203F22F731A702023104A137003321370402305321370033213708021053211700332137010210532117003321370A022074B1A704422A3F2E9
:4001C000E2231A70704700BFCF0100496E5800403D510040C05A0040585B004008B50A46002100F0A8FF08BD08B500F099FF08BD38B50024334B1C80192502331D700322DC
:4002000002331A801823304A13702F222F490A801C200231087002310A802D4A137004222C492D48FFF7E0FF06222C4B1A705222A3F580731A702A4B1B78DBB2294A1370A4
:400240004FF4E262284B1A8041F25122023B1A800CE0264B1B7803F0010343EA440404F003044FF4F07000F01FFF013D0DB1032CEFD115B90320FFF75DFF1D4A4FF480739A
:4002800013800723137000231A490B704820023108701370053213700222174B1A7004220A331A70154A137843F00F031370013A137843F001031370013A137843F0800302
:4002C000137038BD8040004086400040884000408E4000406C08004800410040004300400F010049A14600402242004025420040044000400640004001400040A24300402F
:4003000038B572B63E4A137843F00403137000240CE03C4D630019194A0011462A44084691882858FFF75AFF0134E4B2072CF0D935494FF09040FFF7FFFE0322334B1A80E1
:4003400040F2031202331A8040F2032202331A8040F2033202331A80202203F2C4731A702B4A03F5244346331A6002F1804203F584531A60274A137843F002031370103255
:40038000137843F002031370234C237843F040032370A2F58632513A137843F01003137008221E491E48FFF71FFF0A221D491E48FFF71AFF08221D491D48FFF715FF08227B
:4003C0001C491D48FFF710FF08221C491C48FFF70BFF1C4A137843F0080313701A4D61232B70FFF705FFC1232B700122174B1A70FFF7BCFE0E2221461548FFF7F5FE38BDF9
:40040000E84600404C11000090000048485800400404044403500140A043004040080048C251004048080048F051004054080048125100405C0800482251004064080048DC
:4004400032510040224300400048004004000840B043004008B500F037FE03680C2B00D1FEE7FEE708B5104E104D16E029686B68AC68002204E051F8040B43F8040B04322A
:40048000A242F8D1E868002203E0002143F8041B04328242F9D11035013E002EE6D100F019FEFFF717FEFEE701000000A411000008B5104A104B1A60104A136843F400737A
:4004C000136000230AE0032B03D80D4A52F8231000E00C490C4A42F8231001332F2BF2D90A4B1A780A4B1A70074A0A4B1A60FFF707FF08BD0004FA050CED00E014ED00E0EA
:4005000000000000550400000080FF1FBC760040C080FF1F08ED00E001BE704770B504460E46074B1D681F2802D90020FFF7F4FF04F01F04103455F8240045F8246070BD2A
:4005400008ED00E038B504460D46072902D90020FFF7E2FF1F2C02D90020FFF7DDFF04F01F0000F1604000F564406D01EDB2057038BD00BF084A137843F0040313701032B3
:40058000137843F00403137002F66532137843F001031370704700BFA3430040014B1870704700BF1B4F0040014B1878704700BF1B4F0040014B1880704700BF1C4F00408E
:4005C000014B1880704700BF1E4F004008B5164A137803F0010313700232137803F0FC031370124B1A7802F0CF021A701A7842F030021A701A7802F0F0021A701A7842F01E
:400600000F021A700A4A137843F00103137042F28C00FFF7CFFF42F28C00FFF7D1FF0820FFF7BCFF08BD00BF184F0040234F0040194F004008B5054B1B7823B9FFF7C6FFE7
:400640000122024B1A70FFF795FF08BD4C81FF1F054A137843F0010313701032137843F001031370704700BFA74300400F490B7803F0FC0200F0030313430B7001280AD1F4
:400680000B4B1B78DBB20B4A13700B4B1B78DBB2013213707047094B1B78DBB2054A1370074B1B78DBB201321370704740580040100100493046004014010049AD010049A7
:4006C000B501004908B50020FFF7D0FF0B4B1A7802F0DF021A701A7802F0FB021A701A7842F008021A7003F287231A7802F0E7021A701A7842F008021A7008BD4058004026
:4007000008B5054B1B7823B9FFF7DCFF0122024B1A70FFF79DFF08BD4D81FF1F024B187800F00100704700BF965B0040024B1B68C3F88C00704700BF08ED00E04001C0B2A5
:40074000014B1870704700BF13E400E04FF40022014B1A60704700BF00E100E04FF40022014B1A60704700BF80E100E010B50446FFF7F4FF2046FFF7D9FF0720FFF7DEFFEE
:40078000FFF7E4FF10BD00BF054A137843F0020313701032137843F002031370704700BFA74300400F490B7803F0FC0200F0030313430B7001280AD10B4B1B78DBB20B4AB5
:4007C00013700B4B1B78DBB2013213707047094B1B78DBB2054A1370074B1B78DBB201321370704741580040110100493246004015010049AF010049B701004908B500204C
:40080000FFF7D0FF0B4B1A7802F0DF021A701A7802F0FB021A701A7842F008021A7003F28E231A7802F0E7021A701A7842F008021A7008BD4158004008B5054B1B7823B93C
:40084000FFF7DCFF0122024B1A70FFF79DFF08BD4E81FF1F024B187800F00200704700BF965B0040054A137843F0040313701032137843F004031370704700BFA743004032
:400880000F490B7803F0FC0200F0030313430B7001280AD10B4B1B78DBB20B4A13700B4B1B78DBB2013213707047094B1B78DBB2054A1370074B1B78DBB20132137070474B
:4008C00042580040120100493446004016010049B1010049B901004908B50020FFF7D0FF0B4B1A7802F0DF021A701A7802F0FB021A701A7842F008021A7003F295231A7821
:4009000002F0E7021A701A7842F008021A7008BD4258004008B5054B1B7823B9FFF7DCFF0122024B1A70FFF79DFF08BD4F81FF1F054A137843F0080313701032137843F034
:4009400008031370704700BFA74300400F490B7803F0FC0200F0030313430B7001280AD10B4B1B78DBB20B4A13700B4B1B78DBB2013213707047094B1B78DBB2054A13703B
:40098000074B1B78DBB201321370704743580040130100493646004017010049B3010049BB01004908B50020FFF7D0FF0B4B1A7802F0DF021A701A7802F0FB021A701A787D
:4009C00042F008021A7003F527731A7802F0E7021A701A7842F008021A7008BD4358004008B5054B1B7823B9FFF7DCFF0122024B1A70FFF79DFF08BD5081FF1F044A13784A
:400A000003F0FE0300F0010018431070704700BF20510040054A137843F0080313701032137843F008031370704700BFA2430040084A137843F0010313701032137843F074
:400A40000103137002F64D32137843F001031370704700BFA3430040014B1880704700BF044F0040014B1880704700BF064F0040014B1870704700BF034F004008B5194ABF
:400A8000137843F0020313700232137803F08F0343F010031370144B1A7802F0CF021A701A7842F030021A701A7802F0F0021A701A7842F00F021A706420FFF7CDFF502010
:400AC000FFF7D0FF0020FFF7D3FF084A137843F00103137002F65E32137843F00103137008BD00BF004F00400B4F0040A343004008B5054B1B7823B9FFF7C0FF0122024B71
:400B00001A70FFF795FF08BD5181FF1F084A137843F0020313701032137843F00203137002F65932137843F001031370704700BFA3430040014B1880704700BF104F00406F
:400B4000014B1880704700BF124F0040014B1870704700BF0F4F004008B5194A137843F0020313700232137803F08F0343F010031370144B1A7802F0CF021A701A7842F01D
:400B800030021A701A7802F0F0021A701A7842F00F021A706420FFF7CDFF5020FFF7D0FF0020FFF7D3FF084A137843F00203137002F66A32137843F00103137008BD00BFC2
:400BC0000C4F0040174F0040A343004008B5054B1B7823B9FFF7C0FF0122024B1A70FFF795FF08BD5281FF1F084A137843F0080313701032137843F00803137002F671325C
:400C0000137843F001031370704700BFA3430040014B1870704700BF274F0040014B1880704700BF284F0040014B1880704700BF2A4F004008B5164A137803F0010313708D
:400C40000232137803F0FC031370124B1A7802F0CF021A701A7842F030021A701A7802F0F0021A701A7842F00F021A700A4A137843F0010313704FF6FF70FFF7CFFF4FF6CF
:400C8000FF70FFF7D1FF0820FFF7C2FF08BD00BF244F00402F4F0040254F004008B5054B1B7823B9FFF7C6FF0122024B1A70FFF79BFF08BD5381FF1F08B50122054B1A6055
:400CC00005490020FFF72AFC07210020FFF73AFC08BD00BF80E100E0610D0000024B187800F00F00704700BF6765004040F00700014B1870704700BF8765004008B50F20CC
:400D0000FFF7F4FFFFF7EAFF00F0D6F9054A137843F01003137000F0D3F90122024B1A6008BD00BF9765004000E100E008B500F00DF94FF4004000F0BBF80022064B1A609C
:400D4000064B1B7823B9FFF7B7FF0122034B1A70FFF7D4FF08BD00BF5881FF1F5481FF1F0D4B1B78DBB213F0010F06D00B490A6802F5FF427F320A6007E013F0020F04D08C
:400D800006490A68A2F500420A6013F0040F02D00022024B1A607047676500405881FF1F08B50222054B1A6005490120FFF7B6FB07210120FFF7C6FB08BD00BF80E100E01E
:400DC000490E0000024B187800F00F00704700BF6764004040F00700014B1870704700BF8764004008B50F20FFF7F4FFFFF7EAFF00F062F9054A137843F01003137000F001
:400E00005FF90222024B1A6008BD00BF9764004000E100E008B500F009F94FF4004000F0B7F80022064B1A60064B1B7823B9FFF7B7FF0122034B1A70FFF7D4FF08BD00BF7D
:400E40006081FF1F5C81FF1F0D4B1B78DBB213F0010F06D00B490A6802F5FF427F320A6007E013F0020F04D006490A68A2F500420A6013F0040F02D00022024B1A607047A3
:400E8000676400406081FF1F024A137843F080031370704777650040014B1870704700BF85650040014B1878704700BF65650040014B1880704700BF086A0040014B18887D
:400EC00080B27047886A0040014B1880704700BF486A0040014B1880704700BF686A004008B501E0FFF7EAFFFFF7DCFF10F0400FF8D108BD08B5134B1A7802F0F8021A70D1
:400F00001A7802F0FC021A70FFF7EAFF4FF40040FFF7DAFF4FF40040FFF7CAFF0020FFF7BBFFFFF7BFFF4FF40040FFF7D3FF00F0C3F8054A137843F01003137000F0C0F86D
:400F400008BD00BF776500409565004008B5054B1B7823B9FFF7CEFF0122024B1A70FFF793FF08BD6481FF1F024A137843F080031370704777640040014B1870704700BFE2
:400F800084640040014B1878704700BF64640040014B1880704700BF06680040014B188880B2704786680040014B1880704700BF46680040014B1880704700BF66680040F4
:400FC00008B501E0FFF7EAFFFFF7DCFF10F0400FF8D108BD08B5134B1A7802F0F8021A701A7802F0FC021A70FFF7EAFF4FF40040FFF7DAFF4FF40040FFF7CAFF0020FFF70E
:40100000BBFFFFF7BFFF4FF40040FFF7D3FF00F053F8054A137843F01003137000F050F808BD00BF776400409464004008B5054B1B7823B9FFF7CEFF0122024B1A70FFF7DB
:4010400093FF08BD6581FF1F024B1B68C3F89000704700BF08ED00E04001C0B2014B1870704700BF14E400E04FF48012014B1A60704700BF00E100E04FF48012014B1A606D
:40108000704700BF80E100E010B50446FFF7F4FF2046FFF7D9FF0720FFF7DEFFFFF7E4FF10BD00BF000000000230800803D000BF01380046FCD17047EFF3108072B670474E
:4010C00080F31088704700BF014B1868704700BF2C81FF1F0E4B70B51E460E4C0025E41AA410A54204D056F8253098470135F8E700F046F8084B094C1E46E41AA4100025EC
:40110000A54204D056F8253098470135F8E770BD8C1100008C1100008C1100009411000010B5431E0A44914204D011F8014B03F8014FF8E710BD03460244934202D003F81C
:40114000011BFAE77047000000000000004F0040300000510040100040510040300000000140001000140140000800400140000A004C01400002005001402000430000009E
:40118000F8B500BFF8BC08BC9E4670474D000000B1040000F8B500BFF8BC08BC9E46704729000000B8110000C880FF1F68000000400000000000000000000000000000002F
:4011C000000000000000000000000000000000000000000000000000000000007C110000000000000000000000000000000000000000000000000000000000000000000062
:4012000000000000000000000000000000000000000000000000000000000000CC80FF1F000000000000000000000000000000000000000000000000000000000000000044
:40124000000000000000000000000000000000000000000000000000000000000000000000000000000000000000000000000000000000000000000000000000000000006E
:40128000000000000000000000000000000000000000000000000000000000000000000000000000000000000000000000000000000000000000000000000000000000002E
:4012C00000000000000000000000000000000000000000000000000000000000000000000000000000000000000000000000000000000000000000000000000000000000EE
:4013000000000000000000000000000000000000000000000000000000000000000000000000000000000000000000000000000000000000000000000000000000000000AD
:020000040003F7
:0200000480007A
:40000000074F0040065200400364004003650040330001402D0101404A020140320301405204014046050140460601404107014002090140040A0140030B0140010D0140EB
:40004000010F01406314014046150140491601404517014001190140074001400C410140114201401243014008440140084501400B460140044701400D4801400E4901409C
:400080000B4C0140034D0140075001400151014001300A4B0D30164B1920224B2E4B08C0098060156109786379457103846F870F7503856F870F030409020B0116021D018D
:4000C0001E011F022501270229012B0232013303340237043B085608580459045B045C115D905F01810287048C018E029401960A98019A069C029E01A210AD01B004B10230
:40010000B210B301B408B504B603BA80BF05D608D804D904DB04DC11DD90DF0104400A100B010E2A168019141A101C401E2A1F402240231124802608270829142C02324067
:4001400038013B103E023F0459405C805D2060016680670468046A406C046D408240860888808C04C080C2E5C410CA16CC08CEC5D638D838E0200D040F021502170419022A
:400180001B042102230526013301360137063B80580459045C115F018104840685048A088C088F109101930A960899019B029D029F01A006A601A802AB04AD01AF02B0016F
:4001C000B110B204B304B402B508B608B703B828BB80BE50BF04C062C103C9FFCAFFCBFFCDA0CF01D018D608D804D904DA04DB04DC11DD91DF01E040E280E440E540E680D4
:40020000E840EA80EC40ED20EE800108020203080A10108012281708180419801B0D1F80200222712320254027102B052F8032513718390A3A403D804004410442104920EB
:400240005880624080029080914093909B089E02A402A920AC04AD40C007C204C42ECA8CCC6DCE1BD006D204D608D808EE010414060A08200E01100612181302140A1614E3
:4002800018181A061F012220241E280E2C013001310232203301341E3E0540624103454246C3470E481F49FF4AFF4BFF4DAF4E074F015018540F580459045A045B045C110C
:4002C0005D115F056040628064406540668068406A806C406D206E808407859E876089308A078BC99404957398079B0F9C019E02A194A360A401A5FDA602A702A9CFAA0473
:40030000AB30AE08B1FFB20FBF01D804D904DC01DF0100A8040807040B980E090F1010A0120A15141740180819041A441E3020202101220227402C202D102E052F4C3080E4
:400340003101361C3C083D043F1040044210430448404929508051085210581059065A4061086210641065087A089084914093909502961099809B209D289E02A001A14024
:40038000A480A60AB480C067C2EEC4EFCAE0CC69CE60D006D204D60FD806DE04E6010108020F0310040B053B0604080C0A010D201408150616011720180C1A021B401F381D
:4003C000210E2310253D2610280730103178320F33073908580459045C115F01821885FE86048701880189968B688D0E8FF090019408957F980199C59B3A9C04A202A301D0
:40040000A401A9A3AA01AB5CAE08B004B210B408B603B7FFBE11BF40D280D40FD604D804D904DB04DC01DD10DF010108021403800408051006800A100B8E0F1410101280D2
:4004400013501404161019221A101B801F0D2280250C27402B882E012F203014313032083504375038083A843B903C023D88580459805B2263807340800483428602900828
:400480009140939099889B209D229E02A001A140A404A608A708A840C07EC26FC46FCAC5CC76CEDED60FD801E408EE01A810E408B808BE04D804DF011C10E601EA10EE0108
:4004C000E0100106030104010E02150218021D061E05300131043204330235013602390A3E413F044043410149FF4AFF4BFF4DA04F015018580459045A045C115D015F01AA
:400500006040628064406540668068406A806C406D206E808194836084CC86238C858D308E1A8FC99477957398BF9A409C039EFC9F0FA0CAA19EA215A360A5FDA702A9CF41
:40054000AB30B2F0B3FFB40FBF04C042C101C54CC603C72EC837C9FFCAFFCBFFCDAFCE07CF01D018D40FD804D904DA04DB04DC01DD11DF05E040E280E440E540E680E8406F
:40058000EA80EC40ED20EE80010802010440050409200B010D080E040F021501180119081A401D041E041F282125232027102D012E012F283188330437443A013C423D80DB
:4005C0003F02410442804342468047604F05558156095C055D205E40660867046E106F017D08812187018E109004920195029B409D0C9F10A001A14CA302A580A720C0A533
:40060000C2E3C410CAE0CC5ACE91D0BBD6F0D860DE40E610010E021D03F00411057F06040C110D960E080F681020141C15A3175C1E60200121C52204233A240D25FE261047
:4006400027012A022B013040320333FF3420361D3E103F04580459045C015F0183808401855B87048B0F8D088E018F019537996C9A069B029C029F80A001A580A96CAB01E2
:40068000AE02B002B370B401B50FB604B780B908BE11BF40D280D40FD604D804D904DB04DC11DD10DF0101080201050406820A020B080D8A10421505172019101A021B0203
:4006C0001C041D021E011F04200821202248272029082B082D042E032F2430403120320833403504380839023A013B903C023D893E8459125A8463807002850287208D40BF
:400700008F4090089140939096019B409D049F10A001A14CA308A404A520A608A720C0B5C2B3C479CAE6CC4ECEDFD60FD801E640E04031203710800287408A01CC30E23065
:40074000824093C096029C409F10A002A520AC40AF40E020EC10EE405004550859045C0262206504800493C096429C409F10A002A520D460D6C0D8C0E6801B011E40831008
:40078000870193C096429C409F10A002A520A802A90CAA20C630E220E410EA80EE8014802A1076408C04C404CA08DE04E0081240900898809A109E40A501A901C40803087E
:4007C00050045610830890089A10A501B480C002D406EA0800028704A501C008534056805A405F408D20924093C096029C40A002A520D4E0D6200A020C407002778087804E
:400800008E8096029C409E80A002C2C0DC80DE20E2405D08670874018D089308A001A501D601D801DE04E0021102A501C40800020101080209010A0210021A02000F00005E
:40084000601F1F001F0000000000403F3F007F000000000000CBCB00C00000000007070000000000C000000000000F002F001C0100000000000000000000000000000000FF
:400880000000000000000000000000000000000000000000000000000000000000000000000000000000000000000000000000000000000000000000000000000000000038
:4008C00000000000000000000000000000000000000000000000000000000000000000000000000000000000000000000000000000000000000000000000000000000000F8
:4009000000000000000000000000000000000000000000000000000000000000000000000000000000000000000000000000000000000000000000000000000000000000B7
:400940000000000000000000000000000000000000000000000000000000000000000000000000000000000000000000000000000000000000000000000000000000000077
:0200000490006A
:0400000000004005B7
:0200000490105A
:04000000BC90ACAF55
:0200000490303A
:02000000CBF340
:0200000490402A
:4000000000000000000000000000000000000000000000000000000000000000000000000000000000000000000000000000000000000000000000000000000000000000C0
:400040000000000000000000000000000000000000000000000000000000000000000000000000000000000000000000000000000000000000000000000000000000000080
:400080000000000000000000000000000000000000000000000000000000000000000000000000000000000000000000000000000000000000000000000000000000000040
:4000C0000000000000000000000000000000000000000000000000000000000000000000000000000000000000000000000000000000000000000000000000000000000000
:0200000490501A
:0C00000000012E16106900012E1EDC5CB1
:00000001FF